{"contracts/FortuneTiger.sol":{"FortuneTiger":{"abi":[{"inputs":[{"internalType":"address","name":"_bkcTokenAddress","type":"address"},{"internalType":"address","name":"_delegationManagerAddress","type":"address"},{"internalType":"address","name":"_treasuryAddress","type":"address"},{"internalType":"address","name":"_initialOwner","type":"address"}],"stateMutability":"nonpayable","type":"constructor"},{"inputs":[{"internalType":"address","name":"owner","type":"address"}],"name":"OwnableInvalidOwner","type":"error"},{"inputs":[{"internalType":"address","name":"account","type":"address"}],"name":"OwnableUnauthorizedAccount","type":"error"},{"inputs":[],"name":"ReentrancyGuardReentrantCall","type":"error"},{"anonymous":false,"inputs":[{"indexed":true,"internalType":"uint256","name":"actionId","type":"uint256"},{"indexed":true,"internalType":"address","name":"creator","type":"address"},{"indexed":false,"internalType":"enum FortuneTiger.ActionType","name":"actionType","type":"uint8"},{"indexed":false,"internalType":"uint256","name":"endTime","type":"uint256"},{"indexed":false,"internalType":"string","name":"description","type":"string"}],"name":"ActionCreated","type":"event"},{"anonymous":false,"inputs":[{"indexed":true,"internalType":"uint256","name":"actionId","type":"uint256"},{"indexed":true,"internalType":"address","name":"finalRecipient","type":"address"},{"indexed":false,"internalType":"uint256","name":"prizeAmount","type":"uint256"}],"name":"ActionFinalized","type":"event"},{"anonymous":false,"inputs":[{"indexed":true,"internalType":"address","name":"previousOwner","type":"address"},{"indexed":true,"internalType":"address","name":"newOwner","type":"address"}],"name":"OwnershipTransferred","type":"event"},{"anonymous":false,"inputs":[{"indexed":true,"internalType":"uint256","name":"actionId","type":"uint256"},{"indexed":true,"internalType":"address","name":"participant","type":"address"},{"indexed":false,"internalType":"uint256","name":"bkcAmount","type":"uint256"},{"indexed":false,"internalType":"uint256","name":"couponsIssued","type":"uint256"}],"name":"Participation","type":"event"},{"anonymous":false,"inputs":[{"indexed":true,"internalType":"uint256","name":"actionId","type":"uint256"},{"indexed":true,"internalType":"address","name":"creator","type":"address"},{"indexed":false,"internalType":"uint256","name":"stakeAmount","type":"uint256"}],"name":"StakeReturned","type":"event"},{"inputs":[],"name":"BENEFICENT_CAUSE_BIPS","outputs":[{"internalType":"uint256","name":"","type":"uint256"}],"stateMutability":"view","type":"function"},{"inputs":[],"name":"BENEFICENT_CREATOR_BIPS","outputs":[{"internalType":"uint256","name":"","type":"uint256"}],"stateMutability":"view","type":"function"},{"inputs":[],"name":"BENEFICENT_DELEGATOR_BIPS","outputs":[{"internalType":"uint256","name":"","type":"uint256"}],"stateMutability":"view","type":"function"},{"inputs":[],"name":"BENEFICENT_TREASURY_BIPS","outputs":[{"internalType":"uint256","name":"","type":"uint256"}],"stateMutability":"view","type":"function"},{"inputs":[],"name":"COUPONS_PER_BKC","outputs":[{"internalType":"uint256","name":"","type":"uint256"}],"stateMutability":"view","type":"function"},{"inputs":[],"name":"DRAW_MAX_OFFSET_BLOCKS","outputs":[{"internalType":"uint256","name":"","type":"uint256"}],"stateMutability":"view","type":"function"},{"inputs":[],"name":"SPORT_CREATOR_BIPS","outputs":[{"internalType":"uint256","name":"","type":"uint256"}],"stateMutability":"view","type":"function"},{"inputs":[],"name":"SPORT_DELEGATOR_BIPS","outputs":[{"internalType":"uint256","name":"","type":"uint256"}],"stateMutability":"view","type":"function"},{"inputs":[],"name":"SPORT_TREASURY_BIPS","outputs":[{"internalType":"uint256","name":"","type":"uint256"}],"stateMutability":"view","type":"function"},{"inputs":[],"name":"SPORT_WINNER_BIPS","outputs":[{"internalType":"uint256","name":"","type":"uint256"}],"stateMutability":"view","type":"function"},{"inputs":[],"name":"actionCounter","outputs":[{"internalType":"uint256","name":"","type":"uint256"}],"stateMutability":"view","type":"function"},{"inputs":[{"internalType":"uint256","name":"","type":"uint256"}],"name":"actions","outputs":[{"internalType":"uint256","name":"id","type":"uint256"},{"internalType":"address","name":"creator","type":"address"},{"internalType":"string","name":"description","type":"string"},{"internalType":"enum FortuneTiger.ActionType","name":"actionType","type":"uint8"},{"internalType":"enum FortuneTiger.Status","name":"status","type":"uint8"},{"internalType":"uint256","name":"endTime","type":"uint256"},{"internalType":"uint256","name":"totalPot","type":"uint256"},{"internalType":"uint256","name":"creatorStake","type":"uint256"},{"internalType":"bool","name":"isStakeReturned","type":"bool"},{"internalType":"address","name":"beneficiary","type":"address"},{"internalType":"uint256","name":"totalCoupons","type":"uint256"},{"internalType":"address","name":"winner","type":"address"},{"internalType":"uint256","name":"closingBlock","type":"uint256"},{"internalType":"uint256","name":"winningCoupon","type":"uint256"}],"stateMutability":"view","type":"function"},{"inputs":[],"name":"bkcToken","outputs":[{"internalType":"contract BKCToken","name":"","type":"address"}],"stateMutability":"view","type":"function"},{"inputs":[{"internalType":"uint256","name":"","type":"uint256"},{"internalType":"uint256","name":"","type":"uint256"}],"name":"couponOwners","outputs":[{"internalType":"address","name":"","type":"address"}],"stateMutability":"view","type":"function"},{"inputs":[{"internalType":"uint256","name":"","type":"uint256"},{"internalType":"uint256","name":"","type":"uint256"}],"name":"couponRanges","outputs":[{"internalType":"uint256","name":"","type":"uint256"}],"stateMutability":"view","type":"function"},{"inputs":[{"internalType":"uint256","name":"_duration","type":"uint256"},{"internalType":"enum FortuneTiger.ActionType","name":"_actionType","type":"uint8"},{"internalType":"uint256","name":"_charityStake","type":"uint256"},{"internalType":"string","name":"_description","type":"string"}],"name":"createAction","outputs":[],"stateMutability":"nonpayable","type":"function"},{"inputs":[],"name":"delegationManager","outputs":[{"internalType":"contract DelegationManager","name":"","type":"address"}],"stateMutability":"view","type":"function"},{"inputs":[{"internalType":"uint256","name":"_actionId","type":"uint256"}],"name":"finalizeAction","outputs":[],"stateMutability":"nonpayable","type":"function"},{"inputs":[],"name":"getMinCreatorStake","outputs":[{"internalType":"uint256","name":"","type":"uint256"}],"stateMutability":"view","type":"function"},{"inputs":[],"name":"owner","outputs":[{"internalType":"address","name":"","type":"address"}],"stateMutability":"view","type":"function"},{"inputs":[{"internalType":"uint256","name":"_actionId","type":"uint256"},{"internalType":"uint256","name":"_bkcAmount","type":"uint256"}],"name":"participate","outputs":[],"stateMutability":"nonpayable","type":"function"},{"inputs":[],"name":"renounceOwnership","outputs":[],"stateMutability":"nonpayable","type":"function"},{"inputs":[{"internalType":"address","name":"newOwner","type":"address"}],"name":"transferOwnership","outputs":[],"stateMutability":"nonpayable","type":"function"},{"inputs":[],"name":"treasuryWallet","outputs":[{"internalType":"address","name":"","type":"address"}],"stateMutability":"view","type":"function"}],"evm":{"bytecode":{"linkReferences":{},"object":"60e060405234801561001057600080fd5b5060405161202538038061202583398101604081905261002f916100f6565b806001600160a01b03811661005e57604051631e4fbdf760e01b81526000600482015260240160405180910390fd5b6100678161008a565b5050600180556001600160a01b0392831660805290821660a0521660c05261014a565b600080546001600160a01b038381166001600160a01b0319831681178455604051919092169283917f8be0079c531659141344cd1fd0a4f28419497f9722a3daafe3b4186f6b6457e09190a35050565b80516001600160a01b03811681146100f157600080fd5b919050565b6000806000806080858703121561010c57600080fd5b610115856100da565b9350610123602086016100da565b9250610131604086016100da565b915061013f606086016100da565b905092959194509250565b60805160a05160c051611e516101d4600039600081816101da0152818161159e01526117d80152600081816102b50152818161151c015261175601526000818161019b0152818161043d015281816106630152818161092b015281816110d80152818161148a015281816115cd015281816116c40152818161180701526118950152611e516000f3fe608060405234801561001057600080fd5b50600436106101585760003560e01c8063717c51af116100c3578063d34642061161007c578063d34642061461029f578063e289e7c2146102a7578063ea4d3c9b146102b0578063f2fde38b146102d7578063fa71932b146102ea578063fdbd98b0146102f357600080fd5b8063717c51af1461022057806383240f8314610233578063870a9bb6146102605780638da5cb5b14610268578063a473104314610279578063b959d8991461028c57600080fd5b80633291ba27116101155780633291ba271461015d5780634626402b146101d5578063471764051461015d5780634b214014146101fc578063694acc2d14610205578063715018a61461021857600080fd5b80630a5fb3ca1461015d578063129874aa14610179578063186a98f31461015d57806321fd3fdc1461018e5780632402ff971461019657806327eb3c101461015d575b600080fd5b61016661019081565b6040519081526020015b60405180910390f35b61018c610187366004611953565b6102fc565b005b61016661065a565b6101bd7f000000000000000000000000000000000000000000000000000000000000000081565b6040516001600160a01b039091168152602001610170565b6101bd7f000000000000000000000000000000000000000000000000000000000000000081565b61016661226081565b6101bd610213366004611953565b610706565b61018c61073e565b61018c61022e366004611975565b610752565b610246610241366004611a11565b610c1a565b6040516101709e9d9c9b9a99989796959493929190611ab1565b610166600081565b6000546001600160a01b03166101bd565b610166610287366004611953565b610d29565b61018c61029a366004611a11565b610d5a565b610166606481565b6101666103e881565b6101bd7f000000000000000000000000000000000000000000000000000000000000000081565b61018c6102e5366004611b64565b61119b565b6101666123f081565b61016660055481565b6103046111d6565b6000828152600260205260408120906003820154610100900460ff16600181111561033157610331611a70565b146103785760405162461bcd60e51b815260206004820152601260248201527120b1ba34b7b71034b9903737ba1037b832b760711b60448201526064015b60405180910390fd5b806004015442106103cb5760405162461bcd60e51b815260206004820152601c60248201527f50617274696369706174696f6e2074696d652068617320656e64656400000000604482015260640161036f565b6000821161041b5760405162461bcd60e51b815260206004820152601760248201527f416d6f756e74206d75737420626520706f736974697665000000000000000000604482015260640161036f565b6040516323b872dd60e01b8152336004820152306024820152604481018390527f00000000000000000000000000000000000000000000000000000000000000006001600160a01b0316906323b872dd906064016020604051808303816000875af115801561048e573d6000803e3d6000fd5b505050506040513d601f19601f820116820180604052508101906104b29190611b94565b6104f65760405162461bcd60e51b8152602060048201526015602482015274151bdad95b881d1c985b9cd9995c8819985a5b1959605a1b604482015260640161036f565b8181600501600082825461050a9190611bcc565b909155506000905080600383015460ff16600181111561052c5761052c611a70565b0361060e57670de0b6b3a76400006105466103e885611bdf565b6105509190611c0c565b9050600081116105a25760405162461bcd60e51b815260206004820152601c60248201527f416d6f756e7420746f6f20736d616c6c20666f7220636f75706f6e7300000000604482015260640161036f565b808260080160008282546105b69190611bcc565b909155505060008481526003602090815260408083208054600181810183559185528385200180546001600160a01b031916331790558784526004835290832060088601548154928301825590845291909220909101555b6040805184815260208101839052339186917f1c4199218aad88ba32390b01e8e6a81983382ab9a80aabfe3d2d042253c53b3e910160405180910390a3505061065660018055565b5050565b600080620f42407f00000000000000000000000000000000000000000000000000000000000000006001600160a01b03166318160ddd6040518163ffffffff1660e01b8152600401602060405180830381865afa1580156106bf573d6000803e3d6000fd5b505050506040513d601f19601f820116820180604052508101906106e39190611c20565b6106ed9190611c0c565b9050600081116106fe576001610700565b805b91505090565b6003602052816000526040600020818154811061072257600080fd5b6000918252602090912001546001600160a01b03169150829050565b610746611200565b610750600061122d565b565b61075a6111d6565b6005805490600061076a83611c39565b909155505060055460008060608188600181111561078a5761078a611a70565b0361081d5761079761065a565b9250600083116107e95760405162461bcd60e51b815260206004820152601860248201527f4d696e207374616b652063616e6e6f74206265207a65726f0000000000000000604482015260640161036f565b505060408051808201909152601381527253706f727473204c6f7474657279204472617760681b6020820152600090610909565b6000871161086d5760405162461bcd60e51b815260206004820152601960248201527f43686172697479207374616b65206d757374206265203e203000000000000000604482015260640161036f565b869250339150841580159061088357506101f485105b6108cf5760405162461bcd60e51b815260206004820152601a60248201527f496e76616c6964206465736372697074696f6e206c656e677468000000000000604482015260640161036f565b85858080601f0160208091040260200160405190810160405280939291908181526020018383808284376000920191909152509293505050505b6040516323b872dd60e01b8152336004820152306024820152604481018490527f00000000000000000000000000000000000000000000000000000000000000006001600160a01b0316906323b872dd906064016020604051808303816000875af115801561097c573d6000803e3d6000fd5b505050506040513d601f19601f820116820180604052508101906109a09190611b94565b6109e45760405162461bcd60e51b815260206004820152601560248201527414dd185ad9481d1c985b9cd9995c8819985a5b1959605a1b604482015260640161036f565b604051806101c00160405280858152602001336001600160a01b03168152602001828152602001896001811115610a1d57610a1d611a70565b815260200160008152602001610a338b42611bcc565b8152600060208083018290526040808401889052606084018390526001600160a01b03878116608086015260a0850184905260c0850184905260e0850184905261010090940183905288835260028083529281902085518155918501516001830180546001600160a01b03191691909516179093559183015190820190610aba9082611cee565b50606082015160038201805460ff191660018381811115610add57610add611a70565b0217905550608082015160038201805461ff001916610100836001811115610b0757610b07611a70565b021790555060a082015160048281019190915560c0830151600583015560e08301516006830155610100808401516007840180546101208701516001600160a81b0319909116921515610100600160a81b031916929092176001600160a01b039283169093029290921790915561014084015160088401556101608401516009840180546001600160a01b03191691909216179055610180830151600a8301556101a090920151600b9091015560008581526002602052604090819020909101549051339186917f07231e538d6ec3dff4f8cb6190b7150c7a186dfebe215524b8bc4ead1952f8dd91610bfe918d91908790611dad565b60405180910390a350505050610c1360018055565b5050505050565b600260208190526000918252604090912080546001820154928201805491936001600160a01b03169291610c4d90611c68565b80601f0160208091040260200160405190810160405280929190818152602001828054610c7990611c68565b8015610cc65780601f10610c9b57610100808354040283529160200191610cc6565b820191906000526020600020905b815481529060010190602001808311610ca957829003601f168201915b505050506003830154600484015460058501546006860154600787015460088801546009890154600a8a0154600b909a0154989960ff8089169a610100998a900482169a509798969795969085169594046001600160a01b03908116949216918e565b60046020528160005260406000208181548110610d4557600080fd5b90600052602060002001600091509150505481565b610d626111d6565b6000818152600260205260408120906003820154610100900460ff166001811115610d8f57610d8f611a70565b14610de85760405162461bcd60e51b8152602060048201526024808201527f416374696f6e206e6f74206f70656e206f7220616c72656164792066696e616c6044820152631a5e995960e21b606482015260840161036f565b8060040154421015610e3c5760405162461bcd60e51b815260206004820152601860248201527f416374696f6e20686173206e6f7420656e646564207965740000000000000000604482015260640161036f565b600581015460008080600385015460ff166001811115610e5e57610e5e611a70565b036110485743600a8501819055406000819003610ec95760405162461bcd60e51b815260206004820152602360248201527f436c6f73696e6720626c6f636b68617368206e6f7420617661696c61626c65206044820152621e595d60ea1b606482015260840161036f565b6000610ed6606483611dde565b610ee1906001611bcc565b905060008187600a0154610ef59190611bcc565b905080406000819003610f645760405162461bcd60e51b815260206004820152603160248201527f4472617720626c6f636b68617368206e6f7420617661696c61626c652079657460448201527016103a393c9030b3b0b4b7103630ba32b960791b606482015260840161036f565b6008880154600090610f769083611dde565b610f81906001611bcc565b600b8a018190559050610f948a8261127d565b60098a0180546001600160a01b0319166001600160a01b03929092169182179055610ff95760405162461bcd60e51b815260206004820152601560248201527421b7bab632103737ba103334b732103bb4b73732b960591b604482015260640161036f565b60098901546001600160a01b031696506127106110186122608a611bdf565b6110229190611c0c565b60018a015490965061103e9089906001600160a01b0316611407565b5050505050611092565b600784015461010090046001600160a01b0316915061271061106c6123f085611bdf565b6110769190611c0c565b60018501549091506110929084906001600160a01b0316611643565b60038401805461ff0019166101001790556110ac84611836565b80156111475760405163a9059cbb60e01b81526001600160a01b038381166004830152602482018390527f0000000000000000000000000000000000000000000000000000000000000000169063a9059cbb906044016020604051808303816000875af1158015611121573d6000803e3d6000fd5b505050506040513d601f19601f820116820180604052508101906111459190611b94565b505b816001600160a01b0316857fd132b85665e1eeb8a7c94da56f88102db8b3a377b16f07afba1e7e6597653c128360405161118391815260200190565b60405180910390a35050505061119860018055565b50565b6111a3611200565b6001600160a01b0381166111cd57604051631e4fbdf760e01b81526000600482015260240161036f565b6111988161122d565b6002600154036111f957604051633ee5aeb560e01b815260040160405180910390fd5b6002600155565b6000546001600160a01b031633146107505760405163118cdaa760e01b815233600482015260240161036f565b600080546001600160a01b038381166001600160a01b0319831681178455604051919092169283917f8be0079c531659141344cd1fd0a4f28419497f9722a3daafe3b4186f6b6457e09190a35050565b6000828152600460209081526040808320805482518185028101850190935280835284938301828280156112d057602002820191906000526020600020905b8154815260200190600101908083116112bc575b50505050509050600080600183516112e89190611df2565b90505b8082116113f957600060026113008385611bcc565b61130a9190611c0c565b90506000811561133d5784611320600184611df2565b8151811061133057611330611e05565b6020026020010151611340565b60005b9050808711801561136a575084828151811061135e5761135e611e05565b60200260200101518711155b156113b157600088815260036020526040902080548390811061138f5761138f611e05565b6000918252602090912001546001600160a01b03169550611401945050505050565b8482815181106113c3576113c3611e05565b60200260200101518711156113e4576113dd826001611bcc565b93506113f2565b6113ef600183611df2565b92505b50506112eb565b600093505050505b92915050565b600061271061141861019085611bdf565b6114229190611c0c565b9050600061271061143561019086611bdf565b61143f9190611c0c565b9050600061271061145261019087611bdf565b61145c9190611c0c565b905082156114f95760405163a9059cbb60e01b81526001600160a01b038581166004830152602482018590527f0000000000000000000000000000000000000000000000000000000000000000169063a9059cbb906044016020604051808303816000875af11580156114d3573d6000803e3d6000fd5b505050506040513d601f19601f820116820180604052508101906114f79190611b94565b505b81156115815760405163bdd071fb60e01b815260006004820152602481018390527f00000000000000000000000000000000000000000000000000000000000000006001600160a01b03169063bdd071fb90604401600060405180830381600087803b15801561156857600080fd5b505af115801561157c573d6000803e3d6000fd5b505050505b8015610c135760405163a9059cbb60e01b81526001600160a01b037f000000000000000000000000000000000000000000000000000000000000000081166004830152602482018390527f0000000000000000000000000000000000000000000000000000000000000000169063a9059cbb906044015b6020604051808303816000875af1158015611617573d6000803e3d6000fd5b505050506040513d601f19601f8201168201806040525081019061163b9190611b94565b505050505050565b600061271061165461019085611bdf565b61165e9190611c0c565b9050600061271061167161019086611bdf565b61167b9190611c0c565b9050600061271061168c8287611bdf565b6116969190611c0c565b905080156117335760405163a9059cbb60e01b81526001600160a01b038581166004830152602482018390527f0000000000000000000000000000000000000000000000000000000000000000169063a9059cbb906044016020604051808303816000875af115801561170d573d6000803e3d6000fd5b505050506040513d601f19601f820116820180604052508101906117319190611b94565b505b82156117bb5760405163bdd071fb60e01b815260006004820152602481018490527f00000000000000000000000000000000000000000000000000000000000000006001600160a01b03169063bdd071fb90604401600060405180830381600087803b1580156117a257600080fd5b505af11580156117b6573d6000803e3d6000fd5b505050505b8115610c135760405163a9059cbb60e01b81526001600160a01b037f000000000000000000000000000000000000000000000000000000000000000081166004830152602482018490527f0000000000000000000000000000000000000000000000000000000000000000169063a9059cbb906044016115f8565b600781015460ff1615801561184f575060008160060154115b156111985760078101805460ff19166001908117909155810154600682015460405163a9059cbb60e01b81526001600160a01b03928316600482015260248101919091527f00000000000000000000000000000000000000000000000000000000000000009091169063a9059cbb906044016020604051808303816000875af11580156118e0573d6000803e3d6000fd5b505050506040513d601f19601f820116820180604052508101906119049190611b94565b506001810154815460068301546040519081526001600160a01b03909216917f0d736493ece6b7d52e34dd028d3d9d0aa75de37339f3da6b3514e70e231ed2a59060200160405180910390a350565b6000806040838503121561196657600080fd5b50508035926020909101359150565b60008060008060006080868803121561198d57600080fd5b853594506020860135600281106119a357600080fd5b935060408601359250606086013567ffffffffffffffff8111156119c657600080fd5b8601601f810188136119d757600080fd5b803567ffffffffffffffff8111156119ee57600080fd5b886020828401011115611a0057600080fd5b959894975092955050506020019190565b600060208284031215611a2357600080fd5b5035919050565b6000815180845260005b81811015611a5057602081850181015186830182015201611a34565b506000602082860101526020601f19601f83011685010191505092915050565b634e487b7160e01b600052602160045260246000fd5b6002811061119857634e487b7160e01b600052602160045260246000fd5b611aad81611a86565b9052565b8e81526001600160a01b038e1660208201526101c060408201819052600090611adc9083018f611a2a565b9050611aeb606083018e611aa4565b611af8608083018d611aa4565b8a60a08301528960c08301528860e0830152611b1961010083018915159052565b6001600160a01b03871661012083015285610140830152611b466101608301866001600160a01b03169052565b6101808201939093526101a001529c9b505050505050505050505050565b600060208284031215611b7657600080fd5b81356001600160a01b0381168114611b8d57600080fd5b9392505050565b600060208284031215611ba657600080fd5b81518015158114611b8d57600080fd5b634e487b7160e01b600052601160045260246000fd5b8082018082111561140157611401611bb6565b808202811582820484141761140157611401611bb6565b634e487b7160e01b600052601260045260246000fd5b600082611c1b57611c1b611bf6565b500490565b600060208284031215611c3257600080fd5b5051919050565b600060018201611c4b57611c4b611bb6565b5060010190565b634e487b7160e01b600052604160045260246000fd5b600181811c90821680611c7c57607f821691505b602082108103611c9c57634e487b7160e01b600052602260045260246000fd5b50919050565b601f821115611ce957806000526020600020601f840160051c81016020851015611cc95750805b601f840160051c820191505b81811015610c135760008155600101611cd5565b505050565b815167ffffffffffffffff811115611d0857611d08611c52565b611d1c81611d168454611c68565b84611ca2565b6020601f821160018114611d505760008315611d385750848201515b600019600385901b1c1916600184901b178455610c13565b600084815260208120601f198516915b82811015611d805787850151825560209485019460019092019101611d60565b5084821015611d9e5786840151600019600387901b60f8161c191681555b50505050600190811b01905550565b611db684611a86565b838152826020820152606060408201526000611dd56060830184611a2a565b95945050505050565b600082611ded57611ded611bf6565b500690565b8181038181111561140157611401611bb6565b634e487b7160e01b600052603260045260246000fdfea2646970667358221220e88c46c5c221deaa9a061c38e0944cf29fb6881b6a07de37cd5da837da26bc4b64736f6c634300081c0033","opcodes":"PUSH1 0xE0 PUSH1 0x40 MSTORE CALLVALUE DUP1 ISZERO PUSH2 0x10 JUMPI PUSH1 0x0 DUP1 REVERT JUMPDEST POP PUSH1 0x40 MLOAD PUSH2 0x2025 CODESIZE SUB DUP1 PUSH2 0x2025 DUP4 CODECOPY DUP2 ADD PUSH1 0x40 DUP2 SWAP1 MSTORE PUSH2 0x2F SWAP2 PUSH2 0xF6 JUMP JUMPDEST DUP1 PUSH1 0x1 PUSH1 0x1 PUSH1 0xA0 SHL SUB DUP2 AND PUSH2 0x5E JUMPI PUSH1 0x40 MLOAD PUSH4 0x1E4FBDF7 PUSH1 0xE0 SHL DUP2 MSTORE PUSH1 0x0 PUSH1 0x4 DUP3 ADD MSTORE PUSH1 0x24 ADD PUSH1 0x40 MLOAD DUP1 SWAP2 SUB SWAP1 REVERT JUMPDEST PUSH2 0x67 DUP2 PUSH2 0x8A JUMP JUMPDEST POP POP PUSH1 0x1 DUP1 SSTORE PUSH1 0x1 PUSH1 0x1 PUSH1 0xA0 SHL SUB SWAP3 DUP4 AND PUSH1 0x80 MSTORE SWAP1 DUP3 AND PUSH1 0xA0 MSTORE AND PUSH1 0xC0 MSTORE PUSH2 0x14A JUMP JUMPDEST PUSH1 0x0 DUP1 SLOAD PUSH1 0x1 PUSH1 0x1 PUSH1 0xA0 SHL SUB DUP4 DUP2 AND PUSH1 0x1 PUSH1 0x1 PUSH1 0xA0 SHL SUB NOT DUP4 AND DUP2 OR DUP5 SSTORE PUSH1 0x40 MLOAD SWAP2 SWAP1 SWAP3 AND SWAP3 DUP4 SWAP2 PUSH32 0x8BE0079C531659141344CD1FD0A4F28419497F9722A3DAAFE3B4186F6B6457E0 SWAP2 SWAP1 LOG3 POP POP JUMP JUMPDEST DUP1 MLOAD PUSH1 0x1 PUSH1 0x1 PUSH1 0xA0 SHL SUB DUP2 AND DUP2 EQ PUSH2 0xF1 JUMPI PUSH1 0x0 DUP1 REVERT JUMPDEST SWAP2 SWAP1 POP JUMP JUMPDEST PUSH1 0x0 DUP1 PUSH1 0x0 DUP1 PUSH1 0x80 DUP6 DUP8 SUB SLT ISZERO PUSH2 0x10C JUMPI PUSH1 0x0 DUP1 REVERT JUMPDEST PUSH2 0x115 DUP6 PUSH2 0xDA JUMP JUMPDEST SWAP4 POP PUSH2 0x123 PUSH1 0x20 DUP7 ADD PUSH2 0xDA JUMP JUMPDEST SWAP3 POP PUSH2 0x131 PUSH1 0x40 DUP7 ADD PUSH2 0xDA JUMP JUMPDEST SWAP2 POP PUSH2 0x13F PUSH1 0x60 DUP7 ADD PUSH2 0xDA JUMP JUMPDEST SWAP1 POP SWAP3 SWAP6 SWAP2 SWAP5 POP SWAP3 POP JUMP JUMPDEST PUSH1 0x80 MLOAD PUSH1 0xA0 MLOAD PUSH1 0xC0 MLOAD PUSH2 0x1E51 PUSH2 0x1D4 PUSH1 0x0 CODECOPY PUSH1 0x0 DUP2 DUP2 PUSH2 0x1DA ADD MSTORE DUP2 DUP2 PUSH2 0x159E ADD MSTORE PUSH2 0x17D8 ADD MSTORE PUSH1 0x0 DUP2 DUP2 PUSH2 0x2B5 ADD MSTORE DUP2 DUP2 PUSH2 0x151C ADD MSTORE PUSH2 0x1756 ADD MSTORE PUSH1 0x0 DUP2 DUP2 PUSH2 0x19B ADD MSTORE DUP2 DUP2 PUSH2 0x43D ADD MSTORE DUP2 DUP2 PUSH2 0x663 ADD MSTORE DUP2 DUP2 PUSH2 0x92B ADD MSTORE DUP2 DUP2 PUSH2 0x10D8 ADD MSTORE DUP2 DUP2 PUSH2 0x148A ADD MSTORE DUP2 DUP2 PUSH2 0x15CD ADD MSTORE DUP2 DUP2 PUSH2 0x16C4 ADD MSTORE DUP2 DUP2 PUSH2 0x1807 ADD MSTORE PUSH2 0x1895 ADD MSTORE PUSH2 0x1E51 PUSH1 0x0 RETURN INVALID PUSH1 0x80 PUSH1 0x40 MSTORE CALLVALUE DUP1 ISZERO PUSH2 0x10 JUMPI PUSH1 0x0 DUP1 REVERT JUMPDEST POP PUSH1 0x4 CALLDATASIZE LT PUSH2 0x158 JUMPI PUSH1 0x0 CALLDATALOAD PUSH1 0xE0 SHR DUP1 PUSH4 0x717C51AF GT PUSH2 0xC3 JUMPI DUP1 PUSH4 0xD3464206 GT PUSH2 0x7C JUMPI DUP1 PUSH4 0xD3464206 EQ PUSH2 0x29F JUMPI DUP1 PUSH4 0xE289E7C2 EQ PUSH2 0x2A7 JUMPI DUP1 PUSH4 0xEA4D3C9B EQ PUSH2 0x2B0 JUMPI DUP1 PUSH4 0xF2FDE38B EQ PUSH2 0x2D7 JUMPI DUP1 PUSH4 0xFA71932B EQ PUSH2 0x2EA JUMPI DUP1 PUSH4 0xFDBD98B0 EQ PUSH2 0x2F3 JUMPI PUSH1 0x0 DUP1 REVERT JUMPDEST DUP1 PUSH4 0x717C51AF EQ PUSH2 0x220 JUMPI DUP1 PUSH4 0x83240F83 EQ PUSH2 0x233 JUMPI DUP1 PUSH4 0x870A9BB6 EQ PUSH2 0x260 JUMPI DUP1 PUSH4 0x8DA5CB5B EQ PUSH2 0x268 JUMPI DUP1 PUSH4 0xA4731043 EQ PUSH2 0x279 JUMPI DUP1 PUSH4 0xB959D899 EQ PUSH2 0x28C JUMPI PUSH1 0x0 DUP1 REVERT JUMPDEST DUP1 PUSH4 0x3291BA27 GT PUSH2 0x115 JUMPI DUP1 PUSH4 0x3291BA27 EQ PUSH2 0x15D JUMPI DUP1 PUSH4 0x4626402B EQ PUSH2 0x1D5 JUMPI DUP1 PUSH4 0x47176405 EQ PUSH2 0x15D JUMPI DUP1 PUSH4 0x4B214014 EQ PUSH2 0x1FC JUMPI DUP1 PUSH4 0x694ACC2D EQ PUSH2 0x205 JUMPI DUP1 PUSH4 0x715018A6 EQ PUSH2 0x218 JUMPI PUSH1 0x0 DUP1 REVERT JUMPDEST DUP1 PUSH4 0xA5FB3CA EQ PUSH2 0x15D JUMPI DUP1 PUSH4 0x129874AA EQ PUSH2 0x179 JUMPI DUP1 PUSH4 0x186A98F3 EQ PUSH2 0x15D JUMPI DUP1 PUSH4 0x21FD3FDC EQ PUSH2 0x18E JUMPI DUP1 PUSH4 0x2402FF97 EQ PUSH2 0x196 JUMPI DUP1 PUSH4 0x27EB3C10 EQ PUSH2 0x15D JUMPI JUMPDEST PUSH1 0x0 DUP1 REVERT JUMPDEST PUSH2 0x166 PUSH2 0x190 DUP2 JUMP JUMPDEST PUSH1 0x40 MLOAD SWAP1 DUP2 MSTORE PUSH1 0x20 ADD JUMPDEST PUSH1 0x40 MLOAD DUP1 SWAP2 SUB SWAP1 RETURN JUMPDEST PUSH2 0x18C PUSH2 0x187 CALLDATASIZE PUSH1 0x4 PUSH2 0x1953 JUMP JUMPDEST PUSH2 0x2FC JUMP JUMPDEST STOP JUMPDEST PUSH2 0x166 PUSH2 0x65A JUMP JUMPDEST PUSH2 0x1BD PUSH32 0x0 DUP2 JUMP JUMPDEST PUSH1 0x40 MLOAD PUSH1 0x1 PUSH1 0x1 PUSH1 0xA0 SHL SUB SWAP1 SWAP2 AND DUP2 MSTORE PUSH1 0x20 ADD PUSH2 0x170 JUMP JUMPDEST PUSH2 0x1BD PUSH32 0x0 DUP2 JUMP JUMPDEST PUSH2 0x166 PUSH2 0x2260 DUP2 JUMP JUMPDEST PUSH2 0x1BD PUSH2 0x213 CALLDATASIZE PUSH1 0x4 PUSH2 0x1953 JUMP JUMPDEST PUSH2 0x706 JUMP JUMPDEST PUSH2 0x18C PUSH2 0x73E JUMP JUMPDEST PUSH2 0x18C PUSH2 0x22E CALLDATASIZE PUSH1 0x4 PUSH2 0x1975 JUMP JUMPDEST PUSH2 0x752 JUMP JUMPDEST PUSH2 0x246 PUSH2 0x241 CALLDATASIZE PUSH1 0x4 PUSH2 0x1A11 JUMP JUMPDEST PUSH2 0xC1A JUMP JUMPDEST PUSH1 0x40 MLOAD PUSH2 0x170 SWAP15 SWAP14 SWAP13 SWAP12 SWAP11 SWAP10 SWAP9 SWAP8 SWAP7 SWAP6 SWAP5 SWAP4 SWAP3 SWAP2 SWAP1 PUSH2 0x1AB1 JUMP JUMPDEST PUSH2 0x166 PUSH1 0x0 DUP2 JUMP JUMPDEST PUSH1 0x0 SLOAD PUSH1 0x1 PUSH1 0x1 PUSH1 0xA0 SHL SUB AND PUSH2 0x1BD JUMP JUMPDEST PUSH2 0x166 PUSH2 0x287 CALLDATASIZE PUSH1 0x4 PUSH2 0x1953 JUMP JUMPDEST PUSH2 0xD29 JUMP JUMPDEST PUSH2 0x18C PUSH2 0x29A CALLDATASIZE PUSH1 0x4 PUSH2 0x1A11 JUMP JUMPDEST PUSH2 0xD5A JUMP JUMPDEST PUSH2 0x166 PUSH1 0x64 DUP2 JUMP JUMPDEST PUSH2 0x166 PUSH2 0x3E8 DUP2 JUMP JUMPDEST PUSH2 0x1BD PUSH32 0x0 DUP2 JUMP JUMPDEST PUSH2 0x18C PUSH2 0x2E5 CALLDATASIZE PUSH1 0x4 PUSH2 0x1B64 JUMP JUMPDEST PUSH2 0x119B JUMP JUMPDEST PUSH2 0x166 PUSH2 0x23F0 DUP2 JUMP JUMPDEST PUSH2 0x166 PUSH1 0x5 SLOAD DUP2 JUMP JUMPDEST PUSH2 0x304 PUSH2 0x11D6 JUMP JUMPDEST PUSH1 0x0 DUP3 DUP2 MSTORE PUSH1 0x2 PUSH1 0x20 MSTORE PUSH1 0x40 DUP2 KECCAK256 SWAP1 PUSH1 0x3 DUP3 ADD SLOAD PUSH2 0x100 SWAP1 DIV PUSH1 0xFF AND PUSH1 0x1 DUP2 GT ISZERO PUSH2 0x331 JUMPI PUSH2 0x331 PUSH2 0x1A70 JUMP JUMPDEST EQ PUSH2 0x378 JUMPI PUSH1 0x40 MLOAD PUSH3 0x461BCD PUSH1 0xE5 SHL DUP2 MSTORE PUSH1 0x20 PUSH1 0x4 DUP3 ADD MSTORE PUSH1 0x12 PUSH1 0x24 DUP3 ADD MSTORE PUSH18 0x20B1BA34B7B71034B9903737BA1037B832B7 PUSH1 0x71 SHL PUSH1 0x44 DUP3 ADD MSTORE PUSH1 0x64 ADD JUMPDEST PUSH1 0x40 MLOAD DUP1 SWAP2 SUB SWAP1 REVERT JUMPDEST DUP1 PUSH1 0x4 ADD SLOAD TIMESTAMP LT PUSH2 0x3CB JUMPI PUSH1 0x40 MLOAD PUSH3 0x461BCD PUSH1 0xE5 SHL DUP2 MSTORE PUSH1 0x20 PUSH1 0x4 DUP3 ADD MSTORE PUSH1 0x1C PUSH1 0x24 DUP3 ADD MSTORE PUSH32 0x50617274696369706174696F6E2074696D652068617320656E64656400000000 PUSH1 0x44 DUP3 ADD MSTORE PUSH1 0x64 ADD PUSH2 0x36F JUMP JUMPDEST PUSH1 0x0 DUP3 GT PUSH2 0x41B JUMPI PUSH1 0x40 MLOAD PUSH3 0x461BCD PUSH1 0xE5 SHL DUP2 MSTORE PUSH1 0x20 PUSH1 0x4 DUP3 ADD MSTORE PUSH1 0x17 PUSH1 0x24 DUP3 ADD MSTORE PUSH32 0x416D6F756E74206D75737420626520706F736974697665000000000000000000 PUSH1 0x44 DUP3 ADD MSTORE PUSH1 0x64 ADD PUSH2 0x36F JUMP JUMPDEST PUSH1 0x40 MLOAD PUSH4 0x23B872DD PUSH1 0xE0 SHL DUP2 MSTORE CALLER PUSH1 0x4 DUP3 ADD MSTORE ADDRESS PUSH1 0x24 DUP3 ADD MSTORE PUSH1 0x44 DUP2 ADD DUP4 SWAP1 MSTORE PUSH32 0x0 PUSH1 0x1 PUSH1 0x1 PUSH1 0xA0 SHL SUB AND SWAP1 PUSH4 0x23B872DD SWAP1 PUSH1 0x64 ADD PUSH1 0x20 PUSH1 0x40 MLOAD DUP1 DUP4 SUB DUP2 PUSH1 0x0 DUP8 GAS CALL ISZERO DUP1 ISZERO PUSH2 0x48E JUMPI RETURNDATASIZE PUSH1 0x0 DUP1 RETURNDATACOPY RETURNDATASIZE PUSH1 0x0 REVERT JUMPDEST POP POP POP POP PUSH1 0x40 MLOAD RETURNDATASIZE PUSH1 0x1F NOT PUSH1 0x1F DUP3 ADD AND DUP3 ADD DUP1 PUSH1 0x40 MSTORE POP DUP2 ADD SWAP1 PUSH2 0x4B2 SWAP2 SWAP1 PUSH2 0x1B94 JUMP JUMPDEST PUSH2 0x4F6 JUMPI PUSH1 0x40 MLOAD PUSH3 0x461BCD PUSH1 0xE5 SHL DUP2 MSTORE PUSH1 0x20 PUSH1 0x4 DUP3 ADD MSTORE PUSH1 0x15 PUSH1 0x24 DUP3 ADD MSTORE PUSH21 0x151BDAD95B881D1C985B9CD9995C8819985A5B1959 PUSH1 0x5A SHL PUSH1 0x44 DUP3 ADD MSTORE PUSH1 0x64 ADD PUSH2 0x36F JUMP JUMPDEST DUP2 DUP2 PUSH1 0x5 ADD PUSH1 0x0 DUP3 DUP3 SLOAD PUSH2 0x50A SWAP2 SWAP1 PUSH2 0x1BCC JUMP JUMPDEST SWAP1 SWAP2 SSTORE POP PUSH1 0x0 SWAP1 POP DUP1 PUSH1 0x3 DUP4 ADD SLOAD PUSH1 0xFF AND PUSH1 0x1 DUP2 GT ISZERO PUSH2 0x52C JUMPI PUSH2 0x52C PUSH2 0x1A70 JUMP JUMPDEST SUB PUSH2 0x60E JUMPI PUSH8 0xDE0B6B3A7640000 PUSH2 0x546 PUSH2 0x3E8 DUP6 PUSH2 0x1BDF JUMP JUMPDEST PUSH2 0x550 SWAP2 SWAP1 PUSH2 0x1C0C JUMP JUMPDEST SWAP1 POP PUSH1 0x0 DUP2 GT PUSH2 0x5A2 JUMPI PUSH1 0x40 MLOAD PUSH3 0x461BCD PUSH1 0xE5 SHL DUP2 MSTORE PUSH1 0x20 PUSH1 0x4 DUP3 ADD MSTORE PUSH1 0x1C PUSH1 0x24 DUP3 ADD MSTORE PUSH32 0x416D6F756E7420746F6F20736D616C6C20666F7220636F75706F6E7300000000 PUSH1 0x44 DUP3 ADD MSTORE PUSH1 0x64 ADD PUSH2 0x36F JUMP JUMPDEST DUP1 DUP3 PUSH1 0x8 ADD PUSH1 0x0 DUP3 DUP3 SLOAD PUSH2 0x5B6 SWAP2 SWAP1 PUSH2 0x1BCC JUMP JUMPDEST SWAP1 SWAP2 SSTORE POP POP PUSH1 0x0 DUP5 DUP2 MSTORE PUSH1 0x3 PUSH1 0x20 SWAP1 DUP2 MSTORE PUSH1 0x40 DUP1 DUP4 KECCAK256 DUP1 SLOAD PUSH1 0x1 DUP2 DUP2 ADD DUP4 SSTORE SWAP2 DUP6 MSTORE DUP4 DUP6 KECCAK256 ADD DUP1 SLOAD PUSH1 0x1 PUSH1 0x1 PUSH1 0xA0 SHL SUB NOT AND CALLER OR SWAP1 SSTORE DUP8 DUP5 MSTORE PUSH1 0x4 DUP4 MSTORE SWAP1 DUP4 KECCAK256 PUSH1 0x8 DUP7 ADD SLOAD DUP2 SLOAD SWAP3 DUP4 ADD DUP3 SSTORE SWAP1 DUP5 MSTORE SWAP2 SWAP1 SWAP3 KECCAK256 SWAP1 SWAP2 ADD SSTORE JUMPDEST PUSH1 0x40 DUP1 MLOAD DUP5 DUP2 MSTORE PUSH1 0x20 DUP2 ADD DUP4 SWAP1 MSTORE CALLER SWAP2 DUP7 SWAP2 PUSH32 0x1C4199218AAD88BA32390B01E8E6A81983382AB9A80AABFE3D2D042253C53B3E SWAP2 ADD PUSH1 0x40 MLOAD DUP1 SWAP2 SUB SWAP1 LOG3 POP POP PUSH2 0x656 PUSH1 0x1 DUP1 SSTORE JUMP JUMPDEST POP POP JUMP JUMPDEST PUSH1 0x0 DUP1 PUSH3 0xF4240 PUSH32 0x0 PUSH1 0x1 PUSH1 0x1 PUSH1 0xA0 SHL SUB AND PUSH4 0x18160DDD PUSH1 0x40 MLOAD DUP2 PUSH4 0xFFFFFFFF AND PUSH1 0xE0 SHL DUP2 MSTORE PUSH1 0x4 ADD PUSH1 0x20 PUSH1 0x40 MLOAD DUP1 DUP4 SUB DUP2 DUP7 GAS STATICCALL ISZERO DUP1 ISZERO PUSH2 0x6BF JUMPI RETURNDATASIZE PUSH1 0x0 DUP1 RETURNDATACOPY RETURNDATASIZE PUSH1 0x0 REVERT JUMPDEST POP POP POP POP PUSH1 0x40 MLOAD RETURNDATASIZE PUSH1 0x1F NOT PUSH1 0x1F DUP3 ADD AND DUP3 ADD DUP1 PUSH1 0x40 MSTORE POP DUP2 ADD SWAP1 PUSH2 0x6E3 SWAP2 SWAP1 PUSH2 0x1C20 JUMP JUMPDEST PUSH2 0x6ED SWAP2 SWAP1 PUSH2 0x1C0C JUMP JUMPDEST SWAP1 POP PUSH1 0x0 DUP2 GT PUSH2 0x6FE JUMPI PUSH1 0x1 PUSH2 0x700 JUMP JUMPDEST DUP1 JUMPDEST SWAP2 POP POP SWAP1 JUMP JUMPDEST PUSH1 0x3 PUSH1 0x20 MSTORE DUP2 PUSH1 0x0 MSTORE PUSH1 0x40 PUSH1 0x0 KECCAK256 DUP2 DUP2 SLOAD DUP2 LT PUSH2 0x722 JUMPI PUSH1 0x0 DUP1 REVERT JUMPDEST PUSH1 0x0 SWAP2 DUP3 MSTORE PUSH1 0x20 SWAP1 SWAP2 KECCAK256 ADD SLOAD PUSH1 0x1 PUSH1 0x1 PUSH1 0xA0 SHL SUB AND SWAP2 POP DUP3 SWAP1 POP JUMP JUMPDEST PUSH2 0x746 PUSH2 0x1200 JUMP JUMPDEST PUSH2 0x750 PUSH1 0x0 PUSH2 0x122D JUMP JUMPDEST JUMP JUMPDEST PUSH2 0x75A PUSH2 0x11D6 JUMP JUMPDEST PUSH1 0x5 DUP1 SLOAD SWAP1 PUSH1 0x0 PUSH2 0x76A DUP4 PUSH2 0x1C39 JUMP JUMPDEST SWAP1 SWAP2 SSTORE POP POP PUSH1 0x5 SLOAD PUSH1 0x0 DUP1 PUSH1 0x60 DUP2 DUP9 PUSH1 0x1 DUP2 GT ISZERO PUSH2 0x78A JUMPI PUSH2 0x78A PUSH2 0x1A70 JUMP JUMPDEST SUB PUSH2 0x81D JUMPI PUSH2 0x797 PUSH2 0x65A JUMP JUMPDEST SWAP3 POP PUSH1 0x0 DUP4 GT PUSH2 0x7E9 JUMPI PUSH1 0x40 MLOAD PUSH3 0x461BCD PUSH1 0xE5 SHL DUP2 MSTORE PUSH1 0x20 PUSH1 0x4 DUP3 ADD MSTORE PUSH1 0x18 PUSH1 0x24 DUP3 ADD MSTORE PUSH32 0x4D696E207374616B652063616E6E6F74206265207A65726F0000000000000000 PUSH1 0x44 DUP3 ADD MSTORE PUSH1 0x64 ADD PUSH2 0x36F JUMP JUMPDEST POP POP PUSH1 0x40 DUP1 MLOAD DUP1 DUP3 ADD SWAP1 SWAP2 MSTORE PUSH1 0x13 DUP2 MSTORE PUSH19 0x53706F727473204C6F74746572792044726177 PUSH1 0x68 SHL PUSH1 0x20 DUP3 ADD MSTORE PUSH1 0x0 SWAP1 PUSH2 0x909 JUMP JUMPDEST PUSH1 0x0 DUP8 GT PUSH2 0x86D JUMPI PUSH1 0x40 MLOAD PUSH3 0x461BCD PUSH1 0xE5 SHL DUP2 MSTORE PUSH1 0x20 PUSH1 0x4 DUP3 ADD MSTORE PUSH1 0x19 PUSH1 0x24 DUP3 ADD MSTORE PUSH32 0x43686172697479207374616B65206D757374206265203E203000000000000000 PUSH1 0x44 DUP3 ADD MSTORE PUSH1 0x64 ADD PUSH2 0x36F JUMP JUMPDEST DUP7 SWAP3 POP CALLER SWAP2 POP DUP5 ISZERO DUP1 ISZERO SWAP1 PUSH2 0x883 JUMPI POP PUSH2 0x1F4 DUP6 LT JUMPDEST PUSH2 0x8CF JUMPI PUSH1 0x40 MLOAD PUSH3 0x461BCD PUSH1 0xE5 SHL DUP2 MSTORE PUSH1 0x20 PUSH1 0x4 DUP3 ADD MSTORE PUSH1 0x1A PUSH1 0x24 DUP3 ADD MSTORE PUSH32 0x496E76616C6964206465736372697074696F6E206C656E677468000000000000 PUSH1 0x44 DUP3 ADD MSTORE PUSH1 0x64 ADD PUSH2 0x36F JUMP JUMPDEST DUP6 DUP6 DUP1 DUP1 PUSH1 0x1F ADD PUSH1 0x20 DUP1 SWAP2 DIV MUL PUSH1 0x20 ADD PUSH1 0x40 MLOAD SWAP1 DUP2 ADD PUSH1 0x40 MSTORE DUP1 SWAP4 SWAP3 SWAP2 SWAP1 DUP2 DUP2 MSTORE PUSH1 0x20 ADD DUP4 DUP4 DUP1 DUP3 DUP5 CALLDATACOPY PUSH1 0x0 SWAP3 ADD SWAP2 SWAP1 SWAP2 MSTORE POP SWAP3 SWAP4 POP POP POP POP JUMPDEST PUSH1 0x40 MLOAD PUSH4 0x23B872DD PUSH1 0xE0 SHL DUP2 MSTORE CALLER PUSH1 0x4 DUP3 ADD MSTORE ADDRESS PUSH1 0x24 DUP3 ADD MSTORE PUSH1 0x44 DUP2 ADD DUP5 SWAP1 MSTORE PUSH32 0x0 PUSH1 0x1 PUSH1 0x1 PUSH1 0xA0 SHL SUB AND SWAP1 PUSH4 0x23B872DD SWAP1 PUSH1 0x64 ADD PUSH1 0x20 PUSH1 0x40 MLOAD DUP1 DUP4 SUB DUP2 PUSH1 0x0 DUP8 GAS CALL ISZERO DUP1 ISZERO PUSH2 0x97C JUMPI RETURNDATASIZE PUSH1 0x0 DUP1 RETURNDATACOPY RETURNDATASIZE PUSH1 0x0 REVERT JUMPDEST POP POP POP POP PUSH1 0x40 MLOAD RETURNDATASIZE PUSH1 0x1F NOT PUSH1 0x1F DUP3 ADD AND DUP3 ADD DUP1 PUSH1 0x40 MSTORE POP DUP2 ADD SWAP1 PUSH2 0x9A0 SWAP2 SWAP1 PUSH2 0x1B94 JUMP JUMPDEST PUSH2 0x9E4 JUMPI PUSH1 0x40 MLOAD PUSH3 0x461BCD PUSH1 0xE5 SHL DUP2 MSTORE PUSH1 0x20 PUSH1 0x4 DUP3 ADD MSTORE PUSH1 0x15 PUSH1 0x24 DUP3 ADD MSTORE PUSH21 0x14DD185AD9481D1C985B9CD9995C8819985A5B1959 PUSH1 0x5A SHL PUSH1 0x44 DUP3 ADD MSTORE PUSH1 0x64 ADD PUSH2 0x36F JUMP JUMPDEST PUSH1 0x40 MLOAD DUP1 PUSH2 0x1C0 ADD PUSH1 0x40 MSTORE DUP1 DUP6 DUP2 MSTORE PUSH1 0x20 ADD CALLER PUSH1 0x1 PUSH1 0x1 PUSH1 0xA0 SHL SUB AND DUP2 MSTORE PUSH1 0x20 ADD DUP3 DUP2 MSTORE PUSH1 0x20 ADD DUP10 PUSH1 0x1 DUP2 GT ISZERO PUSH2 0xA1D JUMPI PUSH2 0xA1D PUSH2 0x1A70 JUMP JUMPDEST DUP2 MSTORE PUSH1 0x20 ADD PUSH1 0x0 DUP2 MSTORE PUSH1 0x20 ADD PUSH2 0xA33 DUP12 TIMESTAMP PUSH2 0x1BCC JUMP JUMPDEST DUP2 MSTORE PUSH1 0x0 PUSH1 0x20 DUP1 DUP4 ADD DUP3 SWAP1 MSTORE PUSH1 0x40 DUP1 DUP5 ADD DUP9 SWAP1 MSTORE PUSH1 0x60 DUP5 ADD DUP4 SWAP1 MSTORE PUSH1 0x1 PUSH1 0x1 PUSH1 0xA0 SHL SUB DUP8 DUP2 AND PUSH1 0x80 DUP7 ADD MSTORE PUSH1 0xA0 DUP6 ADD DUP5 SWAP1 MSTORE PUSH1 0xC0 DUP6 ADD DUP5 SWAP1 MSTORE PUSH1 0xE0 DUP6 ADD DUP5 SWAP1 MSTORE PUSH2 0x100 SWAP1 SWAP5 ADD DUP4 SWAP1 MSTORE DUP9 DUP4 MSTORE PUSH1 0x2 DUP1 DUP4 MSTORE SWAP3 DUP2 SWAP1 KECCAK256 DUP6 MLOAD DUP2 SSTORE SWAP2 DUP6 ADD MLOAD PUSH1 0x1 DUP4 ADD DUP1 SLOAD PUSH1 0x1 PUSH1 0x1 PUSH1 0xA0 SHL SUB NOT AND SWAP2 SWAP1 SWAP6 AND OR SWAP1 SWAP4 SSTORE SWAP2 DUP4 ADD MLOAD SWAP1 DUP3 ADD SWAP1 PUSH2 0xABA SWAP1 DUP3 PUSH2 0x1CEE JUMP JUMPDEST POP PUSH1 0x60 DUP3 ADD MLOAD PUSH1 0x3 DUP3 ADD DUP1 SLOAD PUSH1 0xFF NOT AND PUSH1 0x1 DUP4 DUP2 DUP2 GT ISZERO PUSH2 0xADD JUMPI PUSH2 0xADD PUSH2 0x1A70 JUMP JUMPDEST MUL OR SWAP1 SSTORE POP PUSH1 0x80 DUP3 ADD MLOAD PUSH1 0x3 DUP3 ADD DUP1 SLOAD PUSH2 0xFF00 NOT AND PUSH2 0x100 DUP4 PUSH1 0x1 DUP2 GT ISZERO PUSH2 0xB07 JUMPI PUSH2 0xB07 PUSH2 0x1A70 JUMP JUMPDEST MUL OR SWAP1 SSTORE POP PUSH1 0xA0 DUP3 ADD MLOAD PUSH1 0x4 DUP3 DUP2 ADD SWAP2 SWAP1 SWAP2 SSTORE PUSH1 0xC0 DUP4 ADD MLOAD PUSH1 0x5 DUP4 ADD SSTORE PUSH1 0xE0 DUP4 ADD MLOAD PUSH1 0x6 DUP4 ADD SSTORE PUSH2 0x100 DUP1 DUP5 ADD MLOAD PUSH1 0x7 DUP5 ADD DUP1 SLOAD PUSH2 0x120 DUP8 ADD MLOAD PUSH1 0x1 PUSH1 0x1 PUSH1 0xA8 SHL SUB NOT SWAP1 SWAP2 AND SWAP3 ISZERO ISZERO PUSH2 0x100 PUSH1 0x1 PUSH1 0xA8 SHL SUB NOT AND SWAP3 SWAP1 SWAP3 OR PUSH1 0x1 PUSH1 0x1 PUSH1 0xA0 SHL SUB SWAP3 DUP4 AND SWAP1 SWAP4 MUL SWAP3 SWAP1 SWAP3 OR SWAP1 SWAP2 SSTORE PUSH2 0x140 DUP5 ADD MLOAD PUSH1 0x8 DUP5 ADD SSTORE PUSH2 0x160 DUP5 ADD MLOAD PUSH1 0x9 DUP5 ADD DUP1 SLOAD PUSH1 0x1 PUSH1 0x1 PUSH1 0xA0 SHL SUB NOT AND SWAP2 SWAP1 SWAP3 AND OR SWAP1 SSTORE PUSH2 0x180 DUP4 ADD MLOAD PUSH1 0xA DUP4 ADD SSTORE PUSH2 0x1A0 SWAP1 SWAP3 ADD MLOAD PUSH1 0xB SWAP1 SWAP2 ADD SSTORE PUSH1 0x0 DUP6 DUP2 MSTORE PUSH1 0x2 PUSH1 0x20 MSTORE PUSH1 0x40 SWAP1 DUP2 SWAP1 KECCAK256 SWAP1 SWAP2 ADD SLOAD SWAP1 MLOAD CALLER SWAP2 DUP7 SWAP2 PUSH32 0x7231E538D6EC3DFF4F8CB6190B7150C7A186DFEBE215524B8BC4EAD1952F8DD SWAP2 PUSH2 0xBFE SWAP2 DUP14 SWAP2 SWAP1 DUP8 SWAP1 PUSH2 0x1DAD JUMP JUMPDEST PUSH1 0x40 MLOAD DUP1 SWAP2 SUB SWAP1 LOG3 POP POP POP POP PUSH2 0xC13 PUSH1 0x1 DUP1 SSTORE JUMP JUMPDEST POP POP POP POP POP JUMP JUMPDEST PUSH1 0x2 PUSH1 0x20 DUP2 SWAP1 MSTORE PUSH1 0x0 SWAP2 DUP3 MSTORE PUSH1 0x40 SWAP1 SWAP2 KECCAK256 DUP1 SLOAD PUSH1 0x1 DUP3 ADD SLOAD SWAP3 DUP3 ADD DUP1 SLOAD SWAP2 SWAP4 PUSH1 0x1 PUSH1 0x1 PUSH1 0xA0 SHL SUB AND SWAP3 SWAP2 PUSH2 0xC4D SWAP1 PUSH2 0x1C68 JUMP JUMPDEST DUP1 PUSH1 0x1F ADD PUSH1 0x20 DUP1 SWAP2 DIV MUL PUSH1 0x20 ADD PUSH1 0x40 MLOAD SWAP1 DUP2 ADD PUSH1 0x40 MSTORE DUP1 SWAP3 SWAP2 SWAP1 DUP2 DUP2 MSTORE PUSH1 0x20 ADD DUP3 DUP1 SLOAD PUSH2 0xC79 SWAP1 PUSH2 0x1C68 JUMP JUMPDEST DUP1 ISZERO PUSH2 0xCC6 JUMPI DUP1 PUSH1 0x1F LT PUSH2 0xC9B JUMPI PUSH2 0x100 DUP1 DUP4 SLOAD DIV MUL DUP4 MSTORE SWAP2 PUSH1 0x20 ADD SWAP2 PUSH2 0xCC6 JUMP JUMPDEST DUP3 ADD SWAP2 SWAP1 PUSH1 0x0 MSTORE PUSH1 0x20 PUSH1 0x0 KECCAK256 SWAP1 JUMPDEST DUP2 SLOAD DUP2 MSTORE SWAP1 PUSH1 0x1 ADD SWAP1 PUSH1 0x20 ADD DUP1 DUP4 GT PUSH2 0xCA9 JUMPI DUP3 SWAP1 SUB PUSH1 0x1F AND DUP3 ADD SWAP2 JUMPDEST POP POP POP POP PUSH1 0x3 DUP4 ADD SLOAD PUSH1 0x4 DUP5 ADD SLOAD PUSH1 0x5 DUP6 ADD SLOAD PUSH1 0x6 DUP7 ADD SLOAD PUSH1 0x7 DUP8 ADD SLOAD PUSH1 0x8 DUP9 ADD SLOAD PUSH1 0x9 DUP10 ADD SLOAD PUSH1 0xA DUP11 ADD SLOAD PUSH1 0xB SWAP1 SWAP11 ADD SLOAD SWAP9 SWAP10 PUSH1 0xFF DUP1 DUP10 AND SWAP11 PUSH2 0x100 SWAP10 DUP11 SWAP1 DIV DUP3 AND SWAP11 POP SWAP8 SWAP9 SWAP7 SWAP8 SWAP6 SWAP7 SWAP1 DUP6 AND SWAP6 SWAP5 DIV PUSH1 0x1 PUSH1 0x1 PUSH1 0xA0 SHL SUB SWAP1 DUP2 AND SWAP5 SWAP3 AND SWAP2 DUP15 JUMP JUMPDEST PUSH1 0x4 PUSH1 0x20 MSTORE DUP2 PUSH1 0x0 MSTORE PUSH1 0x40 PUSH1 0x0 KECCAK256 DUP2 DUP2 SLOAD DUP2 LT PUSH2 0xD45 JUMPI PUSH1 0x0 DUP1 REVERT JUMPDEST SWAP1 PUSH1 0x0 MSTORE PUSH1 0x20 PUSH1 0x0 KECCAK256 ADD PUSH1 0x0 SWAP2 POP SWAP2 POP POP SLOAD DUP2 JUMP JUMPDEST PUSH2 0xD62 PUSH2 0x11D6 JUMP JUMPDEST PUSH1 0x0 DUP2 DUP2 MSTORE PUSH1 0x2 PUSH1 0x20 MSTORE PUSH1 0x40 DUP2 KECCAK256 SWAP1 PUSH1 0x3 DUP3 ADD SLOAD PUSH2 0x100 SWAP1 DIV PUSH1 0xFF AND PUSH1 0x1 DUP2 GT ISZERO PUSH2 0xD8F JUMPI PUSH2 0xD8F PUSH2 0x1A70 JUMP JUMPDEST EQ PUSH2 0xDE8 JUMPI PUSH1 0x40 MLOAD PUSH3 0x461BCD PUSH1 0xE5 SHL DUP2 MSTORE PUSH1 0x20 PUSH1 0x4 DUP3 ADD MSTORE PUSH1 0x24 DUP1 DUP3 ADD MSTORE PUSH32 0x416374696F6E206E6F74206F70656E206F7220616C72656164792066696E616C PUSH1 0x44 DUP3 ADD MSTORE PUSH4 0x1A5E9959 PUSH1 0xE2 SHL PUSH1 0x64 DUP3 ADD MSTORE PUSH1 0x84 ADD PUSH2 0x36F JUMP JUMPDEST DUP1 PUSH1 0x4 ADD SLOAD TIMESTAMP LT ISZERO PUSH2 0xE3C JUMPI PUSH1 0x40 MLOAD PUSH3 0x461BCD PUSH1 0xE5 SHL DUP2 MSTORE PUSH1 0x20 PUSH1 0x4 DUP3 ADD MSTORE PUSH1 0x18 PUSH1 0x24 DUP3 ADD MSTORE PUSH32 0x416374696F6E20686173206E6F7420656E646564207965740000000000000000 PUSH1 0x44 DUP3 ADD MSTORE PUSH1 0x64 ADD PUSH2 0x36F JUMP JUMPDEST PUSH1 0x5 DUP2 ADD SLOAD PUSH1 0x0 DUP1 DUP1 PUSH1 0x3 DUP6 ADD SLOAD PUSH1 0xFF AND PUSH1 0x1 DUP2 GT ISZERO PUSH2 0xE5E JUMPI PUSH2 0xE5E PUSH2 0x1A70 JUMP JUMPDEST SUB PUSH2 0x1048 JUMPI NUMBER PUSH1 0xA DUP6 ADD DUP2 SWAP1 SSTORE BLOCKHASH PUSH1 0x0 DUP2 SWAP1 SUB PUSH2 0xEC9 JUMPI PUSH1 0x40 MLOAD PUSH3 0x461BCD PUSH1 0xE5 SHL DUP2 MSTORE PUSH1 0x20 PUSH1 0x4 DUP3 ADD MSTORE PUSH1 0x23 PUSH1 0x24 DUP3 ADD MSTORE PUSH32 0x436C6F73696E6720626C6F636B68617368206E6F7420617661696C61626C6520 PUSH1 0x44 DUP3 ADD MSTORE PUSH3 0x1E595D PUSH1 0xEA SHL PUSH1 0x64 DUP3 ADD MSTORE PUSH1 0x84 ADD PUSH2 0x36F JUMP JUMPDEST PUSH1 0x0 PUSH2 0xED6 PUSH1 0x64 DUP4 PUSH2 0x1DDE JUMP JUMPDEST PUSH2 0xEE1 SWAP1 PUSH1 0x1 PUSH2 0x1BCC JUMP JUMPDEST SWAP1 POP PUSH1 0x0 DUP2 DUP8 PUSH1 0xA ADD SLOAD PUSH2 0xEF5 SWAP2 SWAP1 PUSH2 0x1BCC JUMP JUMPDEST SWAP1 POP DUP1 BLOCKHASH PUSH1 0x0 DUP2 SWAP1 SUB PUSH2 0xF64 JUMPI PUSH1 0x40 MLOAD PUSH3 0x461BCD PUSH1 0xE5 SHL DUP2 MSTORE PUSH1 0x20 PUSH1 0x4 DUP3 ADD MSTORE PUSH1 0x31 PUSH1 0x24 DUP3 ADD MSTORE PUSH32 0x4472617720626C6F636B68617368206E6F7420617661696C61626C6520796574 PUSH1 0x44 DUP3 ADD MSTORE PUSH17 0x16103A393C9030B3B0B4B7103630BA32B9 PUSH1 0x79 SHL PUSH1 0x64 DUP3 ADD MSTORE PUSH1 0x84 ADD PUSH2 0x36F JUMP JUMPDEST PUSH1 0x8 DUP9 ADD SLOAD PUSH1 0x0 SWAP1 PUSH2 0xF76 SWAP1 DUP4 PUSH2 0x1DDE JUMP JUMPDEST PUSH2 0xF81 SWAP1 PUSH1 0x1 PUSH2 0x1BCC JUMP JUMPDEST PUSH1 0xB DUP11 ADD DUP2 SWAP1 SSTORE SWAP1 POP PUSH2 0xF94 DUP11 DUP3 PUSH2 0x127D JUMP JUMPDEST PUSH1 0x9 DUP11 ADD DUP1 SLOAD PUSH1 0x1 PUSH1 0x1 PUSH1 0xA0 SHL SUB NOT AND PUSH1 0x1 PUSH1 0x1 PUSH1 0xA0 SHL SUB SWAP3 SWAP1 SWAP3 AND SWAP2 DUP3 OR SWAP1 SSTORE PUSH2 0xFF9 JUMPI PUSH1 0x40 MLOAD PUSH3 0x461BCD PUSH1 0xE5 SHL DUP2 MSTORE PUSH1 0x20 PUSH1 0x4 DUP3 ADD MSTORE PUSH1 0x15 PUSH1 0x24 DUP3 ADD MSTORE PUSH21 0x21B7BAB632103737BA103334B732103BB4B73732B9 PUSH1 0x59 SHL PUSH1 0x44 DUP3 ADD MSTORE PUSH1 0x64 ADD PUSH2 0x36F JUMP JUMPDEST PUSH1 0x9 DUP10 ADD SLOAD PUSH1 0x1 PUSH1 0x1 PUSH1 0xA0 SHL SUB AND SWAP7 POP PUSH2 0x2710 PUSH2 0x1018 PUSH2 0x2260 DUP11 PUSH2 0x1BDF JUMP JUMPDEST PUSH2 0x1022 SWAP2 SWAP1 PUSH2 0x1C0C JUMP JUMPDEST PUSH1 0x1 DUP11 ADD SLOAD SWAP1 SWAP7 POP PUSH2 0x103E SWAP1 DUP10 SWAP1 PUSH1 0x1 PUSH1 0x1 PUSH1 0xA0 SHL SUB AND PUSH2 0x1407 JUMP JUMPDEST POP POP POP POP POP PUSH2 0x1092 JUMP JUMPDEST PUSH1 0x7 DUP5 ADD SLOAD PUSH2 0x100 SWAP1 DIV PUSH1 0x1 PUSH1 0x1 PUSH1 0xA0 SHL SUB AND SWAP2 POP PUSH2 0x2710 PUSH2 0x106C PUSH2 0x23F0 DUP6 PUSH2 0x1BDF JUMP JUMPDEST PUSH2 0x1076 SWAP2 SWAP1 PUSH2 0x1C0C JUMP JUMPDEST PUSH1 0x1 DUP6 ADD SLOAD SWAP1 SWAP2 POP PUSH2 0x1092 SWAP1 DUP5 SWAP1 PUSH1 0x1 PUSH1 0x1 PUSH1 0xA0 SHL SUB AND PUSH2 0x1643 JUMP JUMPDEST PUSH1 0x3 DUP5 ADD DUP1 SLOAD PUSH2 0xFF00 NOT AND PUSH2 0x100 OR SWAP1 SSTORE PUSH2 0x10AC DUP5 PUSH2 0x1836 JUMP JUMPDEST DUP1 ISZERO PUSH2 0x1147 JUMPI PUSH1 0x40 MLOAD PUSH4 0xA9059CBB PUSH1 0xE0 SHL DUP2 MSTORE PUSH1 0x1 PUSH1 0x1 PUSH1 0xA0 SHL SUB DUP4 DUP2 AND PUSH1 0x4 DUP4 ADD MSTORE PUSH1 0x24 DUP3 ADD DUP4 SWAP1 MSTORE PUSH32 0x0 AND SWAP1 PUSH4 0xA9059CBB SWAP1 PUSH1 0x44 ADD PUSH1 0x20 PUSH1 0x40 MLOAD DUP1 DUP4 SUB DUP2 PUSH1 0x0 DUP8 GAS CALL ISZERO DUP1 ISZERO PUSH2 0x1121 JUMPI RETURNDATASIZE PUSH1 0x0 DUP1 RETURNDATACOPY RETURNDATASIZE PUSH1 0x0 REVERT JUMPDEST POP POP POP POP PUSH1 0x40 MLOAD RETURNDATASIZE PUSH1 0x1F NOT PUSH1 0x1F DUP3 ADD AND DUP3 ADD DUP1 PUSH1 0x40 MSTORE POP DUP2 ADD SWAP1 PUSH2 0x1145 SWAP2 SWAP1 PUSH2 0x1B94 JUMP JUMPDEST POP JUMPDEST DUP2 PUSH1 0x1 PUSH1 0x1 PUSH1 0xA0 SHL SUB AND DUP6 PUSH32 0xD132B85665E1EEB8A7C94DA56F88102DB8B3A377B16F07AFBA1E7E6597653C12 DUP4 PUSH1 0x40 MLOAD PUSH2 0x1183 SWAP2 DUP2 MSTORE PUSH1 0x20 ADD SWAP1 JUMP JUMPDEST PUSH1 0x40 MLOAD DUP1 SWAP2 SUB SWAP1 LOG3 POP POP POP POP PUSH2 0x1198 PUSH1 0x1 DUP1 SSTORE JUMP JUMPDEST POP JUMP JUMPDEST PUSH2 0x11A3 PUSH2 0x1200 JUMP JUMPDEST PUSH1 0x1 PUSH1 0x1 PUSH1 0xA0 SHL SUB DUP2 AND PUSH2 0x11CD JUMPI PUSH1 0x40 MLOAD PUSH4 0x1E4FBDF7 PUSH1 0xE0 SHL DUP2 MSTORE PUSH1 0x0 PUSH1 0x4 DUP3 ADD MSTORE PUSH1 0x24 ADD PUSH2 0x36F JUMP JUMPDEST PUSH2 0x1198 DUP2 PUSH2 0x122D JUMP JUMPDEST PUSH1 0x2 PUSH1 0x1 SLOAD SUB PUSH2 0x11F9 JUMPI PUSH1 0x40 MLOAD PUSH4 0x3EE5AEB5 PUSH1 0xE0 SHL DUP2 MSTORE PUSH1 0x4 ADD PUSH1 0x40 MLOAD DUP1 SWAP2 SUB SWAP1 REVERT JUMPDEST PUSH1 0x2 PUSH1 0x1 SSTORE JUMP JUMPDEST PUSH1 0x0 SLOAD PUSH1 0x1 PUSH1 0x1 PUSH1 0xA0 SHL SUB AND CALLER EQ PUSH2 0x750 JUMPI PUSH1 0x40 MLOAD PUSH4 0x118CDAA7 PUSH1 0xE0 SHL DUP2 MSTORE CALLER PUSH1 0x4 DUP3 ADD MSTORE PUSH1 0x24 ADD PUSH2 0x36F JUMP JUMPDEST PUSH1 0x0 DUP1 SLOAD PUSH1 0x1 PUSH1 0x1 PUSH1 0xA0 SHL SUB DUP4 DUP2 AND PUSH1 0x1 PUSH1 0x1 PUSH1 0xA0 SHL SUB NOT DUP4 AND DUP2 OR DUP5 SSTORE PUSH1 0x40 MLOAD SWAP2 SWAP1 SWAP3 AND SWAP3 DUP4 SWAP2 PUSH32 0x8BE0079C531659141344CD1FD0A4F28419497F9722A3DAAFE3B4186F6B6457E0 SWAP2 SWAP1 LOG3 POP POP JUMP JUMPDEST PUSH1 0x0 DUP3 DUP2 MSTORE PUSH1 0x4 PUSH1 0x20 SWAP1 DUP2 MSTORE PUSH1 0x40 DUP1 DUP4 KECCAK256 DUP1 SLOAD DUP3 MLOAD DUP2 DUP6 MUL DUP2 ADD DUP6 ADD SWAP1 SWAP4 MSTORE DUP1 DUP4 MSTORE DUP5 SWAP4 DUP4 ADD DUP3 DUP3 DUP1 ISZERO PUSH2 0x12D0 JUMPI PUSH1 0x20 MUL DUP3 ADD SWAP2 SWAP1 PUSH1 0x0 MSTORE PUSH1 0x20 PUSH1 0x0 KECCAK256 SWAP1 JUMPDEST DUP2 SLOAD DUP2 MSTORE PUSH1 0x20 ADD SWAP1 PUSH1 0x1 ADD SWAP1 DUP1 DUP4 GT PUSH2 0x12BC JUMPI JUMPDEST POP POP POP POP POP SWAP1 POP PUSH1 0x0 DUP1 PUSH1 0x1 DUP4 MLOAD PUSH2 0x12E8 SWAP2 SWAP1 PUSH2 0x1DF2 JUMP JUMPDEST SWAP1 POP JUMPDEST DUP1 DUP3 GT PUSH2 0x13F9 JUMPI PUSH1 0x0 PUSH1 0x2 PUSH2 0x1300 DUP4 DUP6 PUSH2 0x1BCC JUMP JUMPDEST PUSH2 0x130A SWAP2 SWAP1 PUSH2 0x1C0C JUMP JUMPDEST SWAP1 POP PUSH1 0x0 DUP2 ISZERO PUSH2 0x133D JUMPI DUP5 PUSH2 0x1320 PUSH1 0x1 DUP5 PUSH2 0x1DF2 JUMP JUMPDEST DUP2 MLOAD DUP2 LT PUSH2 0x1330 JUMPI PUSH2 0x1330 PUSH2 0x1E05 JUMP JUMPDEST PUSH1 0x20 MUL PUSH1 0x20 ADD ADD MLOAD PUSH2 0x1340 JUMP JUMPDEST PUSH1 0x0 JUMPDEST SWAP1 POP DUP1 DUP8 GT DUP1 ISZERO PUSH2 0x136A JUMPI POP DUP5 DUP3 DUP2 MLOAD DUP2 LT PUSH2 0x135E JUMPI PUSH2 0x135E PUSH2 0x1E05 JUMP JUMPDEST PUSH1 0x20 MUL PUSH1 0x20 ADD ADD MLOAD DUP8 GT ISZERO JUMPDEST ISZERO PUSH2 0x13B1 JUMPI PUSH1 0x0 DUP9 DUP2 MSTORE PUSH1 0x3 PUSH1 0x20 MSTORE PUSH1 0x40 SWAP1 KECCAK256 DUP1 SLOAD DUP4 SWAP1 DUP2 LT PUSH2 0x138F JUMPI PUSH2 0x138F PUSH2 0x1E05 JUMP JUMPDEST PUSH1 0x0 SWAP2 DUP3 MSTORE PUSH1 0x20 SWAP1 SWAP2 KECCAK256 ADD SLOAD PUSH1 0x1 PUSH1 0x1 PUSH1 0xA0 SHL SUB AND SWAP6 POP PUSH2 0x1401 SWAP5 POP POP POP POP POP JUMP JUMPDEST DUP5 DUP3 DUP2 MLOAD DUP2 LT PUSH2 0x13C3 JUMPI PUSH2 0x13C3 PUSH2 0x1E05 JUMP JUMPDEST PUSH1 0x20 MUL PUSH1 0x20 ADD ADD MLOAD DUP8 GT ISZERO PUSH2 0x13E4 JUMPI PUSH2 0x13DD DUP3 PUSH1 0x1 PUSH2 0x1BCC JUMP JUMPDEST SWAP4 POP PUSH2 0x13F2 JUMP JUMPDEST PUSH2 0x13EF PUSH1 0x1 DUP4 PUSH2 0x1DF2 JUMP JUMPDEST SWAP3 POP JUMPDEST POP POP PUSH2 0x12EB JUMP JUMPDEST PUSH1 0x0 SWAP4 POP POP POP POP JUMPDEST SWAP3 SWAP2 POP POP JUMP JUMPDEST PUSH1 0x0 PUSH2 0x2710 PUSH2 0x1418 PUSH2 0x190 DUP6 PUSH2 0x1BDF JUMP JUMPDEST PUSH2 0x1422 SWAP2 SWAP1 PUSH2 0x1C0C JUMP JUMPDEST SWAP1 POP PUSH1 0x0 PUSH2 0x2710 PUSH2 0x1435 PUSH2 0x190 DUP7 PUSH2 0x1BDF JUMP JUMPDEST PUSH2 0x143F SWAP2 SWAP1 PUSH2 0x1C0C JUMP JUMPDEST SWAP1 POP PUSH1 0x0 PUSH2 0x2710 PUSH2 0x1452 PUSH2 0x190 DUP8 PUSH2 0x1BDF JUMP JUMPDEST PUSH2 0x145C SWAP2 SWAP1 PUSH2 0x1C0C JUMP JUMPDEST SWAP1 POP DUP3 ISZERO PUSH2 0x14F9 JUMPI PUSH1 0x40 MLOAD PUSH4 0xA9059CBB PUSH1 0xE0 SHL DUP2 MSTORE PUSH1 0x1 PUSH1 0x1 PUSH1 0xA0 SHL SUB DUP6 DUP2 AND PUSH1 0x4 DUP4 ADD MSTORE PUSH1 0x24 DUP3 ADD DUP6 SWAP1 MSTORE PUSH32 0x0 AND SWAP1 PUSH4 0xA9059CBB SWAP1 PUSH1 0x44 ADD PUSH1 0x20 PUSH1 0x40 MLOAD DUP1 DUP4 SUB DUP2 PUSH1 0x0 DUP8 GAS CALL ISZERO DUP1 ISZERO PUSH2 0x14D3 JUMPI RETURNDATASIZE PUSH1 0x0 DUP1 RETURNDATACOPY RETURNDATASIZE PUSH1 0x0 REVERT JUMPDEST POP POP POP POP PUSH1 0x40 MLOAD RETURNDATASIZE PUSH1 0x1F NOT PUSH1 0x1F DUP3 ADD AND DUP3 ADD DUP1 PUSH1 0x40 MSTORE POP DUP2 ADD SWAP1 PUSH2 0x14F7 SWAP2 SWAP1 PUSH2 0x1B94 JUMP JUMPDEST POP JUMPDEST DUP2 ISZERO PUSH2 0x1581 JUMPI PUSH1 0x40 MLOAD PUSH4 0xBDD071FB PUSH1 0xE0 SHL DUP2 MSTORE PUSH1 0x0 PUSH1 0x4 DUP3 ADD MSTORE PUSH1 0x24 DUP2 ADD DUP4 SWAP1 MSTORE PUSH32 0x0 PUSH1 0x1 PUSH1 0x1 PUSH1 0xA0 SHL SUB AND SWAP1 PUSH4 0xBDD071FB SWAP1 PUSH1 0x44 ADD PUSH1 0x0 PUSH1 0x40 MLOAD DUP1 DUP4 SUB DUP2 PUSH1 0x0 DUP8 DUP1 EXTCODESIZE ISZERO DUP1 ISZERO PUSH2 0x1568 JUMPI PUSH1 0x0 DUP1 REVERT JUMPDEST POP GAS CALL ISZERO DUP1 ISZERO PUSH2 0x157C JUMPI RETURNDATASIZE PUSH1 0x0 DUP1 RETURNDATACOPY RETURNDATASIZE PUSH1 0x0 REVERT JUMPDEST POP POP POP POP JUMPDEST DUP1 ISZERO PUSH2 0xC13 JUMPI PUSH1 0x40 MLOAD PUSH4 0xA9059CBB PUSH1 0xE0 SHL DUP2 MSTORE PUSH1 0x1 PUSH1 0x1 PUSH1 0xA0 SHL SUB PUSH32 0x0 DUP2 AND PUSH1 0x4 DUP4 ADD MSTORE PUSH1 0x24 DUP3 ADD DUP4 SWAP1 MSTORE PUSH32 0x0 AND SWAP1 PUSH4 0xA9059CBB SWAP1 PUSH1 0x44 ADD JUMPDEST PUSH1 0x20 PUSH1 0x40 MLOAD DUP1 DUP4 SUB DUP2 PUSH1 0x0 DUP8 GAS CALL ISZERO DUP1 ISZERO PUSH2 0x1617 JUMPI RETURNDATASIZE PUSH1 0x0 DUP1 RETURNDATACOPY RETURNDATASIZE PUSH1 0x0 REVERT JUMPDEST POP POP POP POP PUSH1 0x40 MLOAD RETURNDATASIZE PUSH1 0x1F NOT PUSH1 0x1F DUP3 ADD AND DUP3 ADD DUP1 PUSH1 0x40 MSTORE POP DUP2 ADD SWAP1 PUSH2 0x163B SWAP2 SWAP1 PUSH2 0x1B94 JUMP JUMPDEST POP POP POP POP POP POP JUMP JUMPDEST PUSH1 0x0 PUSH2 0x2710 PUSH2 0x1654 PUSH2 0x190 DUP6 PUSH2 0x1BDF JUMP JUMPDEST PUSH2 0x165E SWAP2 SWAP1 PUSH2 0x1C0C JUMP JUMPDEST SWAP1 POP PUSH1 0x0 PUSH2 0x2710 PUSH2 0x1671 PUSH2 0x190 DUP7 PUSH2 0x1BDF JUMP JUMPDEST PUSH2 0x167B SWAP2 SWAP1 PUSH2 0x1C0C JUMP JUMPDEST SWAP1 POP PUSH1 0x0 PUSH2 0x2710 PUSH2 0x168C DUP3 DUP8 PUSH2 0x1BDF JUMP JUMPDEST PUSH2 0x1696 SWAP2 SWAP1 PUSH2 0x1C0C JUMP JUMPDEST SWAP1 POP DUP1 ISZERO PUSH2 0x1733 JUMPI PUSH1 0x40 MLOAD PUSH4 0xA9059CBB PUSH1 0xE0 SHL DUP2 MSTORE PUSH1 0x1 PUSH1 0x1 PUSH1 0xA0 SHL SUB DUP6 DUP2 AND PUSH1 0x4 DUP4 ADD MSTORE PUSH1 0x24 DUP3 ADD DUP4 SWAP1 MSTORE PUSH32 0x0 AND SWAP1 PUSH4 0xA9059CBB SWAP1 PUSH1 0x44 ADD PUSH1 0x20 PUSH1 0x40 MLOAD DUP1 DUP4 SUB DUP2 PUSH1 0x0 DUP8 GAS CALL ISZERO DUP1 ISZERO PUSH2 0x170D JUMPI RETURNDATASIZE PUSH1 0x0 DUP1 RETURNDATACOPY RETURNDATASIZE PUSH1 0x0 REVERT JUMPDEST POP POP POP POP PUSH1 0x40 MLOAD RETURNDATASIZE PUSH1 0x1F NOT PUSH1 0x1F DUP3 ADD AND DUP3 ADD DUP1 PUSH1 0x40 MSTORE POP DUP2 ADD SWAP1 PUSH2 0x1731 SWAP2 SWAP1 PUSH2 0x1B94 JUMP JUMPDEST POP JUMPDEST DUP3 ISZERO PUSH2 0x17BB JUMPI PUSH1 0x40 MLOAD PUSH4 0xBDD071FB PUSH1 0xE0 SHL DUP2 MSTORE PUSH1 0x0 PUSH1 0x4 DUP3 ADD MSTORE PUSH1 0x24 DUP2 ADD DUP5 SWAP1 MSTORE PUSH32 0x0 PUSH1 0x1 PUSH1 0x1 PUSH1 0xA0 SHL SUB AND SWAP1 PUSH4 0xBDD071FB SWAP1 PUSH1 0x44 ADD PUSH1 0x0 PUSH1 0x40 MLOAD DUP1 DUP4 SUB DUP2 PUSH1 0x0 DUP8 DUP1 EXTCODESIZE ISZERO DUP1 ISZERO PUSH2 0x17A2 JUMPI PUSH1 0x0 DUP1 REVERT JUMPDEST POP GAS CALL ISZERO DUP1 ISZERO PUSH2 0x17B6 JUMPI RETURNDATASIZE PUSH1 0x0 DUP1 RETURNDATACOPY RETURNDATASIZE PUSH1 0x0 REVERT JUMPDEST POP POP POP POP JUMPDEST DUP2 ISZERO PUSH2 0xC13 JUMPI PUSH1 0x40 MLOAD PUSH4 0xA9059CBB PUSH1 0xE0 SHL DUP2 MSTORE PUSH1 0x1 PUSH1 0x1 PUSH1 0xA0 SHL SUB PUSH32 0x0 DUP2 AND PUSH1 0x4 DUP4 ADD MSTORE PUSH1 0x24 DUP3 ADD DUP5 SWAP1 MSTORE PUSH32 0x0 AND SWAP1 PUSH4 0xA9059CBB SWAP1 PUSH1 0x44 ADD PUSH2 0x15F8 JUMP JUMPDEST PUSH1 0x7 DUP2 ADD SLOAD PUSH1 0xFF AND ISZERO DUP1 ISZERO PUSH2 0x184F JUMPI POP PUSH1 0x0 DUP2 PUSH1 0x6 ADD SLOAD GT JUMPDEST ISZERO PUSH2 0x1198 JUMPI PUSH1 0x7 DUP2 ADD DUP1 SLOAD PUSH1 0xFF NOT AND PUSH1 0x1 SWAP1 DUP2 OR SWAP1 SWAP2 SSTORE DUP2 ADD SLOAD PUSH1 0x6 DUP3 ADD SLOAD PUSH1 0x40 MLOAD PUSH4 0xA9059CBB PUSH1 0xE0 SHL DUP2 MSTORE PUSH1 0x1 PUSH1 0x1 PUSH1 0xA0 SHL SUB SWAP3 DUP4 AND PUSH1 0x4 DUP3 ADD MSTORE PUSH1 0x24 DUP2 ADD SWAP2 SWAP1 SWAP2 MSTORE PUSH32 0x0 SWAP1 SWAP2 AND SWAP1 PUSH4 0xA9059CBB SWAP1 PUSH1 0x44 ADD PUSH1 0x20 PUSH1 0x40 MLOAD DUP1 DUP4 SUB DUP2 PUSH1 0x0 DUP8 GAS CALL ISZERO DUP1 ISZERO PUSH2 0x18E0 JUMPI RETURNDATASIZE PUSH1 0x0 DUP1 RETURNDATACOPY RETURNDATASIZE PUSH1 0x0 REVERT JUMPDEST POP POP POP POP PUSH1 0x40 MLOAD RETURNDATASIZE PUSH1 0x1F NOT PUSH1 0x1F DUP3 ADD AND DUP3 ADD DUP1 PUSH1 0x40 MSTORE POP DUP2 ADD SWAP1 PUSH2 0x1904 SWAP2 SWAP1 PUSH2 0x1B94 JUMP JUMPDEST POP PUSH1 0x1 DUP2 ADD SLOAD DUP2 SLOAD PUSH1 0x6 DUP4 ADD SLOAD PUSH1 0x40 MLOAD SWAP1 DUP2 MSTORE PUSH1 0x1 PUSH1 0x1 PUSH1 0xA0 SHL SUB SWAP1 SWAP3 AND SWAP2 PUSH32 0xD736493ECE6B7D52E34DD028D3D9D0AA75DE37339F3DA6B3514E70E231ED2A5 SWAP1 PUSH1 0x20 ADD PUSH1 0x40 MLOAD DUP1 SWAP2 SUB SWAP1 LOG3 POP JUMP JUMPDEST PUSH1 0x0 DUP1 PUSH1 0x40 DUP4 DUP6 SUB SLT ISZERO PUSH2 0x1966 JUMPI PUSH1 0x0 DUP1 REVERT JUMPDEST POP POP DUP1 CALLDATALOAD SWAP3 PUSH1 0x20 SWAP1 SWAP2 ADD CALLDATALOAD SWAP2 POP JUMP JUMPDEST PUSH1 0x0 DUP1 PUSH1 0x0 DUP1 PUSH1 0x0 PUSH1 0x80 DUP7 DUP9 SUB SLT ISZERO PUSH2 0x198D JUMPI PUSH1 0x0 DUP1 REVERT JUMPDEST DUP6 CALLDATALOAD SWAP5 POP PUSH1 0x20 DUP7 ADD CALLDATALOAD PUSH1 0x2 DUP2 LT PUSH2 0x19A3 JUMPI PUSH1 0x0 DUP1 REVERT JUMPDEST SWAP4 POP PUSH1 0x40 DUP7 ADD CALLDATALOAD SWAP3 POP PUSH1 0x60 DUP7 ADD CALLDATALOAD PUSH8 0xFFFFFFFFFFFFFFFF DUP2 GT ISZERO PUSH2 0x19C6 JUMPI PUSH1 0x0 DUP1 REVERT JUMPDEST DUP7 ADD PUSH1 0x1F DUP2 ADD DUP9 SGT PUSH2 0x19D7 JUMPI PUSH1 0x0 DUP1 REVERT JUMPDEST DUP1 CALLDATALOAD PUSH8 0xFFFFFFFFFFFFFFFF DUP2 GT ISZERO PUSH2 0x19EE JUMPI PUSH1 0x0 DUP1 REVERT JUMPDEST DUP9 PUSH1 0x20 DUP3 DUP5 ADD ADD GT ISZERO PUSH2 0x1A00 JUMPI PUSH1 0x0 DUP1 REVERT JUMPDEST SWAP6 SWAP9 SWAP5 SWAP8 POP SWAP3 SWAP6 POP POP POP PUSH1 0x20 ADD SWAP2 SWAP1 JUMP JUMPDEST PUSH1 0x0 PUSH1 0x20 DUP3 DUP5 SUB SLT ISZERO PUSH2 0x1A23 JUMPI PUSH1 0x0 DUP1 REVERT JUMPDEST POP CALLDATALOAD SWAP2 SWAP1 POP JUMP JUMPDEST PUSH1 0x0 DUP2 MLOAD DUP1 DUP5 MSTORE PUSH1 0x0 JUMPDEST DUP2 DUP2 LT ISZERO PUSH2 0x1A50 JUMPI PUSH1 0x20 DUP2 DUP6 ADD DUP2 ADD MLOAD DUP7 DUP4 ADD DUP3 ADD MSTORE ADD PUSH2 0x1A34 JUMP JUMPDEST POP PUSH1 0x0 PUSH1 0x20 DUP3 DUP7 ADD ADD MSTORE PUSH1 0x20 PUSH1 0x1F NOT PUSH1 0x1F DUP4 ADD AND DUP6 ADD ADD SWAP2 POP POP SWAP3 SWAP2 POP POP JUMP JUMPDEST PUSH4 0x4E487B71 PUSH1 0xE0 SHL PUSH1 0x0 MSTORE PUSH1 0x21 PUSH1 0x4 MSTORE PUSH1 0x24 PUSH1 0x0 REVERT JUMPDEST PUSH1 0x2 DUP2 LT PUSH2 0x1198 JUMPI PUSH4 0x4E487B71 PUSH1 0xE0 SHL PUSH1 0x0 MSTORE PUSH1 0x21 PUSH1 0x4 MSTORE PUSH1 0x24 PUSH1 0x0 REVERT JUMPDEST PUSH2 0x1AAD DUP2 PUSH2 0x1A86 JUMP JUMPDEST SWAP1 MSTORE JUMP JUMPDEST DUP15 DUP2 MSTORE PUSH1 0x1 PUSH1 0x1 PUSH1 0xA0 SHL SUB DUP15 AND PUSH1 0x20 DUP3 ADD MSTORE PUSH2 0x1C0 PUSH1 0x40 DUP3 ADD DUP2 SWAP1 MSTORE PUSH1 0x0 SWAP1 PUSH2 0x1ADC SWAP1 DUP4 ADD DUP16 PUSH2 0x1A2A JUMP JUMPDEST SWAP1 POP PUSH2 0x1AEB PUSH1 0x60 DUP4 ADD DUP15 PUSH2 0x1AA4 JUMP JUMPDEST PUSH2 0x1AF8 PUSH1 0x80 DUP4 ADD DUP14 PUSH2 0x1AA4 JUMP JUMPDEST DUP11 PUSH1 0xA0 DUP4 ADD MSTORE DUP10 PUSH1 0xC0 DUP4 ADD MSTORE DUP9 PUSH1 0xE0 DUP4 ADD MSTORE PUSH2 0x1B19 PUSH2 0x100 DUP4 ADD DUP10 ISZERO ISZERO SWAP1 MSTORE JUMP JUMPDEST PUSH1 0x1 PUSH1 0x1 PUSH1 0xA0 SHL SUB DUP8 AND PUSH2 0x120 DUP4 ADD MSTORE DUP6 PUSH2 0x140 DUP4 ADD MSTORE PUSH2 0x1B46 PUSH2 0x160 DUP4 ADD DUP7 PUSH1 0x1 PUSH1 0x1 PUSH1 0xA0 SHL SUB AND SWAP1 MSTORE JUMP JUMPDEST PUSH2 0x180 DUP3 ADD SWAP4 SWAP1 SWAP4 MSTORE PUSH2 0x1A0 ADD MSTORE SWAP13 SWAP12 POP POP POP POP POP POP POP POP POP POP POP POP JUMP JUMPDEST PUSH1 0x0 PUSH1 0x20 DUP3 DUP5 SUB SLT ISZERO PUSH2 0x1B76 JUMPI PUSH1 0x0 DUP1 REVERT JUMPDEST DUP2 CALLDATALOAD PUSH1 0x1 PUSH1 0x1 PUSH1 0xA0 SHL SUB DUP2 AND DUP2 EQ PUSH2 0x1B8D JUMPI PUSH1 0x0 DUP1 REVERT JUMPDEST SWAP4 SWAP3 POP POP POP JUMP JUMPDEST PUSH1 0x0 PUSH1 0x20 DUP3 DUP5 SUB SLT ISZERO PUSH2 0x1BA6 JUMPI PUSH1 0x0 DUP1 REVERT JUMPDEST DUP2 MLOAD DUP1 ISZERO ISZERO DUP2 EQ PUSH2 0x1B8D JUMPI PUSH1 0x0 DUP1 REVERT JUMPDEST PUSH4 0x4E487B71 PUSH1 0xE0 SHL PUSH1 0x0 MSTORE PUSH1 0x11 PUSH1 0x4 MSTORE PUSH1 0x24 PUSH1 0x0 REVERT JUMPDEST DUP1 DUP3 ADD DUP1 DUP3 GT ISZERO PUSH2 0x1401 JUMPI PUSH2 0x1401 PUSH2 0x1BB6 JUMP JUMPDEST DUP1 DUP3 MUL DUP2 ISZERO DUP3 DUP3 DIV DUP5 EQ OR PUSH2 0x1401 JUMPI PUSH2 0x1401 PUSH2 0x1BB6 JUMP JUMPDEST PUSH4 0x4E487B71 PUSH1 0xE0 SHL PUSH1 0x0 MSTORE PUSH1 0x12 PUSH1 0x4 MSTORE PUSH1 0x24 PUSH1 0x0 REVERT JUMPDEST PUSH1 0x0 DUP3 PUSH2 0x1C1B JUMPI PUSH2 0x1C1B PUSH2 0x1BF6 JUMP JUMPDEST POP DIV SWAP1 JUMP JUMPDEST PUSH1 0x0 PUSH1 0x20 DUP3 DUP5 SUB SLT ISZERO PUSH2 0x1C32 JUMPI PUSH1 0x0 DUP1 REVERT JUMPDEST POP MLOAD SWAP2 SWAP1 POP JUMP JUMPDEST PUSH1 0x0 PUSH1 0x1 DUP3 ADD PUSH2 0x1C4B JUMPI PUSH2 0x1C4B PUSH2 0x1BB6 JUMP JUMPDEST POP PUSH1 0x1 ADD SWAP1 JUMP JUMPDEST PUSH4 0x4E487B71 PUSH1 0xE0 SHL PUSH1 0x0 MSTORE PUSH1 0x41 PUSH1 0x4 MSTORE PUSH1 0x24 PUSH1 0x0 REVERT JUMPDEST PUSH1 0x1 DUP2 DUP2 SHR SWAP1 DUP3 AND DUP1 PUSH2 0x1C7C JUMPI PUSH1 0x7F DUP3 AND SWAP2 POP JUMPDEST PUSH1 0x20 DUP3 LT DUP2 SUB PUSH2 0x1C9C JUMPI PUSH4 0x4E487B71 PUSH1 0xE0 SHL PUSH1 0x0 MSTORE PUSH1 0x22 PUSH1 0x4 MSTORE PUSH1 0x24 PUSH1 0x0 REVERT JUMPDEST POP SWAP2 SWAP1 POP JUMP JUMPDEST PUSH1 0x1F DUP3 GT ISZERO PUSH2 0x1CE9 JUMPI DUP1 PUSH1 0x0 MSTORE PUSH1 0x20 PUSH1 0x0 KECCAK256 PUSH1 0x1F DUP5 ADD PUSH1 0x5 SHR DUP2 ADD PUSH1 0x20 DUP6 LT ISZERO PUSH2 0x1CC9 JUMPI POP DUP1 JUMPDEST PUSH1 0x1F DUP5 ADD PUSH1 0x5 SHR DUP3 ADD SWAP2 POP JUMPDEST DUP2 DUP2 LT ISZERO PUSH2 0xC13 JUMPI PUSH1 0x0 DUP2 SSTORE PUSH1 0x1 ADD PUSH2 0x1CD5 JUMP JUMPDEST POP POP POP JUMP JUMPDEST DUP2 MLOAD PUSH8 0xFFFFFFFFFFFFFFFF DUP2 GT ISZERO PUSH2 0x1D08 JUMPI PUSH2 0x1D08 PUSH2 0x1C52 JUMP JUMPDEST PUSH2 0x1D1C DUP2 PUSH2 0x1D16 DUP5 SLOAD PUSH2 0x1C68 JUMP JUMPDEST DUP5 PUSH2 0x1CA2 JUMP JUMPDEST PUSH1 0x20 PUSH1 0x1F DUP3 GT PUSH1 0x1 DUP2 EQ PUSH2 0x1D50 JUMPI PUSH1 0x0 DUP4 ISZERO PUSH2 0x1D38 JUMPI POP DUP5 DUP3 ADD MLOAD JUMPDEST PUSH1 0x0 NOT PUSH1 0x3 DUP6 SWAP1 SHL SHR NOT AND PUSH1 0x1 DUP5 SWAP1 SHL OR DUP5 SSTORE PUSH2 0xC13 JUMP JUMPDEST PUSH1 0x0 DUP5 DUP2 MSTORE PUSH1 0x20 DUP2 KECCAK256 PUSH1 0x1F NOT DUP6 AND SWAP2 JUMPDEST DUP3 DUP2 LT ISZERO PUSH2 0x1D80 JUMPI DUP8 DUP6 ADD MLOAD DUP3 SSTORE PUSH1 0x20 SWAP5 DUP6 ADD SWAP5 PUSH1 0x1 SWAP1 SWAP3 ADD SWAP2 ADD PUSH2 0x1D60 JUMP JUMPDEST POP DUP5 DUP3 LT ISZERO PUSH2 0x1D9E JUMPI DUP7 DUP5 ADD MLOAD PUSH1 0x0 NOT PUSH1 0x3 DUP8 SWAP1 SHL PUSH1 0xF8 AND SHR NOT AND DUP2 SSTORE JUMPDEST POP POP POP POP PUSH1 0x1 SWAP1 DUP2 SHL ADD SWAP1 SSTORE POP JUMP JUMPDEST PUSH2 0x1DB6 DUP5 PUSH2 0x1A86 JUMP JUMPDEST DUP4 DUP2 MSTORE DUP3 PUSH1 0x20 DUP3 ADD MSTORE PUSH1 0x60 PUSH1 0x40 DUP3 ADD MSTORE PUSH1 0x0 PUSH2 0x1DD5 PUSH1 0x60 DUP4 ADD DUP5 PUSH2 0x1A2A JUMP JUMPDEST SWAP6 SWAP5 POP POP POP POP POP JUMP JUMPDEST PUSH1 0x0 DUP3 PUSH2 0x1DED JUMPI PUSH2 0x1DED PUSH2 0x1BF6 JUMP JUMPDEST POP MOD SWAP1 JUMP JUMPDEST DUP2 DUP2 SUB DUP2 DUP2 GT ISZERO PUSH2 0x1401 JUMPI PUSH2 0x1401 PUSH2 0x1BB6 JUMP JUMPDEST PUSH4 0x4E487B71 PUSH1 0xE0 SHL PUSH1 0x0 MSTORE PUSH1 0x32 PUSH1 0x4 MSTORE PUSH1 0x24 PUSH1 0x0 REVERT INVALID LOG2 PUSH5 0x6970667358 0x22 SLT KECCAK256 0xE8 DUP13 CHAINID 0xC5 0xC2 0x21 0xDE 0xAA SWAP11 MOD SHR CODESIZE 0xE0 SWAP5 0x4C CALLCODE SWAP16 0xB6 DUP9 SHL PUSH11 0x7DE37CD5DA837DA26BC4B PUSH5 0x736F6C6343 STOP ADDMOD SHR STOP CALLER "},"methodIdentifiers":{"BENEFICENT_CAUSE_BIPS()":"fa71932b","BENEFICENT_CREATOR_BIPS()":"870a9bb6","BENEFICENT_DELEGATOR_BIPS()":"27eb3c10","BENEFICENT_TREASURY_BIPS()":"0a5fb3ca","COUPONS_PER_BKC()":"e289e7c2","DRAW_MAX_OFFSET_BLOCKS()":"d3464206","SPORT_CREATOR_BIPS()":"186a98f3","SPORT_DELEGATOR_BIPS()":"3291ba27","SPORT_TREASURY_BIPS()":"47176405","SPORT_WINNER_BIPS()":"4b214014","actionCounter()":"fdbd98b0","actions(uint256)":"83240f83","bkcToken()":"2402ff97","couponOwners(uint256,uint256)":"694acc2d","couponRanges(uint256,uint256)":"a4731043","createAction(uint256,uint8,uint256,string)":"717c51af","delegationManager()":"ea4d3c9b","finalizeAction(uint256)":"b959d899","getMinCreatorStake()":"21fd3fdc","owner()":"8da5cb5b","participate(uint256,uint256)":"129874aa","renounceOwnership()":"715018a6","transferOwnership(address)":"f2fde38b","treasuryWallet()":"4626402b"}}}}}