{"contracts/NFTLiquidityPool.sol":{"NFTLiquidityPool":{"abi":[{"inputs":[{"internalType":"address","name":"_bkcToken","type":"address"},{"internalType":"address","name":"_rewardBooster","type":"address"},{"internalType":"address","name":"_delegationManager","type":"address"},{"internalType":"address","name":"_treasury","type":"address"},{"internalType":"address","name":"_initialOwner","type":"address"}],"stateMutability":"nonpayable","type":"constructor"},{"inputs":[{"internalType":"address","name":"owner","type":"address"}],"name":"OwnableInvalidOwner","type":"error"},{"inputs":[{"internalType":"address","name":"account","type":"address"}],"name":"OwnableUnauthorizedAccount","type":"error"},{"inputs":[],"name":"ReentrancyGuardReentrantCall","type":"error"},{"anonymous":false,"inputs":[{"indexed":true,"internalType":"uint256","name":"boostBips","type":"uint256"},{"indexed":false,"internalType":"uint256","name":"nftAmount","type":"uint256"},{"indexed":false,"internalType":"uint256","name":"bkcAmount","type":"uint256"}],"name":"LiquidityAdded","type":"event"},{"anonymous":false,"inputs":[{"indexed":true,"internalType":"address","name":"buyer","type":"address"},{"indexed":true,"internalType":"uint256","name":"boostBips","type":"uint256"},{"indexed":false,"internalType":"uint256","name":"tokenId","type":"uint256"},{"indexed":false,"internalType":"uint256","name":"price","type":"uint256"}],"name":"NFTBought","type":"event"},{"anonymous":false,"inputs":[{"indexed":true,"internalType":"address","name":"seller","type":"address"},{"indexed":true,"internalType":"uint256","name":"boostBips","type":"uint256"},{"indexed":false,"internalType":"uint256","name":"tokenId","type":"uint256"},{"indexed":false,"internalType":"uint256","name":"payout","type":"uint256"},{"indexed":false,"internalType":"uint256","name":"feePaid","type":"uint256"}],"name":"NFTSold","type":"event"},{"anonymous":false,"inputs":[{"indexed":true,"internalType":"uint256","name":"boostBips","type":"uint256"},{"indexed":false,"internalType":"uint256","name":"nftAmount","type":"uint256"}],"name":"NFTsAddedToPool","type":"event"},{"anonymous":false,"inputs":[{"indexed":true,"internalType":"address","name":"previousOwner","type":"address"},{"indexed":true,"internalType":"address","name":"newOwner","type":"address"}],"name":"OwnershipTransferred","type":"event"},{"anonymous":false,"inputs":[{"indexed":true,"internalType":"uint256","name":"boostBips","type":"uint256"}],"name":"PoolCreated","type":"event"},{"inputs":[],"name":"FEE_SPLIT_DIVISOR","outputs":[{"internalType":"uint256","name":"","type":"uint256"}],"stateMutability":"view","type":"function"},{"inputs":[],"name":"SELL_FEE_BIPS","outputs":[{"internalType":"uint256","name":"","type":"uint256"}],"stateMutability":"view","type":"function"},{"inputs":[{"internalType":"uint256","name":"_boostBips","type":"uint256"},{"internalType":"uint256[]","name":"_tokenIds","type":"uint256[]"},{"internalType":"uint256","name":"_bkcAmount","type":"uint256"}],"name":"addInitialLiquidity","outputs":[],"stateMutability":"nonpayable","type":"function"},{"inputs":[{"internalType":"uint256","name":"_boostBips","type":"uint256"},{"internalType":"uint256[]","name":"_tokenIds","type":"uint256[]"}],"name":"addMoreNFTsToPool","outputs":[],"stateMutability":"nonpayable","type":"function"},{"inputs":[],"name":"bkcToken","outputs":[{"internalType":"contract IERC20","name":"","type":"address"}],"stateMutability":"view","type":"function"},{"inputs":[{"internalType":"uint256","name":"_boostBips","type":"uint256"},{"internalType":"uint256","name":"_tokenId","type":"uint256"}],"name":"buyNFT","outputs":[],"stateMutability":"nonpayable","type":"function"},{"inputs":[{"internalType":"uint256","name":"_boostBips","type":"uint256"}],"name":"createPool","outputs":[],"stateMutability":"nonpayable","type":"function"},{"inputs":[],"name":"delegationManager","outputs":[{"internalType":"contract IDelegationManager","name":"","type":"address"}],"stateMutability":"view","type":"function"},{"inputs":[{"internalType":"uint256","name":"_boostBips","type":"uint256"}],"name":"getBuyPrice","outputs":[{"internalType":"uint256","name":"","type":"uint256"}],"stateMutability":"view","type":"function"},{"inputs":[{"internalType":"uint256","name":"_boostBips","type":"uint256"}],"name":"getSellPrice","outputs":[{"internalType":"uint256","name":"","type":"uint256"}],"stateMutability":"view","type":"function"},{"inputs":[{"internalType":"address","name":"","type":"address"},{"internalType":"address","name":"","type":"address"},{"internalType":"uint256","name":"","type":"uint256"},{"internalType":"bytes","name":"","type":"bytes"}],"name":"onERC721Received","outputs":[{"internalType":"bytes4","name":"","type":"bytes4"}],"stateMutability":"nonpayable","type":"function"},{"inputs":[],"name":"owner","outputs":[{"internalType":"address","name":"","type":"address"}],"stateMutability":"view","type":"function"},{"inputs":[{"internalType":"uint256","name":"","type":"uint256"}],"name":"pools","outputs":[{"internalType":"uint256","name":"tokenBalance","type":"uint256"},{"internalType":"uint256","name":"nftCount","type":"uint256"},{"internalType":"uint256","name":"k","type":"uint256"},{"internalType":"bool","name":"isInitialized","type":"bool"}],"stateMutability":"view","type":"function"},{"inputs":[],"name":"renounceOwnership","outputs":[],"stateMutability":"nonpayable","type":"function"},{"inputs":[],"name":"rewardBoosterNFT","outputs":[{"internalType":"contract IRewardBoosterNFT","name":"","type":"address"}],"stateMutability":"view","type":"function"},{"inputs":[{"internalType":"uint256","name":"_tokenId","type":"uint256"}],"name":"sellNFT","outputs":[],"stateMutability":"nonpayable","type":"function"},{"inputs":[{"internalType":"address","name":"newOwner","type":"address"}],"name":"transferOwnership","outputs":[],"stateMutability":"nonpayable","type":"function"},{"inputs":[],"name":"treasuryWallet","outputs":[{"internalType":"address","name":"","type":"address"}],"stateMutability":"view","type":"function"}],"evm":{"bytecode":{"linkReferences":{},"object":"61010060405234801561001157600080fd5b50604051611b56380380611b56833981016040819052610030916100fc565b806001600160a01b03811661005f57604051631e4fbdf760e01b81526000600482015260240160405180910390fd5b61006881610090565b5050600180556001600160a01b0393841660805291831660a052821660c0521660e052610161565b600080546001600160a01b038381166001600160a01b0319831681178455604051919092169283917f8be0079c531659141344cd1fd0a4f28419497f9722a3daafe3b4186f6b6457e09190a35050565b80516001600160a01b03811681146100f757600080fd5b919050565b600080600080600060a0868803121561011457600080fd5b61011d866100e0565b945061012b602087016100e0565b9350610139604087016100e0565b9250610147606087016100e0565b9150610155608087016100e0565b90509295509295909350565b60805160a05160c05160e05161194c61020a600039600081816101e201526112160152600081816102ca015281816112ca0152611384015260008181610317015281816104440152818161051d0152818161072f01528181610a2a01528181610d0101528181610e4401528181610f0e01526110f20152600081816101a30152818161061401528181610ae6015281816111820152818161124501526112f9015261194c6000f3fe608060405234801561001057600080fd5b50600436106101165760003560e01c80638da5cb5b116100a2578063e07bd26611610071578063e07bd266146102b2578063ea4d3c9b146102c5578063ee9cdfb3146102ec578063f2fde38b146102ff578063ffa5c81f1461031257600080fd5b80638da5cb5b1461021f578063ac4afa3814610230578063ba730e531461028c578063df999c471461029f57600080fd5b80631d85bf03116100e95780631d85bf03146101895780632402ff971461019e5780634626402b146101dd578063715018a6146102045780638259e6a01461020c57600080fd5b806302fd99fd1461011b57806308d4db1414610137578063150b7a021461014a5780631acbf98914610181575b600080fd5b6101246104b081565b6040519081526020015b60405180910390f35b61012461014536600461157c565b610339565b6101686101583660046115c0565b630a85bd0160e11b949350505050565b6040516001600160e01b0319909116815260200161012e565b610124600381565b61019c6101973660046116a8565b6103a5565b005b6101c57f000000000000000000000000000000000000000000000000000000000000000081565b6040516001600160a01b03909116815260200161012e565b6101c57f000000000000000000000000000000000000000000000000000000000000000081565b61019c6107e6565b61019c61021a36600461157c565b6107fa565b6000546001600160a01b03166101c5565b61026a61023e36600461157c565b600260208190526000918252604090912080546001820154928201546003909201549092919060ff1684565b604080519485526020850193909352918301521515606082015260800161012e565b61012461029a36600461157c565b6108a0565b61019c6102ad366004611716565b610907565b61019c6102c0366004611769565b610c15565b6101c57f000000000000000000000000000000000000000000000000000000000000000081565b61019c6102fa36600461157c565b610e1c565b61019c61030d3660046117b5565b61149a565b6101c57f000000000000000000000000000000000000000000000000000000000000000081565b6000818152600260205260408120600381015460ff16158061035d57506001810154155b1561036c575060001992915050565b60006001826001015461037f91906117ef565b826002015461038e9190611808565b825490915061039d90826117ef565b949350505050565b6103ad6114d5565b6000828152600260205260409020600381015460ff1680156103d3575060008160010154115b6104245760405162461bcd60e51b815260206004820152601e60248201527f4e6f204e46547320617661696c61626c6520696e207468697320706f6f6c000060448201526064015b60405180910390fd5b6040516331a9108f60e11b81526004810183905230906001600160a01b037f00000000000000000000000000000000000000000000000000000000000000001690636352211e90602401602060405180830381865afa15801561048b573d6000803e3d6000fd5b505050506040513d601f19601f820116820180604052508101906104af919061182a565b6001600160a01b0316146105055760405162461bcd60e51b815260206004820152601e60248201527f436f6e747261637420646f6573206e6f74206f776e2074686973204e46540000604482015260640161041b565b60405163070922e560e51b81526004810183905283907f00000000000000000000000000000000000000000000000000000000000000006001600160a01b03169063e1245ca090602401602060405180830381865afa15801561056c573d6000803e3d6000fd5b505050506040513d601f19601f820116820180604052508101906105909190611847565b146105ef5760405162461bcd60e51b815260206004820152602960248201527f546f6b656e20646f6573206e6f742062656c6f6e6720746f2074686973207469604482015268195c89dcc81c1bdbdb60ba1b606482015260840161041b565b60006105fa84610339565b6040516323b872dd60e01b81529091506001600160a01b037f000000000000000000000000000000000000000000000000000000000000000016906323b872dd9061064d90339030908690600401611860565b6020604051808303816000875af115801561066c573d6000803e3d6000fd5b505050506040513d601f19601f820116820180604052508101906106909190611884565b6106d25760405162461bcd60e51b81526020600482015260136024820152721092d0c81d1c985b9cd9995c8819985a5b1959606a1b604482015260640161041b565b808260000160008282546106e691906118a6565b90915550506001820180549060006106fd836118b9565b90915550506001820154825461071391906118d0565b6002830155604051632142170760e11b81526001600160a01b037f000000000000000000000000000000000000000000000000000000000000000016906342842e0e9061076890309033908890600401611860565b600060405180830381600087803b15801561078257600080fd5b505af1158015610796573d6000803e3d6000fd5b505060408051868152602081018590528793503392507f8c68226ed6c7256cb4dc9d9d1d0d84141ffb9ff4cac6ca9fa08dc46ad0a08936910160405180910390a350506107e260018055565b5050565b6107ee6114ff565b6107f8600061152c565b565b6108026114ff565b60008181526002602052604090206003015460ff161561085a5760405162461bcd60e51b8152602060048201526013602482015272506f6f6c20616c72656164792065786973747360681b604482015260640161041b565b600081815260026020526040808220600301805460ff191660011790555182917ffa88d81eaffbf548e3ffc6c6458827ce9906ad714060746b80909cdf8d1d7ef791a250565b6000818152600260205260408120600381015460ff1615806108c757506000198160010154145b156108d55750600092915050565b6000816001015460016108e891906118a6565b82600201546108f79190611808565b825490915061039d9082906117ef565b61090f6114ff565b6109176114d5565b6000848152600260205260409020600381015460ff166109705760405162461bcd60e51b8152602060048201526014602482015273141bdbdb081b9bdd081a5b9a5d1a585b1a5e995960621b604482015260640161041b565b6001810154156109c25760405162461bcd60e51b815260206004820152601760248201527f4c697175696469747920616c7265616479206164646564000000000000000000604482015260640161041b565b82158015906109d15750600082115b610a1d5760405162461bcd60e51b815260206004820152601960248201527f496e76616c696420696e697469616c206c697175696469747900000000000000604482015260640161041b565b60005b83811015610ace577f00000000000000000000000000000000000000000000000000000000000000006001600160a01b03166342842e0e3330888886818110610a6b57610a6b6118e7565b905060200201356040518463ffffffff1660e01b8152600401610a9093929190611860565b600060405180830381600087803b158015610aaa57600080fd5b505af1158015610abe573d6000803e3d6000fd5b505060019092019150610a209050565b506040516323b872dd60e01b81526001600160a01b037f000000000000000000000000000000000000000000000000000000000000000016906323b872dd90610b1f90339030908790600401611860565b6020604051808303816000875af1158015610b3e573d6000803e3d6000fd5b505050506040513d601f19601f82011682018060405250810190610b629190611884565b610ba45760405162461bcd60e51b81526020600482015260136024820152721092d0c81d1c985b9cd9995c8819985a5b1959606a1b604482015260640161041b565b60018101839055818155610bb882846118d0565b60028201556001810154815460405187927fd7f28048575eead8851d024ead087913957dfb4fd1a02b4d1573f5352a5a2be392610bfd92918252602082015260400190565b60405180910390a250610c0f60018055565b50505050565b610c1d6114ff565b610c256114d5565b6000838152600260205260409020600381015460ff168015610c4b575060008160010154115b610ca75760405162461bcd60e51b815260206004820152602760248201527f506f6f6c206e6f7420696e697469616c697a65642077697468206c69717569646044820152661a5d1e481e595d60ca1b606482015260840161041b565b81610cf45760405162461bcd60e51b815260206004820152601f60248201527f546f6b656e204944732061727261792063616e6e6f7420626520656d70747900604482015260640161041b565b60005b82811015610da5577f00000000000000000000000000000000000000000000000000000000000000006001600160a01b03166342842e0e3330878786818110610d4257610d426118e7565b905060200201356040518463ffffffff1660e01b8152600401610d6793929190611860565b600060405180830381600087803b158015610d8157600080fd5b505af1158015610d95573d6000803e3d6000fd5b505060019092019150610cf79050565b5082829050816001016000828254610dbd91906118a6565b909155505080546001820154610dd391906118d0565b600282015560405182815284907f858a207c492e6a9b397e43da12be8cc88dc78945a357fbd7ac3593460ad1e4e49060200160405180910390a250610e1760018055565b505050565b610e246114d5565b6040516331a9108f60e11b81526004810182905233906001600160a01b037f00000000000000000000000000000000000000000000000000000000000000001690636352211e90602401602060405180830381865afa158015610e8b573d6000803e3d6000fd5b505050506040513d601f19601f82011682018060405250810190610eaf919061182a565b6001600160a01b031614610ef55760405162461bcd60e51b815260206004820152600d60248201526c2737ba103a34329037bbb732b960991b604482015260640161041b565b60405163070922e560e51b8152600481018290526000907f00000000000000000000000000000000000000000000000000000000000000006001600160a01b03169063e1245ca090602401602060405180830381865afa158015610f5d573d6000803e3d6000fd5b505050506040513d601f19601f82011682018060405250810190610f819190611847565b905060008111610fd35760405162461bcd60e51b815260206004820152601760248201527f4e6f7420612076616c696420426f6f73746572204e4654000000000000000000604482015260640161041b565b6000818152600260205260409020600381015460ff1661103f5760405162461bcd60e51b815260206004820152602160248201527f506f6f6c20646f6573206e6f7420657869737420666f722074686973207469656044820152603960f91b606482015260840161041b565b600061104a836108a0565b905080826000015410156110a05760405162461bcd60e51b815260206004820152601f60248201527f506f6f6c2068617320696e73756666696369656e74206c697175696469747900604482015260640161041b565b60006127106110b16104b0846118d0565b6110bb9190611808565b905060006110ca600383611808565b905060006110d883856117ef565b604051632142170760e11b81529091506001600160a01b037f000000000000000000000000000000000000000000000000000000000000000016906342842e0e9061112b90339030908c90600401611860565b600060405180830381600087803b15801561114557600080fd5b505af1158015611159573d6000803e3d6000fd5b5050505060008111156111f95760405163a9059cbb60e01b8152336004820152602481018290527f00000000000000000000000000000000000000000000000000000000000000006001600160a01b03169063a9059cbb906044016020604051808303816000875af11580156111d3573d6000803e3d6000fd5b505050506040513d601f19601f820116820180604052508101906111f79190611884565b505b81156113e95760405163a9059cbb60e01b81526001600160a01b037f000000000000000000000000000000000000000000000000000000000000000081166004830152602482018490527f0000000000000000000000000000000000000000000000000000000000000000169063a9059cbb906044016020604051808303816000875af115801561128e573d6000803e3d6000fd5b505050506040513d601f19601f820116820180604052508101906112b29190611884565b5060405163095ea7b360e01b81526001600160a01b037f000000000000000000000000000000000000000000000000000000000000000081166004830152602482018490527f0000000000000000000000000000000000000000000000000000000000000000169063095ea7b3906044016020604051808303816000875af1158015611342573d6000803e3d6000fd5b505050506040513d601f19601f820116820180604052508101906113669190611884565b5060405163bdd071fb60e01b815260006004820152602481018390527f00000000000000000000000000000000000000000000000000000000000000006001600160a01b03169063bdd071fb90604401600060405180830381600087803b1580156113d057600080fd5b505af11580156113e4573d6000803e3d6000fd5b505050505b6113f48260026118d0565b6113fe90826118a6565b85600001600082825461141191906117ef565b9091555050600185018054906000611428836118fd565b90915550506001850154855461143e91906118d0565b60028601556040805188815260208101839052908101849052869033907f44bda66dab9320f5157fa343d54f000327d61b11c425ff01e2e871039e572d4b9060600160405180910390a350505050505061149760018055565b50565b6114a26114ff565b6001600160a01b0381166114cc57604051631e4fbdf760e01b81526000600482015260240161041b565b6114978161152c565b6002600154036114f857604051633ee5aeb560e01b815260040160405180910390fd5b6002600155565b6000546001600160a01b031633146107f85760405163118cdaa760e01b815233600482015260240161041b565b600080546001600160a01b038381166001600160a01b0319831681178455604051919092169283917f8be0079c531659141344cd1fd0a4f28419497f9722a3daafe3b4186f6b6457e09190a35050565b60006020828403121561158e57600080fd5b5035919050565b6001600160a01b038116811461149757600080fd5b634e487b7160e01b600052604160045260246000fd5b600080600080608085870312156115d657600080fd5b84356115e181611595565b935060208501356115f181611595565b925060408501359150606085013567ffffffffffffffff81111561161457600080fd5b8501601f8101871361162557600080fd5b803567ffffffffffffffff81111561163f5761163f6115aa565b604051601f8201601f19908116603f0116810167ffffffffffffffff8111828210171561166e5761166e6115aa565b60405281815282820160200189101561168657600080fd5b8160208401602083013760006020838301015280935050505092959194509250565b600080604083850312156116bb57600080fd5b50508035926020909101359150565b60008083601f8401126116dc57600080fd5b50813567ffffffffffffffff8111156116f457600080fd5b6020830191508360208260051b850101111561170f57600080fd5b9250929050565b6000806000806060858703121561172c57600080fd5b84359350602085013567ffffffffffffffff81111561174a57600080fd5b611756878288016116ca565b9598909750949560400135949350505050565b60008060006040848603121561177e57600080fd5b83359250602084013567ffffffffffffffff81111561179c57600080fd5b6117a8868287016116ca565b9497909650939450505050565b6000602082840312156117c757600080fd5b81356117d281611595565b9392505050565b634e487b7160e01b600052601160045260246000fd5b81810381811115611802576118026117d9565b92915050565b60008261182557634e487b7160e01b600052601260045260246000fd5b500490565b60006020828403121561183c57600080fd5b81516117d281611595565b60006020828403121561185957600080fd5b5051919050565b6001600160a01b039384168152919092166020820152604081019190915260600190565b60006020828403121561189657600080fd5b815180151581146117d257600080fd5b80820180821115611802576118026117d9565b6000816118c8576118c86117d9565b506000190190565b8082028115828204841417611802576118026117d9565b634e487b7160e01b600052603260045260246000fd5b60006001820161190f5761190f6117d9565b506001019056fea2646970667358221220b17a8ec5362e0c416b07c20481a5edee2d55a3fa4a5d3ea9b0137a69cdeed10264736f6c634300081c0033","opcodes":"PUSH2 0x100 PUSH1 0x40 MSTORE CALLVALUE DUP1 ISZERO PUSH2 0x11 JUMPI PUSH1 0x0 DUP1 REVERT JUMPDEST POP PUSH1 0x40 MLOAD PUSH2 0x1B56 CODESIZE SUB DUP1 PUSH2 0x1B56 DUP4 CODECOPY DUP2 ADD PUSH1 0x40 DUP2 SWAP1 MSTORE PUSH2 0x30 SWAP2 PUSH2 0xFC JUMP JUMPDEST DUP1 PUSH1 0x1 PUSH1 0x1 PUSH1 0xA0 SHL SUB DUP2 AND PUSH2 0x5F JUMPI PUSH1 0x40 MLOAD PUSH4 0x1E4FBDF7 PUSH1 0xE0 SHL DUP2 MSTORE PUSH1 0x0 PUSH1 0x4 DUP3 ADD MSTORE PUSH1 0x24 ADD PUSH1 0x40 MLOAD DUP1 SWAP2 SUB SWAP1 REVERT JUMPDEST PUSH2 0x68 DUP2 PUSH2 0x90 JUMP JUMPDEST POP POP PUSH1 0x1 DUP1 SSTORE PUSH1 0x1 PUSH1 0x1 PUSH1 0xA0 SHL SUB SWAP4 DUP5 AND PUSH1 0x80 MSTORE SWAP2 DUP4 AND PUSH1 0xA0 MSTORE DUP3 AND PUSH1 0xC0 MSTORE AND PUSH1 0xE0 MSTORE PUSH2 0x161 JUMP JUMPDEST PUSH1 0x0 DUP1 SLOAD PUSH1 0x1 PUSH1 0x1 PUSH1 0xA0 SHL SUB DUP4 DUP2 AND PUSH1 0x1 PUSH1 0x1 PUSH1 0xA0 SHL SUB NOT DUP4 AND DUP2 OR DUP5 SSTORE PUSH1 0x40 MLOAD SWAP2 SWAP1 SWAP3 AND SWAP3 DUP4 SWAP2 PUSH32 0x8BE0079C531659141344CD1FD0A4F28419497F9722A3DAAFE3B4186F6B6457E0 SWAP2 SWAP1 LOG3 POP POP JUMP JUMPDEST DUP1 MLOAD PUSH1 0x1 PUSH1 0x1 PUSH1 0xA0 SHL SUB DUP2 AND DUP2 EQ PUSH2 0xF7 JUMPI PUSH1 0x0 DUP1 REVERT JUMPDEST SWAP2 SWAP1 POP JUMP JUMPDEST PUSH1 0x0 DUP1 PUSH1 0x0 DUP1 PUSH1 0x0 PUSH1 0xA0 DUP7 DUP9 SUB SLT ISZERO PUSH2 0x114 JUMPI PUSH1 0x0 DUP1 REVERT JUMPDEST PUSH2 0x11D DUP7 PUSH2 0xE0 JUMP JUMPDEST SWAP5 POP PUSH2 0x12B PUSH1 0x20 DUP8 ADD PUSH2 0xE0 JUMP JUMPDEST SWAP4 POP PUSH2 0x139 PUSH1 0x40 DUP8 ADD PUSH2 0xE0 JUMP JUMPDEST SWAP3 POP PUSH2 0x147 PUSH1 0x60 DUP8 ADD PUSH2 0xE0 JUMP JUMPDEST SWAP2 POP PUSH2 0x155 PUSH1 0x80 DUP8 ADD PUSH2 0xE0 JUMP JUMPDEST SWAP1 POP SWAP3 SWAP6 POP SWAP3 SWAP6 SWAP1 SWAP4 POP JUMP JUMPDEST PUSH1 0x80 MLOAD PUSH1 0xA0 MLOAD PUSH1 0xC0 MLOAD PUSH1 0xE0 MLOAD PUSH2 0x194C PUSH2 0x20A PUSH1 0x0 CODECOPY PUSH1 0x0 DUP2 DUP2 PUSH2 0x1E2 ADD MSTORE PUSH2 0x1216 ADD MSTORE PUSH1 0x0 DUP2 DUP2 PUSH2 0x2CA ADD MSTORE DUP2 DUP2 PUSH2 0x12CA ADD MSTORE PUSH2 0x1384 ADD MSTORE PUSH1 0x0 DUP2 DUP2 PUSH2 0x317 ADD MSTORE DUP2 DUP2 PUSH2 0x444 ADD MSTORE DUP2 DUP2 PUSH2 0x51D ADD MSTORE DUP2 DUP2 PUSH2 0x72F ADD MSTORE DUP2 DUP2 PUSH2 0xA2A ADD MSTORE DUP2 DUP2 PUSH2 0xD01 ADD MSTORE DUP2 DUP2 PUSH2 0xE44 ADD MSTORE DUP2 DUP2 PUSH2 0xF0E ADD MSTORE PUSH2 0x10F2 ADD MSTORE PUSH1 0x0 DUP2 DUP2 PUSH2 0x1A3 ADD MSTORE DUP2 DUP2 PUSH2 0x614 ADD MSTORE DUP2 DUP2 PUSH2 0xAE6 ADD MSTORE DUP2 DUP2 PUSH2 0x1182 ADD MSTORE DUP2 DUP2 PUSH2 0x1245 ADD MSTORE PUSH2 0x12F9 ADD MSTORE PUSH2 0x194C PUSH1 0x0 RETURN INVALID PUSH1 0x80 PUSH1 0x40 MSTORE CALLVALUE DUP1 ISZERO PUSH2 0x10 JUMPI PUSH1 0x0 DUP1 REVERT JUMPDEST POP PUSH1 0x4 CALLDATASIZE LT PUSH2 0x116 JUMPI PUSH1 0x0 CALLDATALOAD PUSH1 0xE0 SHR DUP1 PUSH4 0x8DA5CB5B GT PUSH2 0xA2 JUMPI DUP1 PUSH4 0xE07BD266 GT PUSH2 0x71 JUMPI DUP1 PUSH4 0xE07BD266 EQ PUSH2 0x2B2 JUMPI DUP1 PUSH4 0xEA4D3C9B EQ PUSH2 0x2C5 JUMPI DUP1 PUSH4 0xEE9CDFB3 EQ PUSH2 0x2EC JUMPI DUP1 PUSH4 0xF2FDE38B EQ PUSH2 0x2FF JUMPI DUP1 PUSH4 0xFFA5C81F EQ PUSH2 0x312 JUMPI PUSH1 0x0 DUP1 REVERT JUMPDEST DUP1 PUSH4 0x8DA5CB5B EQ PUSH2 0x21F JUMPI DUP1 PUSH4 0xAC4AFA38 EQ PUSH2 0x230 JUMPI DUP1 PUSH4 0xBA730E53 EQ PUSH2 0x28C JUMPI DUP1 PUSH4 0xDF999C47 EQ PUSH2 0x29F JUMPI PUSH1 0x0 DUP1 REVERT JUMPDEST DUP1 PUSH4 0x1D85BF03 GT PUSH2 0xE9 JUMPI DUP1 PUSH4 0x1D85BF03 EQ PUSH2 0x189 JUMPI DUP1 PUSH4 0x2402FF97 EQ PUSH2 0x19E JUMPI DUP1 PUSH4 0x4626402B EQ PUSH2 0x1DD JUMPI DUP1 PUSH4 0x715018A6 EQ PUSH2 0x204 JUMPI DUP1 PUSH4 0x8259E6A0 EQ PUSH2 0x20C JUMPI PUSH1 0x0 DUP1 REVERT JUMPDEST DUP1 PUSH4 0x2FD99FD EQ PUSH2 0x11B JUMPI DUP1 PUSH4 0x8D4DB14 EQ PUSH2 0x137 JUMPI DUP1 PUSH4 0x150B7A02 EQ PUSH2 0x14A JUMPI DUP1 PUSH4 0x1ACBF989 EQ PUSH2 0x181 JUMPI JUMPDEST PUSH1 0x0 DUP1 REVERT JUMPDEST PUSH2 0x124 PUSH2 0x4B0 DUP2 JUMP JUMPDEST PUSH1 0x40 MLOAD SWAP1 DUP2 MSTORE PUSH1 0x20 ADD JUMPDEST PUSH1 0x40 MLOAD DUP1 SWAP2 SUB SWAP1 RETURN JUMPDEST PUSH2 0x124 PUSH2 0x145 CALLDATASIZE PUSH1 0x4 PUSH2 0x157C JUMP JUMPDEST PUSH2 0x339 JUMP JUMPDEST PUSH2 0x168 PUSH2 0x158 CALLDATASIZE PUSH1 0x4 PUSH2 0x15C0 JUMP JUMPDEST PUSH4 0xA85BD01 PUSH1 0xE1 SHL SWAP5 SWAP4 POP POP POP POP JUMP JUMPDEST PUSH1 0x40 MLOAD PUSH1 0x1 PUSH1 0x1 PUSH1 0xE0 SHL SUB NOT SWAP1 SWAP2 AND DUP2 MSTORE PUSH1 0x20 ADD PUSH2 0x12E JUMP JUMPDEST PUSH2 0x124 PUSH1 0x3 DUP2 JUMP JUMPDEST PUSH2 0x19C PUSH2 0x197 CALLDATASIZE PUSH1 0x4 PUSH2 0x16A8 JUMP JUMPDEST PUSH2 0x3A5 JUMP JUMPDEST STOP JUMPDEST PUSH2 0x1C5 PUSH32 0x0 DUP2 JUMP JUMPDEST PUSH1 0x40 MLOAD PUSH1 0x1 PUSH1 0x1 PUSH1 0xA0 SHL SUB SWAP1 SWAP2 AND DUP2 MSTORE PUSH1 0x20 ADD PUSH2 0x12E JUMP JUMPDEST PUSH2 0x1C5 PUSH32 0x0 DUP2 JUMP JUMPDEST PUSH2 0x19C PUSH2 0x7E6 JUMP JUMPDEST PUSH2 0x19C PUSH2 0x21A CALLDATASIZE PUSH1 0x4 PUSH2 0x157C JUMP JUMPDEST PUSH2 0x7FA JUMP JUMPDEST PUSH1 0x0 SLOAD PUSH1 0x1 PUSH1 0x1 PUSH1 0xA0 SHL SUB AND PUSH2 0x1C5 JUMP JUMPDEST PUSH2 0x26A PUSH2 0x23E CALLDATASIZE PUSH1 0x4 PUSH2 0x157C JUMP JUMPDEST PUSH1 0x2 PUSH1 0x20 DUP2 SWAP1 MSTORE PUSH1 0x0 SWAP2 DUP3 MSTORE PUSH1 0x40 SWAP1 SWAP2 KECCAK256 DUP1 SLOAD PUSH1 0x1 DUP3 ADD SLOAD SWAP3 DUP3 ADD SLOAD PUSH1 0x3 SWAP1 SWAP3 ADD SLOAD SWAP1 SWAP3 SWAP2 SWAP1 PUSH1 0xFF AND DUP5 JUMP JUMPDEST PUSH1 0x40 DUP1 MLOAD SWAP5 DUP6 MSTORE PUSH1 0x20 DUP6 ADD SWAP4 SWAP1 SWAP4 MSTORE SWAP2 DUP4 ADD MSTORE ISZERO ISZERO PUSH1 0x60 DUP3 ADD MSTORE PUSH1 0x80 ADD PUSH2 0x12E JUMP JUMPDEST PUSH2 0x124 PUSH2 0x29A CALLDATASIZE PUSH1 0x4 PUSH2 0x157C JUMP JUMPDEST PUSH2 0x8A0 JUMP JUMPDEST PUSH2 0x19C PUSH2 0x2AD CALLDATASIZE PUSH1 0x4 PUSH2 0x1716 JUMP JUMPDEST PUSH2 0x907 JUMP JUMPDEST PUSH2 0x19C PUSH2 0x2C0 CALLDATASIZE PUSH1 0x4 PUSH2 0x1769 JUMP JUMPDEST PUSH2 0xC15 JUMP JUMPDEST PUSH2 0x1C5 PUSH32 0x0 DUP2 JUMP JUMPDEST PUSH2 0x19C PUSH2 0x2FA CALLDATASIZE PUSH1 0x4 PUSH2 0x157C JUMP JUMPDEST PUSH2 0xE1C JUMP JUMPDEST PUSH2 0x19C PUSH2 0x30D CALLDATASIZE PUSH1 0x4 PUSH2 0x17B5 JUMP JUMPDEST PUSH2 0x149A JUMP JUMPDEST PUSH2 0x1C5 PUSH32 0x0 DUP2 JUMP JUMPDEST PUSH1 0x0 DUP2 DUP2 MSTORE PUSH1 0x2 PUSH1 0x20 MSTORE PUSH1 0x40 DUP2 KECCAK256 PUSH1 0x3 DUP2 ADD SLOAD PUSH1 0xFF AND ISZERO DUP1 PUSH2 0x35D JUMPI POP PUSH1 0x1 DUP2 ADD SLOAD ISZERO JUMPDEST ISZERO PUSH2 0x36C JUMPI POP PUSH1 0x0 NOT SWAP3 SWAP2 POP POP JUMP JUMPDEST PUSH1 0x0 PUSH1 0x1 DUP3 PUSH1 0x1 ADD SLOAD PUSH2 0x37F SWAP2 SWAP1 PUSH2 0x17EF JUMP JUMPDEST DUP3 PUSH1 0x2 ADD SLOAD PUSH2 0x38E SWAP2 SWAP1 PUSH2 0x1808 JUMP JUMPDEST DUP3 SLOAD SWAP1 SWAP2 POP PUSH2 0x39D SWAP1 DUP3 PUSH2 0x17EF JUMP JUMPDEST SWAP5 SWAP4 POP POP POP POP JUMP JUMPDEST PUSH2 0x3AD PUSH2 0x14D5 JUMP JUMPDEST PUSH1 0x0 DUP3 DUP2 MSTORE PUSH1 0x2 PUSH1 0x20 MSTORE PUSH1 0x40 SWAP1 KECCAK256 PUSH1 0x3 DUP2 ADD SLOAD PUSH1 0xFF AND DUP1 ISZERO PUSH2 0x3D3 JUMPI POP PUSH1 0x0 DUP2 PUSH1 0x1 ADD SLOAD GT JUMPDEST PUSH2 0x424 JUMPI PUSH1 0x40 MLOAD PUSH3 0x461BCD PUSH1 0xE5 SHL DUP2 MSTORE PUSH1 0x20 PUSH1 0x4 DUP3 ADD MSTORE PUSH1 0x1E PUSH1 0x24 DUP3 ADD MSTORE PUSH32 0x4E6F204E46547320617661696C61626C6520696E207468697320706F6F6C0000 PUSH1 0x44 DUP3 ADD MSTORE PUSH1 0x64 ADD JUMPDEST PUSH1 0x40 MLOAD DUP1 SWAP2 SUB SWAP1 REVERT JUMPDEST PUSH1 0x40 MLOAD PUSH4 0x31A9108F PUSH1 0xE1 SHL DUP2 MSTORE PUSH1 0x4 DUP2 ADD DUP4 SWAP1 MSTORE ADDRESS SWAP1 PUSH1 0x1 PUSH1 0x1 PUSH1 0xA0 SHL SUB PUSH32 0x0 AND SWAP1 PUSH4 0x6352211E SWAP1 PUSH1 0x24 ADD PUSH1 0x20 PUSH1 0x40 MLOAD DUP1 DUP4 SUB DUP2 DUP7 GAS STATICCALL ISZERO DUP1 ISZERO PUSH2 0x48B JUMPI RETURNDATASIZE PUSH1 0x0 DUP1 RETURNDATACOPY RETURNDATASIZE PUSH1 0x0 REVERT JUMPDEST POP POP POP POP PUSH1 0x40 MLOAD RETURNDATASIZE PUSH1 0x1F NOT PUSH1 0x1F DUP3 ADD AND DUP3 ADD DUP1 PUSH1 0x40 MSTORE POP DUP2 ADD SWAP1 PUSH2 0x4AF SWAP2 SWAP1 PUSH2 0x182A JUMP JUMPDEST PUSH1 0x1 PUSH1 0x1 PUSH1 0xA0 SHL SUB AND EQ PUSH2 0x505 JUMPI PUSH1 0x40 MLOAD PUSH3 0x461BCD PUSH1 0xE5 SHL DUP2 MSTORE PUSH1 0x20 PUSH1 0x4 DUP3 ADD MSTORE PUSH1 0x1E PUSH1 0x24 DUP3 ADD MSTORE PUSH32 0x436F6E747261637420646F6573206E6F74206F776E2074686973204E46540000 PUSH1 0x44 DUP3 ADD MSTORE PUSH1 0x64 ADD PUSH2 0x41B JUMP JUMPDEST PUSH1 0x40 MLOAD PUSH4 0x70922E5 PUSH1 0xE5 SHL DUP2 MSTORE PUSH1 0x4 DUP2 ADD DUP4 SWAP1 MSTORE DUP4 SWAP1 PUSH32 0x0 PUSH1 0x1 PUSH1 0x1 PUSH1 0xA0 SHL SUB AND SWAP1 PUSH4 0xE1245CA0 SWAP1 PUSH1 0x24 ADD PUSH1 0x20 PUSH1 0x40 MLOAD DUP1 DUP4 SUB DUP2 DUP7 GAS STATICCALL ISZERO DUP1 ISZERO PUSH2 0x56C JUMPI RETURNDATASIZE PUSH1 0x0 DUP1 RETURNDATACOPY RETURNDATASIZE PUSH1 0x0 REVERT JUMPDEST POP POP POP POP PUSH1 0x40 MLOAD RETURNDATASIZE PUSH1 0x1F NOT PUSH1 0x1F DUP3 ADD AND DUP3 ADD DUP1 PUSH1 0x40 MSTORE POP DUP2 ADD SWAP1 PUSH2 0x590 SWAP2 SWAP1 PUSH2 0x1847 JUMP JUMPDEST EQ PUSH2 0x5EF JUMPI PUSH1 0x40 MLOAD PUSH3 0x461BCD PUSH1 0xE5 SHL DUP2 MSTORE PUSH1 0x20 PUSH1 0x4 DUP3 ADD MSTORE PUSH1 0x29 PUSH1 0x24 DUP3 ADD MSTORE PUSH32 0x546F6B656E20646F6573206E6F742062656C6F6E6720746F2074686973207469 PUSH1 0x44 DUP3 ADD MSTORE PUSH9 0x195C89DCC81C1BDBDB PUSH1 0xBA SHL PUSH1 0x64 DUP3 ADD MSTORE PUSH1 0x84 ADD PUSH2 0x41B JUMP JUMPDEST PUSH1 0x0 PUSH2 0x5FA DUP5 PUSH2 0x339 JUMP JUMPDEST PUSH1 0x40 MLOAD PUSH4 0x23B872DD PUSH1 0xE0 SHL DUP2 MSTORE SWAP1 SWAP2 POP PUSH1 0x1 PUSH1 0x1 PUSH1 0xA0 SHL SUB PUSH32 0x0 AND SWAP1 PUSH4 0x23B872DD SWAP1 PUSH2 0x64D SWAP1 CALLER SWAP1 ADDRESS SWAP1 DUP7 SWAP1 PUSH1 0x4 ADD PUSH2 0x1860 JUMP JUMPDEST PUSH1 0x20 PUSH1 0x40 MLOAD DUP1 DUP4 SUB DUP2 PUSH1 0x0 DUP8 GAS CALL ISZERO DUP1 ISZERO PUSH2 0x66C JUMPI RETURNDATASIZE PUSH1 0x0 DUP1 RETURNDATACOPY RETURNDATASIZE PUSH1 0x0 REVERT JUMPDEST POP POP POP POP PUSH1 0x40 MLOAD RETURNDATASIZE PUSH1 0x1F NOT PUSH1 0x1F DUP3 ADD AND DUP3 ADD DUP1 PUSH1 0x40 MSTORE POP DUP2 ADD SWAP1 PUSH2 0x690 SWAP2 SWAP1 PUSH2 0x1884 JUMP JUMPDEST PUSH2 0x6D2 JUMPI PUSH1 0x40 MLOAD PUSH3 0x461BCD PUSH1 0xE5 SHL DUP2 MSTORE PUSH1 0x20 PUSH1 0x4 DUP3 ADD MSTORE PUSH1 0x13 PUSH1 0x24 DUP3 ADD MSTORE PUSH19 0x1092D0C81D1C985B9CD9995C8819985A5B1959 PUSH1 0x6A SHL PUSH1 0x44 DUP3 ADD MSTORE PUSH1 0x64 ADD PUSH2 0x41B JUMP JUMPDEST DUP1 DUP3 PUSH1 0x0 ADD PUSH1 0x0 DUP3 DUP3 SLOAD PUSH2 0x6E6 SWAP2 SWAP1 PUSH2 0x18A6 JUMP JUMPDEST SWAP1 SWAP2 SSTORE POP POP PUSH1 0x1 DUP3 ADD DUP1 SLOAD SWAP1 PUSH1 0x0 PUSH2 0x6FD DUP4 PUSH2 0x18B9 JUMP JUMPDEST SWAP1 SWAP2 SSTORE POP POP PUSH1 0x1 DUP3 ADD SLOAD DUP3 SLOAD PUSH2 0x713 SWAP2 SWAP1 PUSH2 0x18D0 JUMP JUMPDEST PUSH1 0x2 DUP4 ADD SSTORE PUSH1 0x40 MLOAD PUSH4 0x21421707 PUSH1 0xE1 SHL DUP2 MSTORE PUSH1 0x1 PUSH1 0x1 PUSH1 0xA0 SHL SUB PUSH32 0x0 AND SWAP1 PUSH4 0x42842E0E SWAP1 PUSH2 0x768 SWAP1 ADDRESS SWAP1 CALLER SWAP1 DUP9 SWAP1 PUSH1 0x4 ADD PUSH2 0x1860 JUMP JUMPDEST PUSH1 0x0 PUSH1 0x40 MLOAD DUP1 DUP4 SUB DUP2 PUSH1 0x0 DUP8 DUP1 EXTCODESIZE ISZERO DUP1 ISZERO PUSH2 0x782 JUMPI PUSH1 0x0 DUP1 REVERT JUMPDEST POP GAS CALL ISZERO DUP1 ISZERO PUSH2 0x796 JUMPI RETURNDATASIZE PUSH1 0x0 DUP1 RETURNDATACOPY RETURNDATASIZE PUSH1 0x0 REVERT JUMPDEST POP POP PUSH1 0x40 DUP1 MLOAD DUP7 DUP2 MSTORE PUSH1 0x20 DUP2 ADD DUP6 SWAP1 MSTORE DUP8 SWAP4 POP CALLER SWAP3 POP PUSH32 0x8C68226ED6C7256CB4DC9D9D1D0D84141FFB9FF4CAC6CA9FA08DC46AD0A08936 SWAP2 ADD PUSH1 0x40 MLOAD DUP1 SWAP2 SUB SWAP1 LOG3 POP POP PUSH2 0x7E2 PUSH1 0x1 DUP1 SSTORE JUMP JUMPDEST POP POP JUMP JUMPDEST PUSH2 0x7EE PUSH2 0x14FF JUMP JUMPDEST PUSH2 0x7F8 PUSH1 0x0 PUSH2 0x152C JUMP JUMPDEST JUMP JUMPDEST PUSH2 0x802 PUSH2 0x14FF JUMP JUMPDEST PUSH1 0x0 DUP2 DUP2 MSTORE PUSH1 0x2 PUSH1 0x20 MSTORE PUSH1 0x40 SWAP1 KECCAK256 PUSH1 0x3 ADD SLOAD PUSH1 0xFF AND ISZERO PUSH2 0x85A JUMPI PUSH1 0x40 MLOAD PUSH3 0x461BCD PUSH1 0xE5 SHL DUP2 MSTORE PUSH1 0x20 PUSH1 0x4 DUP3 ADD MSTORE PUSH1 0x13 PUSH1 0x24 DUP3 ADD MSTORE PUSH19 0x506F6F6C20616C726561647920657869737473 PUSH1 0x68 SHL PUSH1 0x44 DUP3 ADD MSTORE PUSH1 0x64 ADD PUSH2 0x41B JUMP JUMPDEST PUSH1 0x0 DUP2 DUP2 MSTORE PUSH1 0x2 PUSH1 0x20 MSTORE PUSH1 0x40 DUP1 DUP3 KECCAK256 PUSH1 0x3 ADD DUP1 SLOAD PUSH1 0xFF NOT AND PUSH1 0x1 OR SWAP1 SSTORE MLOAD DUP3 SWAP2 PUSH32 0xFA88D81EAFFBF548E3FFC6C6458827CE9906AD714060746B80909CDF8D1D7EF7 SWAP2 LOG2 POP JUMP JUMPDEST PUSH1 0x0 DUP2 DUP2 MSTORE PUSH1 0x2 PUSH1 0x20 MSTORE PUSH1 0x40 DUP2 KECCAK256 PUSH1 0x3 DUP2 ADD SLOAD PUSH1 0xFF AND ISZERO DUP1 PUSH2 0x8C7 JUMPI POP PUSH1 0x0 NOT DUP2 PUSH1 0x1 ADD SLOAD EQ JUMPDEST ISZERO PUSH2 0x8D5 JUMPI POP PUSH1 0x0 SWAP3 SWAP2 POP POP JUMP JUMPDEST PUSH1 0x0 DUP2 PUSH1 0x1 ADD SLOAD PUSH1 0x1 PUSH2 0x8E8 SWAP2 SWAP1 PUSH2 0x18A6 JUMP JUMPDEST DUP3 PUSH1 0x2 ADD SLOAD PUSH2 0x8F7 SWAP2 SWAP1 PUSH2 0x1808 JUMP JUMPDEST DUP3 SLOAD SWAP1 SWAP2 POP PUSH2 0x39D SWAP1 DUP3 SWAP1 PUSH2 0x17EF JUMP JUMPDEST PUSH2 0x90F PUSH2 0x14FF JUMP JUMPDEST PUSH2 0x917 PUSH2 0x14D5 JUMP JUMPDEST PUSH1 0x0 DUP5 DUP2 MSTORE PUSH1 0x2 PUSH1 0x20 MSTORE PUSH1 0x40 SWAP1 KECCAK256 PUSH1 0x3 DUP2 ADD SLOAD PUSH1 0xFF AND PUSH2 0x970 JUMPI PUSH1 0x40 MLOAD PUSH3 0x461BCD PUSH1 0xE5 SHL DUP2 MSTORE PUSH1 0x20 PUSH1 0x4 DUP3 ADD MSTORE PUSH1 0x14 PUSH1 0x24 DUP3 ADD MSTORE PUSH20 0x141BDBDB081B9BDD081A5B9A5D1A585B1A5E9959 PUSH1 0x62 SHL PUSH1 0x44 DUP3 ADD MSTORE PUSH1 0x64 ADD PUSH2 0x41B JUMP JUMPDEST PUSH1 0x1 DUP2 ADD SLOAD ISZERO PUSH2 0x9C2 JUMPI PUSH1 0x40 MLOAD PUSH3 0x461BCD PUSH1 0xE5 SHL DUP2 MSTORE PUSH1 0x20 PUSH1 0x4 DUP3 ADD MSTORE PUSH1 0x17 PUSH1 0x24 DUP3 ADD MSTORE PUSH32 0x4C697175696469747920616C7265616479206164646564000000000000000000 PUSH1 0x44 DUP3 ADD MSTORE PUSH1 0x64 ADD PUSH2 0x41B JUMP JUMPDEST DUP3 ISZERO DUP1 ISZERO SWAP1 PUSH2 0x9D1 JUMPI POP PUSH1 0x0 DUP3 GT JUMPDEST PUSH2 0xA1D JUMPI PUSH1 0x40 MLOAD PUSH3 0x461BCD PUSH1 0xE5 SHL DUP2 MSTORE PUSH1 0x20 PUSH1 0x4 DUP3 ADD MSTORE PUSH1 0x19 PUSH1 0x24 DUP3 ADD MSTORE PUSH32 0x496E76616C696420696E697469616C206C697175696469747900000000000000 PUSH1 0x44 DUP3 ADD MSTORE PUSH1 0x64 ADD PUSH2 0x41B JUMP JUMPDEST PUSH1 0x0 JUMPDEST DUP4 DUP2 LT ISZERO PUSH2 0xACE JUMPI PUSH32 0x0 PUSH1 0x1 PUSH1 0x1 PUSH1 0xA0 SHL SUB AND PUSH4 0x42842E0E CALLER ADDRESS DUP9 DUP9 DUP7 DUP2 DUP2 LT PUSH2 0xA6B JUMPI PUSH2 0xA6B PUSH2 0x18E7 JUMP JUMPDEST SWAP1 POP PUSH1 0x20 MUL ADD CALLDATALOAD PUSH1 0x40 MLOAD DUP5 PUSH4 0xFFFFFFFF AND PUSH1 0xE0 SHL DUP2 MSTORE PUSH1 0x4 ADD PUSH2 0xA90 SWAP4 SWAP3 SWAP2 SWAP1 PUSH2 0x1860 JUMP JUMPDEST PUSH1 0x0 PUSH1 0x40 MLOAD DUP1 DUP4 SUB DUP2 PUSH1 0x0 DUP8 DUP1 EXTCODESIZE ISZERO DUP1 ISZERO PUSH2 0xAAA JUMPI PUSH1 0x0 DUP1 REVERT JUMPDEST POP GAS CALL ISZERO DUP1 ISZERO PUSH2 0xABE JUMPI RETURNDATASIZE PUSH1 0x0 DUP1 RETURNDATACOPY RETURNDATASIZE PUSH1 0x0 REVERT JUMPDEST POP POP PUSH1 0x1 SWAP1 SWAP3 ADD SWAP2 POP PUSH2 0xA20 SWAP1 POP JUMP JUMPDEST POP PUSH1 0x40 MLOAD PUSH4 0x23B872DD PUSH1 0xE0 SHL DUP2 MSTORE PUSH1 0x1 PUSH1 0x1 PUSH1 0xA0 SHL SUB PUSH32 0x0 AND SWAP1 PUSH4 0x23B872DD SWAP1 PUSH2 0xB1F SWAP1 CALLER SWAP1 ADDRESS SWAP1 DUP8 SWAP1 PUSH1 0x4 ADD PUSH2 0x1860 JUMP JUMPDEST PUSH1 0x20 PUSH1 0x40 MLOAD DUP1 DUP4 SUB DUP2 PUSH1 0x0 DUP8 GAS CALL ISZERO DUP1 ISZERO PUSH2 0xB3E JUMPI RETURNDATASIZE PUSH1 0x0 DUP1 RETURNDATACOPY RETURNDATASIZE PUSH1 0x0 REVERT JUMPDEST POP POP POP POP PUSH1 0x40 MLOAD RETURNDATASIZE PUSH1 0x1F NOT PUSH1 0x1F DUP3 ADD AND DUP3 ADD DUP1 PUSH1 0x40 MSTORE POP DUP2 ADD SWAP1 PUSH2 0xB62 SWAP2 SWAP1 PUSH2 0x1884 JUMP JUMPDEST PUSH2 0xBA4 JUMPI PUSH1 0x40 MLOAD PUSH3 0x461BCD PUSH1 0xE5 SHL DUP2 MSTORE PUSH1 0x20 PUSH1 0x4 DUP3 ADD MSTORE PUSH1 0x13 PUSH1 0x24 DUP3 ADD MSTORE PUSH19 0x1092D0C81D1C985B9CD9995C8819985A5B1959 PUSH1 0x6A SHL PUSH1 0x44 DUP3 ADD MSTORE PUSH1 0x64 ADD PUSH2 0x41B JUMP JUMPDEST PUSH1 0x1 DUP2 ADD DUP4 SWAP1 SSTORE DUP2 DUP2 SSTORE PUSH2 0xBB8 DUP3 DUP5 PUSH2 0x18D0 JUMP JUMPDEST PUSH1 0x2 DUP3 ADD SSTORE PUSH1 0x1 DUP2 ADD SLOAD DUP2 SLOAD PUSH1 0x40 MLOAD DUP8 SWAP3 PUSH32 0xD7F28048575EEAD8851D024EAD087913957DFB4FD1A02B4D1573F5352A5A2BE3 SWAP3 PUSH2 0xBFD SWAP3 SWAP2 DUP3 MSTORE PUSH1 0x20 DUP3 ADD MSTORE PUSH1 0x40 ADD SWAP1 JUMP JUMPDEST PUSH1 0x40 MLOAD DUP1 SWAP2 SUB SWAP1 LOG2 POP PUSH2 0xC0F PUSH1 0x1 DUP1 SSTORE JUMP JUMPDEST POP POP POP POP JUMP JUMPDEST PUSH2 0xC1D PUSH2 0x14FF JUMP JUMPDEST PUSH2 0xC25 PUSH2 0x14D5 JUMP JUMPDEST PUSH1 0x0 DUP4 DUP2 MSTORE PUSH1 0x2 PUSH1 0x20 MSTORE PUSH1 0x40 SWAP1 KECCAK256 PUSH1 0x3 DUP2 ADD SLOAD PUSH1 0xFF AND DUP1 ISZERO PUSH2 0xC4B JUMPI POP PUSH1 0x0 DUP2 PUSH1 0x1 ADD SLOAD GT JUMPDEST PUSH2 0xCA7 JUMPI PUSH1 0x40 MLOAD PUSH3 0x461BCD PUSH1 0xE5 SHL DUP2 MSTORE PUSH1 0x20 PUSH1 0x4 DUP3 ADD MSTORE PUSH1 0x27 PUSH1 0x24 DUP3 ADD MSTORE PUSH32 0x506F6F6C206E6F7420696E697469616C697A65642077697468206C6971756964 PUSH1 0x44 DUP3 ADD MSTORE PUSH7 0x1A5D1E481E595D PUSH1 0xCA SHL PUSH1 0x64 DUP3 ADD MSTORE PUSH1 0x84 ADD PUSH2 0x41B JUMP JUMPDEST DUP2 PUSH2 0xCF4 JUMPI PUSH1 0x40 MLOAD PUSH3 0x461BCD PUSH1 0xE5 SHL DUP2 MSTORE PUSH1 0x20 PUSH1 0x4 DUP3 ADD MSTORE PUSH1 0x1F PUSH1 0x24 DUP3 ADD MSTORE PUSH32 0x546F6B656E204944732061727261792063616E6E6F7420626520656D70747900 PUSH1 0x44 DUP3 ADD MSTORE PUSH1 0x64 ADD PUSH2 0x41B JUMP JUMPDEST PUSH1 0x0 JUMPDEST DUP3 DUP2 LT ISZERO PUSH2 0xDA5 JUMPI PUSH32 0x0 PUSH1 0x1 PUSH1 0x1 PUSH1 0xA0 SHL SUB AND PUSH4 0x42842E0E CALLER ADDRESS DUP8 DUP8 DUP7 DUP2 DUP2 LT PUSH2 0xD42 JUMPI PUSH2 0xD42 PUSH2 0x18E7 JUMP JUMPDEST SWAP1 POP PUSH1 0x20 MUL ADD CALLDATALOAD PUSH1 0x40 MLOAD DUP5 PUSH4 0xFFFFFFFF AND PUSH1 0xE0 SHL DUP2 MSTORE PUSH1 0x4 ADD PUSH2 0xD67 SWAP4 SWAP3 SWAP2 SWAP1 PUSH2 0x1860 JUMP JUMPDEST PUSH1 0x0 PUSH1 0x40 MLOAD DUP1 DUP4 SUB DUP2 PUSH1 0x0 DUP8 DUP1 EXTCODESIZE ISZERO DUP1 ISZERO PUSH2 0xD81 JUMPI PUSH1 0x0 DUP1 REVERT JUMPDEST POP GAS CALL ISZERO DUP1 ISZERO PUSH2 0xD95 JUMPI RETURNDATASIZE PUSH1 0x0 DUP1 RETURNDATACOPY RETURNDATASIZE PUSH1 0x0 REVERT JUMPDEST POP POP PUSH1 0x1 SWAP1 SWAP3 ADD SWAP2 POP PUSH2 0xCF7 SWAP1 POP JUMP JUMPDEST POP DUP3 DUP3 SWAP1 POP DUP2 PUSH1 0x1 ADD PUSH1 0x0 DUP3 DUP3 SLOAD PUSH2 0xDBD SWAP2 SWAP1 PUSH2 0x18A6 JUMP JUMPDEST SWAP1 SWAP2 SSTORE POP POP DUP1 SLOAD PUSH1 0x1 DUP3 ADD SLOAD PUSH2 0xDD3 SWAP2 SWAP1 PUSH2 0x18D0 JUMP JUMPDEST PUSH1 0x2 DUP3 ADD SSTORE PUSH1 0x40 MLOAD DUP3 DUP2 MSTORE DUP5 SWAP1 PUSH32 0x858A207C492E6A9B397E43DA12BE8CC88DC78945A357FBD7AC3593460AD1E4E4 SWAP1 PUSH1 0x20 ADD PUSH1 0x40 MLOAD DUP1 SWAP2 SUB SWAP1 LOG2 POP PUSH2 0xE17 PUSH1 0x1 DUP1 SSTORE JUMP JUMPDEST POP POP POP JUMP JUMPDEST PUSH2 0xE24 PUSH2 0x14D5 JUMP JUMPDEST PUSH1 0x40 MLOAD PUSH4 0x31A9108F PUSH1 0xE1 SHL DUP2 MSTORE PUSH1 0x4 DUP2 ADD DUP3 SWAP1 MSTORE CALLER SWAP1 PUSH1 0x1 PUSH1 0x1 PUSH1 0xA0 SHL SUB PUSH32 0x0 AND SWAP1 PUSH4 0x6352211E SWAP1 PUSH1 0x24 ADD PUSH1 0x20 PUSH1 0x40 MLOAD DUP1 DUP4 SUB DUP2 DUP7 GAS STATICCALL ISZERO DUP1 ISZERO PUSH2 0xE8B JUMPI RETURNDATASIZE PUSH1 0x0 DUP1 RETURNDATACOPY RETURNDATASIZE PUSH1 0x0 REVERT JUMPDEST POP POP POP POP PUSH1 0x40 MLOAD RETURNDATASIZE PUSH1 0x1F NOT PUSH1 0x1F DUP3 ADD AND DUP3 ADD DUP1 PUSH1 0x40 MSTORE POP DUP2 ADD SWAP1 PUSH2 0xEAF SWAP2 SWAP1 PUSH2 0x182A JUMP JUMPDEST PUSH1 0x1 PUSH1 0x1 PUSH1 0xA0 SHL SUB AND EQ PUSH2 0xEF5 JUMPI PUSH1 0x40 MLOAD PUSH3 0x461BCD PUSH1 0xE5 SHL DUP2 MSTORE PUSH1 0x20 PUSH1 0x4 DUP3 ADD MSTORE PUSH1 0xD PUSH1 0x24 DUP3 ADD MSTORE PUSH13 0x2737BA103A34329037BBB732B9 PUSH1 0x99 SHL PUSH1 0x44 DUP3 ADD MSTORE PUSH1 0x64 ADD PUSH2 0x41B JUMP JUMPDEST PUSH1 0x40 MLOAD PUSH4 0x70922E5 PUSH1 0xE5 SHL DUP2 MSTORE PUSH1 0x4 DUP2 ADD DUP3 SWAP1 MSTORE PUSH1 0x0 SWAP1 PUSH32 0x0 PUSH1 0x1 PUSH1 0x1 PUSH1 0xA0 SHL SUB AND SWAP1 PUSH4 0xE1245CA0 SWAP1 PUSH1 0x24 ADD PUSH1 0x20 PUSH1 0x40 MLOAD DUP1 DUP4 SUB DUP2 DUP7 GAS STATICCALL ISZERO DUP1 ISZERO PUSH2 0xF5D JUMPI RETURNDATASIZE PUSH1 0x0 DUP1 RETURNDATACOPY RETURNDATASIZE PUSH1 0x0 REVERT JUMPDEST POP POP POP POP PUSH1 0x40 MLOAD RETURNDATASIZE PUSH1 0x1F NOT PUSH1 0x1F DUP3 ADD AND DUP3 ADD DUP1 PUSH1 0x40 MSTORE POP DUP2 ADD SWAP1 PUSH2 0xF81 SWAP2 SWAP1 PUSH2 0x1847 JUMP JUMPDEST SWAP1 POP PUSH1 0x0 DUP2 GT PUSH2 0xFD3 JUMPI PUSH1 0x40 MLOAD PUSH3 0x461BCD PUSH1 0xE5 SHL DUP2 MSTORE PUSH1 0x20 PUSH1 0x4 DUP3 ADD MSTORE PUSH1 0x17 PUSH1 0x24 DUP3 ADD MSTORE PUSH32 0x4E6F7420612076616C696420426F6F73746572204E4654000000000000000000 PUSH1 0x44 DUP3 ADD MSTORE PUSH1 0x64 ADD PUSH2 0x41B JUMP JUMPDEST PUSH1 0x0 DUP2 DUP2 MSTORE PUSH1 0x2 PUSH1 0x20 MSTORE PUSH1 0x40 SWAP1 KECCAK256 PUSH1 0x3 DUP2 ADD SLOAD PUSH1 0xFF AND PUSH2 0x103F JUMPI PUSH1 0x40 MLOAD PUSH3 0x461BCD PUSH1 0xE5 SHL DUP2 MSTORE PUSH1 0x20 PUSH1 0x4 DUP3 ADD MSTORE PUSH1 0x21 PUSH1 0x24 DUP3 ADD MSTORE PUSH32 0x506F6F6C20646F6573206E6F7420657869737420666F72207468697320746965 PUSH1 0x44 DUP3 ADD MSTORE PUSH1 0x39 PUSH1 0xF9 SHL PUSH1 0x64 DUP3 ADD MSTORE PUSH1 0x84 ADD PUSH2 0x41B JUMP JUMPDEST PUSH1 0x0 PUSH2 0x104A DUP4 PUSH2 0x8A0 JUMP JUMPDEST SWAP1 POP DUP1 DUP3 PUSH1 0x0 ADD SLOAD LT ISZERO PUSH2 0x10A0 JUMPI PUSH1 0x40 MLOAD PUSH3 0x461BCD PUSH1 0xE5 SHL DUP2 MSTORE PUSH1 0x20 PUSH1 0x4 DUP3 ADD MSTORE PUSH1 0x1F PUSH1 0x24 DUP3 ADD MSTORE PUSH32 0x506F6F6C2068617320696E73756666696369656E74206C697175696469747900 PUSH1 0x44 DUP3 ADD MSTORE PUSH1 0x64 ADD PUSH2 0x41B JUMP JUMPDEST PUSH1 0x0 PUSH2 0x2710 PUSH2 0x10B1 PUSH2 0x4B0 DUP5 PUSH2 0x18D0 JUMP JUMPDEST PUSH2 0x10BB SWAP2 SWAP1 PUSH2 0x1808 JUMP JUMPDEST SWAP1 POP PUSH1 0x0 PUSH2 0x10CA PUSH1 0x3 DUP4 PUSH2 0x1808 JUMP JUMPDEST SWAP1 POP PUSH1 0x0 PUSH2 0x10D8 DUP4 DUP6 PUSH2 0x17EF JUMP JUMPDEST PUSH1 0x40 MLOAD PUSH4 0x21421707 PUSH1 0xE1 SHL DUP2 MSTORE SWAP1 SWAP2 POP PUSH1 0x1 PUSH1 0x1 PUSH1 0xA0 SHL SUB PUSH32 0x0 AND SWAP1 PUSH4 0x42842E0E SWAP1 PUSH2 0x112B SWAP1 CALLER SWAP1 ADDRESS SWAP1 DUP13 SWAP1 PUSH1 0x4 ADD PUSH2 0x1860 JUMP JUMPDEST PUSH1 0x0 PUSH1 0x40 MLOAD DUP1 DUP4 SUB DUP2 PUSH1 0x0 DUP8 DUP1 EXTCODESIZE ISZERO DUP1 ISZERO PUSH2 0x1145 JUMPI PUSH1 0x0 DUP1 REVERT JUMPDEST POP GAS CALL ISZERO DUP1 ISZERO PUSH2 0x1159 JUMPI RETURNDATASIZE PUSH1 0x0 DUP1 RETURNDATACOPY RETURNDATASIZE PUSH1 0x0 REVERT JUMPDEST POP POP POP POP PUSH1 0x0 DUP2 GT ISZERO PUSH2 0x11F9 JUMPI PUSH1 0x40 MLOAD PUSH4 0xA9059CBB PUSH1 0xE0 SHL DUP2 MSTORE CALLER PUSH1 0x4 DUP3 ADD MSTORE PUSH1 0x24 DUP2 ADD DUP3 SWAP1 MSTORE PUSH32 0x0 PUSH1 0x1 PUSH1 0x1 PUSH1 0xA0 SHL SUB AND SWAP1 PUSH4 0xA9059CBB SWAP1 PUSH1 0x44 ADD PUSH1 0x20 PUSH1 0x40 MLOAD DUP1 DUP4 SUB DUP2 PUSH1 0x0 DUP8 GAS CALL ISZERO DUP1 ISZERO PUSH2 0x11D3 JUMPI RETURNDATASIZE PUSH1 0x0 DUP1 RETURNDATACOPY RETURNDATASIZE PUSH1 0x0 REVERT JUMPDEST POP POP POP POP PUSH1 0x40 MLOAD RETURNDATASIZE PUSH1 0x1F NOT PUSH1 0x1F DUP3 ADD AND DUP3 ADD DUP1 PUSH1 0x40 MSTORE POP DUP2 ADD SWAP1 PUSH2 0x11F7 SWAP2 SWAP1 PUSH2 0x1884 JUMP JUMPDEST POP JUMPDEST DUP2 ISZERO PUSH2 0x13E9 JUMPI PUSH1 0x40 MLOAD PUSH4 0xA9059CBB PUSH1 0xE0 SHL DUP2 MSTORE PUSH1 0x1 PUSH1 0x1 PUSH1 0xA0 SHL SUB PUSH32 0x0 DUP2 AND PUSH1 0x4 DUP4 ADD MSTORE PUSH1 0x24 DUP3 ADD DUP5 SWAP1 MSTORE PUSH32 0x0 AND SWAP1 PUSH4 0xA9059CBB SWAP1 PUSH1 0x44 ADD PUSH1 0x20 PUSH1 0x40 MLOAD DUP1 DUP4 SUB DUP2 PUSH1 0x0 DUP8 GAS CALL ISZERO DUP1 ISZERO PUSH2 0x128E JUMPI RETURNDATASIZE PUSH1 0x0 DUP1 RETURNDATACOPY RETURNDATASIZE PUSH1 0x0 REVERT JUMPDEST POP POP POP POP PUSH1 0x40 MLOAD RETURNDATASIZE PUSH1 0x1F NOT PUSH1 0x1F DUP3 ADD AND DUP3 ADD DUP1 PUSH1 0x40 MSTORE POP DUP2 ADD SWAP1 PUSH2 0x12B2 SWAP2 SWAP1 PUSH2 0x1884 JUMP JUMPDEST POP PUSH1 0x40 MLOAD PUSH4 0x95EA7B3 PUSH1 0xE0 SHL DUP2 MSTORE PUSH1 0x1 PUSH1 0x1 PUSH1 0xA0 SHL SUB PUSH32 0x0 DUP2 AND PUSH1 0x4 DUP4 ADD MSTORE PUSH1 0x24 DUP3 ADD DUP5 SWAP1 MSTORE PUSH32 0x0 AND SWAP1 PUSH4 0x95EA7B3 SWAP1 PUSH1 0x44 ADD PUSH1 0x20 PUSH1 0x40 MLOAD DUP1 DUP4 SUB DUP2 PUSH1 0x0 DUP8 GAS CALL ISZERO DUP1 ISZERO PUSH2 0x1342 JUMPI RETURNDATASIZE PUSH1 0x0 DUP1 RETURNDATACOPY RETURNDATASIZE PUSH1 0x0 REVERT JUMPDEST POP POP POP POP PUSH1 0x40 MLOAD RETURNDATASIZE PUSH1 0x1F NOT PUSH1 0x1F DUP3 ADD AND DUP3 ADD DUP1 PUSH1 0x40 MSTORE POP DUP2 ADD SWAP1 PUSH2 0x1366 SWAP2 SWAP1 PUSH2 0x1884 JUMP JUMPDEST POP PUSH1 0x40 MLOAD PUSH4 0xBDD071FB PUSH1 0xE0 SHL DUP2 MSTORE PUSH1 0x0 PUSH1 0x4 DUP3 ADD MSTORE PUSH1 0x24 DUP2 ADD DUP4 SWAP1 MSTORE PUSH32 0x0 PUSH1 0x1 PUSH1 0x1 PUSH1 0xA0 SHL SUB AND SWAP1 PUSH4 0xBDD071FB SWAP1 PUSH1 0x44 ADD PUSH1 0x0 PUSH1 0x40 MLOAD DUP1 DUP4 SUB DUP2 PUSH1 0x0 DUP8 DUP1 EXTCODESIZE ISZERO DUP1 ISZERO PUSH2 0x13D0 JUMPI PUSH1 0x0 DUP1 REVERT JUMPDEST POP GAS CALL ISZERO DUP1 ISZERO PUSH2 0x13E4 JUMPI RETURNDATASIZE PUSH1 0x0 DUP1 RETURNDATACOPY RETURNDATASIZE PUSH1 0x0 REVERT JUMPDEST POP POP POP POP JUMPDEST PUSH2 0x13F4 DUP3 PUSH1 0x2 PUSH2 0x18D0 JUMP JUMPDEST PUSH2 0x13FE SWAP1 DUP3 PUSH2 0x18A6 JUMP JUMPDEST DUP6 PUSH1 0x0 ADD PUSH1 0x0 DUP3 DUP3 SLOAD PUSH2 0x1411 SWAP2 SWAP1 PUSH2 0x17EF JUMP JUMPDEST SWAP1 SWAP2 SSTORE POP POP PUSH1 0x1 DUP6 ADD DUP1 SLOAD SWAP1 PUSH1 0x0 PUSH2 0x1428 DUP4 PUSH2 0x18FD JUMP JUMPDEST SWAP1 SWAP2 SSTORE POP POP PUSH1 0x1 DUP6 ADD SLOAD DUP6 SLOAD PUSH2 0x143E SWAP2 SWAP1 PUSH2 0x18D0 JUMP JUMPDEST PUSH1 0x2 DUP7 ADD SSTORE PUSH1 0x40 DUP1 MLOAD DUP9 DUP2 MSTORE PUSH1 0x20 DUP2 ADD DUP4 SWAP1 MSTORE SWAP1 DUP2 ADD DUP5 SWAP1 MSTORE DUP7 SWAP1 CALLER SWAP1 PUSH32 0x44BDA66DAB9320F5157FA343D54F000327D61B11C425FF01E2E871039E572D4B SWAP1 PUSH1 0x60 ADD PUSH1 0x40 MLOAD DUP1 SWAP2 SUB SWAP1 LOG3 POP POP POP POP POP POP PUSH2 0x1497 PUSH1 0x1 DUP1 SSTORE JUMP JUMPDEST POP JUMP JUMPDEST PUSH2 0x14A2 PUSH2 0x14FF JUMP JUMPDEST PUSH1 0x1 PUSH1 0x1 PUSH1 0xA0 SHL SUB DUP2 AND PUSH2 0x14CC JUMPI PUSH1 0x40 MLOAD PUSH4 0x1E4FBDF7 PUSH1 0xE0 SHL DUP2 MSTORE PUSH1 0x0 PUSH1 0x4 DUP3 ADD MSTORE PUSH1 0x24 ADD PUSH2 0x41B JUMP JUMPDEST PUSH2 0x1497 DUP2 PUSH2 0x152C JUMP JUMPDEST PUSH1 0x2 PUSH1 0x1 SLOAD SUB PUSH2 0x14F8 JUMPI PUSH1 0x40 MLOAD PUSH4 0x3EE5AEB5 PUSH1 0xE0 SHL DUP2 MSTORE PUSH1 0x4 ADD PUSH1 0x40 MLOAD DUP1 SWAP2 SUB SWAP1 REVERT JUMPDEST PUSH1 0x2 PUSH1 0x1 SSTORE JUMP JUMPDEST PUSH1 0x0 SLOAD PUSH1 0x1 PUSH1 0x1 PUSH1 0xA0 SHL SUB AND CALLER EQ PUSH2 0x7F8 JUMPI PUSH1 0x40 MLOAD PUSH4 0x118CDAA7 PUSH1 0xE0 SHL DUP2 MSTORE CALLER PUSH1 0x4 DUP3 ADD MSTORE PUSH1 0x24 ADD PUSH2 0x41B JUMP JUMPDEST PUSH1 0x0 DUP1 SLOAD PUSH1 0x1 PUSH1 0x1 PUSH1 0xA0 SHL SUB DUP4 DUP2 AND PUSH1 0x1 PUSH1 0x1 PUSH1 0xA0 SHL SUB NOT DUP4 AND DUP2 OR DUP5 SSTORE PUSH1 0x40 MLOAD SWAP2 SWAP1 SWAP3 AND SWAP3 DUP4 SWAP2 PUSH32 0x8BE0079C531659141344CD1FD0A4F28419497F9722A3DAAFE3B4186F6B6457E0 SWAP2 SWAP1 LOG3 POP POP JUMP JUMPDEST PUSH1 0x0 PUSH1 0x20 DUP3 DUP5 SUB SLT ISZERO PUSH2 0x158E JUMPI PUSH1 0x0 DUP1 REVERT JUMPDEST POP CALLDATALOAD SWAP2 SWAP1 POP JUMP JUMPDEST PUSH1 0x1 PUSH1 0x1 PUSH1 0xA0 SHL SUB DUP2 AND DUP2 EQ PUSH2 0x1497 JUMPI PUSH1 0x0 DUP1 REVERT JUMPDEST PUSH4 0x4E487B71 PUSH1 0xE0 SHL PUSH1 0x0 MSTORE PUSH1 0x41 PUSH1 0x4 MSTORE PUSH1 0x24 PUSH1 0x0 REVERT JUMPDEST PUSH1 0x0 DUP1 PUSH1 0x0 DUP1 PUSH1 0x80 DUP6 DUP8 SUB SLT ISZERO PUSH2 0x15D6 JUMPI PUSH1 0x0 DUP1 REVERT JUMPDEST DUP5 CALLDATALOAD PUSH2 0x15E1 DUP2 PUSH2 0x1595 JUMP JUMPDEST SWAP4 POP PUSH1 0x20 DUP6 ADD CALLDATALOAD PUSH2 0x15F1 DUP2 PUSH2 0x1595 JUMP JUMPDEST SWAP3 POP PUSH1 0x40 DUP6 ADD CALLDATALOAD SWAP2 POP PUSH1 0x60 DUP6 ADD CALLDATALOAD PUSH8 0xFFFFFFFFFFFFFFFF DUP2 GT ISZERO PUSH2 0x1614 JUMPI PUSH1 0x0 DUP1 REVERT JUMPDEST DUP6 ADD PUSH1 0x1F DUP2 ADD DUP8 SGT PUSH2 0x1625 JUMPI PUSH1 0x0 DUP1 REVERT JUMPDEST DUP1 CALLDATALOAD PUSH8 0xFFFFFFFFFFFFFFFF DUP2 GT ISZERO PUSH2 0x163F JUMPI PUSH2 0x163F PUSH2 0x15AA JUMP JUMPDEST PUSH1 0x40 MLOAD PUSH1 0x1F DUP3 ADD PUSH1 0x1F NOT SWAP1 DUP2 AND PUSH1 0x3F ADD AND DUP2 ADD PUSH8 0xFFFFFFFFFFFFFFFF DUP2 GT DUP3 DUP3 LT OR ISZERO PUSH2 0x166E JUMPI PUSH2 0x166E PUSH2 0x15AA JUMP JUMPDEST PUSH1 0x40 MSTORE DUP2 DUP2 MSTORE DUP3 DUP3 ADD PUSH1 0x20 ADD DUP10 LT ISZERO PUSH2 0x1686 JUMPI PUSH1 0x0 DUP1 REVERT JUMPDEST DUP2 PUSH1 0x20 DUP5 ADD PUSH1 0x20 DUP4 ADD CALLDATACOPY PUSH1 0x0 PUSH1 0x20 DUP4 DUP4 ADD ADD MSTORE DUP1 SWAP4 POP POP POP POP SWAP3 SWAP6 SWAP2 SWAP5 POP SWAP3 POP JUMP JUMPDEST PUSH1 0x0 DUP1 PUSH1 0x40 DUP4 DUP6 SUB SLT ISZERO PUSH2 0x16BB JUMPI PUSH1 0x0 DUP1 REVERT JUMPDEST POP POP DUP1 CALLDATALOAD SWAP3 PUSH1 0x20 SWAP1 SWAP2 ADD CALLDATALOAD SWAP2 POP JUMP JUMPDEST PUSH1 0x0 DUP1 DUP4 PUSH1 0x1F DUP5 ADD SLT PUSH2 0x16DC JUMPI PUSH1 0x0 DUP1 REVERT JUMPDEST POP DUP2 CALLDATALOAD PUSH8 0xFFFFFFFFFFFFFFFF DUP2 GT ISZERO PUSH2 0x16F4 JUMPI PUSH1 0x0 DUP1 REVERT JUMPDEST PUSH1 0x20 DUP4 ADD SWAP2 POP DUP4 PUSH1 0x20 DUP3 PUSH1 0x5 SHL DUP6 ADD ADD GT ISZERO PUSH2 0x170F JUMPI PUSH1 0x0 DUP1 REVERT JUMPDEST SWAP3 POP SWAP3 SWAP1 POP JUMP JUMPDEST PUSH1 0x0 DUP1 PUSH1 0x0 DUP1 PUSH1 0x60 DUP6 DUP8 SUB SLT ISZERO PUSH2 0x172C JUMPI PUSH1 0x0 DUP1 REVERT JUMPDEST DUP5 CALLDATALOAD SWAP4 POP PUSH1 0x20 DUP6 ADD CALLDATALOAD PUSH8 0xFFFFFFFFFFFFFFFF DUP2 GT ISZERO PUSH2 0x174A JUMPI PUSH1 0x0 DUP1 REVERT JUMPDEST PUSH2 0x1756 DUP8 DUP3 DUP9 ADD PUSH2 0x16CA JUMP JUMPDEST SWAP6 SWAP9 SWAP1 SWAP8 POP SWAP5 SWAP6 PUSH1 0x40 ADD CALLDATALOAD SWAP5 SWAP4 POP POP POP POP JUMP JUMPDEST PUSH1 0x0 DUP1 PUSH1 0x0 PUSH1 0x40 DUP5 DUP7 SUB SLT ISZERO PUSH2 0x177E JUMPI PUSH1 0x0 DUP1 REVERT JUMPDEST DUP4 CALLDATALOAD SWAP3 POP PUSH1 0x20 DUP5 ADD CALLDATALOAD PUSH8 0xFFFFFFFFFFFFFFFF DUP2 GT ISZERO PUSH2 0x179C JUMPI PUSH1 0x0 DUP1 REVERT JUMPDEST PUSH2 0x17A8 DUP7 DUP3 DUP8 ADD PUSH2 0x16CA JUMP JUMPDEST SWAP5 SWAP8 SWAP1 SWAP7 POP SWAP4 SWAP5 POP POP POP POP JUMP JUMPDEST PUSH1 0x0 PUSH1 0x20 DUP3 DUP5 SUB SLT ISZERO PUSH2 0x17C7 JUMPI PUSH1 0x0 DUP1 REVERT JUMPDEST DUP2 CALLDATALOAD PUSH2 0x17D2 DUP2 PUSH2 0x1595 JUMP JUMPDEST SWAP4 SWAP3 POP POP POP JUMP JUMPDEST PUSH4 0x4E487B71 PUSH1 0xE0 SHL PUSH1 0x0 MSTORE PUSH1 0x11 PUSH1 0x4 MSTORE PUSH1 0x24 PUSH1 0x0 REVERT JUMPDEST DUP2 DUP2 SUB DUP2 DUP2 GT ISZERO PUSH2 0x1802 JUMPI PUSH2 0x1802 PUSH2 0x17D9 JUMP JUMPDEST SWAP3 SWAP2 POP POP JUMP JUMPDEST PUSH1 0x0 DUP3 PUSH2 0x1825 JUMPI PUSH4 0x4E487B71 PUSH1 0xE0 SHL PUSH1 0x0 MSTORE PUSH1 0x12 PUSH1 0x4 MSTORE PUSH1 0x24 PUSH1 0x0 REVERT JUMPDEST POP DIV SWAP1 JUMP JUMPDEST PUSH1 0x0 PUSH1 0x20 DUP3 DUP5 SUB SLT ISZERO PUSH2 0x183C JUMPI PUSH1 0x0 DUP1 REVERT JUMPDEST DUP2 MLOAD PUSH2 0x17D2 DUP2 PUSH2 0x1595 JUMP JUMPDEST PUSH1 0x0 PUSH1 0x20 DUP3 DUP5 SUB SLT ISZERO PUSH2 0x1859 JUMPI PUSH1 0x0 DUP1 REVERT JUMPDEST POP MLOAD SWAP2 SWAP1 POP JUMP JUMPDEST PUSH1 0x1 PUSH1 0x1 PUSH1 0xA0 SHL SUB SWAP4 DUP5 AND DUP2 MSTORE SWAP2 SWAP1 SWAP3 AND PUSH1 0x20 DUP3 ADD MSTORE PUSH1 0x40 DUP2 ADD SWAP2 SWAP1 SWAP2 MSTORE PUSH1 0x60 ADD SWAP1 JUMP JUMPDEST PUSH1 0x0 PUSH1 0x20 DUP3 DUP5 SUB SLT ISZERO PUSH2 0x1896 JUMPI PUSH1 0x0 DUP1 REVERT JUMPDEST DUP2 MLOAD DUP1 ISZERO ISZERO DUP2 EQ PUSH2 0x17D2 JUMPI PUSH1 0x0 DUP1 REVERT JUMPDEST DUP1 DUP3 ADD DUP1 DUP3 GT ISZERO PUSH2 0x1802 JUMPI PUSH2 0x1802 PUSH2 0x17D9 JUMP JUMPDEST PUSH1 0x0 DUP2 PUSH2 0x18C8 JUMPI PUSH2 0x18C8 PUSH2 0x17D9 JUMP JUMPDEST POP PUSH1 0x0 NOT ADD SWAP1 JUMP JUMPDEST DUP1 DUP3 MUL DUP2 ISZERO DUP3 DUP3 DIV DUP5 EQ OR PUSH2 0x1802 JUMPI PUSH2 0x1802 PUSH2 0x17D9 JUMP JUMPDEST PUSH4 0x4E487B71 PUSH1 0xE0 SHL PUSH1 0x0 MSTORE PUSH1 0x32 PUSH1 0x4 MSTORE PUSH1 0x24 PUSH1 0x0 REVERT JUMPDEST PUSH1 0x0 PUSH1 0x1 DUP3 ADD PUSH2 0x190F JUMPI PUSH2 0x190F PUSH2 0x17D9 JUMP JUMPDEST POP PUSH1 0x1 ADD SWAP1 JUMP INVALID LOG2 PUSH5 0x6970667358 0x22 SLT KECCAK256 0xB1 PUSH27 0x8EC5362E0C416B07C20481A5EDEE2D55A3FA4A5D3EA9B0137A69CD 0xEE 0xD1 MUL PUSH5 0x736F6C6343 STOP ADDMOD SHR STOP CALLER "},"methodIdentifiers":{"FEE_SPLIT_DIVISOR()":"1acbf989","SELL_FEE_BIPS()":"02fd99fd","addInitialLiquidity(uint256,uint256[],uint256)":"df999c47","addMoreNFTsToPool(uint256,uint256[])":"e07bd266","bkcToken()":"2402ff97","buyNFT(uint256,uint256)":"1d85bf03","createPool(uint256)":"8259e6a0","delegationManager()":"ea4d3c9b","getBuyPrice(uint256)":"08d4db14","getSellPrice(uint256)":"ba730e53","onERC721Received(address,address,uint256,bytes)":"150b7a02","owner()":"8da5cb5b","pools(uint256)":"ac4afa38","renounceOwnership()":"715018a6","rewardBoosterNFT()":"ffa5c81f","sellNFT(uint256)":"ee9cdfb3","transferOwnership(address)":"f2fde38b","treasuryWallet()":"4626402b"}}}}}