{"contracts/DelegationManager.sol":{"DelegationManager":{"abi":[{"inputs":[{"internalType":"address","name":"_bkcTokenAddress","type":"address"},{"internalType":"address","name":"_initialOwner","type":"address"},{"internalType":"address","name":"_treasuryWallet","type":"address"}],"stateMutability":"nonpayable","type":"constructor"},{"inputs":[{"internalType":"address","name":"owner","type":"address"}],"name":"OwnableInvalidOwner","type":"error"},{"inputs":[{"internalType":"address","name":"account","type":"address"}],"name":"OwnableUnauthorizedAccount","type":"error"},{"inputs":[],"name":"ReentrancyGuardReentrantCall","type":"error"},{"anonymous":false,"inputs":[{"indexed":true,"internalType":"address","name":"user","type":"address"},{"indexed":true,"internalType":"address","name":"validator","type":"address"},{"indexed":false,"internalType":"uint256","name":"delegationIndex","type":"uint256"},{"indexed":false,"internalType":"uint256","name":"amount","type":"uint256"},{"indexed":false,"internalType":"uint256","name":"feePaid","type":"uint256"}],"name":"Delegated","type":"event"},{"anonymous":false,"inputs":[{"indexed":true,"internalType":"address","name":"delegator","type":"address"},{"indexed":false,"internalType":"uint256","name":"amount","type":"uint256"}],"name":"DelegatorRewardClaimed","type":"event"},{"anonymous":false,"inputs":[{"indexed":true,"internalType":"address","name":"previousOwner","type":"address"},{"indexed":true,"internalType":"address","name":"newOwner","type":"address"}],"name":"OwnershipTransferred","type":"event"},{"anonymous":false,"inputs":[{"indexed":true,"internalType":"address","name":"from","type":"address"},{"indexed":false,"internalType":"uint256","name":"validatorAmount","type":"uint256"},{"indexed":false,"internalType":"uint256","name":"delegatorAmount","type":"uint256"}],"name":"RewardsDeposited","type":"event"},{"anonymous":false,"inputs":[{"indexed":true,"internalType":"address","name":"user","type":"address"},{"indexed":false,"internalType":"uint256","name":"delegationIndex","type":"uint256"},{"indexed":false,"internalType":"uint256","name":"amount","type":"uint256"},{"indexed":false,"internalType":"uint256","name":"feePaid","type":"uint256"}],"name":"Unstaked","type":"event"},{"anonymous":false,"inputs":[{"indexed":true,"internalType":"address","name":"validator","type":"address"},{"indexed":false,"internalType":"uint256","name":"selfStake","type":"uint256"}],"name":"ValidatorRegistered","type":"event"},{"anonymous":false,"inputs":[{"indexed":true,"internalType":"address","name":"validator","type":"address"},{"indexed":false,"internalType":"uint256","name":"amount","type":"uint256"}],"name":"ValidatorRewardClaimed","type":"event"},{"inputs":[],"name":"DELEGATION_FEE_BIPS","outputs":[{"internalType":"uint256","name":"","type":"uint256"}],"stateMutability":"view","type":"function"},{"inputs":[],"name":"FORCE_UNSTAKE_PENALTY_BIPS","outputs":[{"internalType":"uint256","name":"","type":"uint256"}],"stateMutability":"view","type":"function"},{"inputs":[],"name":"MAX_LOCK_DURATION","outputs":[{"internalType":"uint256","name":"","type":"uint256"}],"stateMutability":"view","type":"function"},{"inputs":[],"name":"MAX_SUPPLY","outputs":[{"internalType":"uint256","name":"","type":"uint256"}],"stateMutability":"view","type":"function"},{"inputs":[],"name":"MINT_POOL","outputs":[{"internalType":"uint256","name":"","type":"uint256"}],"stateMutability":"view","type":"function"},{"inputs":[],"name":"MIN_LOCK_DURATION","outputs":[{"internalType":"uint256","name":"","type":"uint256"}],"stateMutability":"view","type":"function"},{"inputs":[],"name":"ONTIME_UNSTAKE_FEE_BIPS","outputs":[{"internalType":"uint256","name":"","type":"uint256"}],"stateMutability":"view","type":"function"},{"inputs":[],"name":"TGE_SUPPLY","outputs":[{"internalType":"uint256","name":"","type":"uint256"}],"stateMutability":"view","type":"function"},{"inputs":[],"name":"VALIDATOR_FEE_BIPS","outputs":[{"internalType":"uint256","name":"","type":"uint256"}],"stateMutability":"view","type":"function"},{"inputs":[],"name":"VALIDATOR_LOCK_DURATION","outputs":[{"internalType":"uint256","name":"","type":"uint256"}],"stateMutability":"view","type":"function"},{"inputs":[],"name":"accDelegatorRewardPerStake","outputs":[{"internalType":"uint256","name":"","type":"uint256"}],"stateMutability":"view","type":"function"},{"inputs":[],"name":"accValidatorRewardPerStake","outputs":[{"internalType":"uint256","name":"","type":"uint256"}],"stateMutability":"view","type":"function"},{"inputs":[],"name":"bkcToken","outputs":[{"internalType":"contract BKCToken","name":"","type":"address"}],"stateMutability":"view","type":"function"},{"inputs":[],"name":"claimDelegatorReward","outputs":[],"stateMutability":"nonpayable","type":"function"},{"inputs":[{"internalType":"address","name":"_validatorAddress","type":"address"},{"internalType":"uint256","name":"_totalAmount","type":"uint256"},{"internalType":"uint256","name":"_lockDuration","type":"uint256"}],"name":"delegate","outputs":[],"stateMutability":"nonpayable","type":"function"},{"inputs":[{"internalType":"address","name":"","type":"address"}],"name":"delegatorRewardDebt","outputs":[{"internalType":"uint256","name":"","type":"uint256"}],"stateMutability":"view","type":"function"},{"inputs":[{"internalType":"uint256","name":"_validatorAmount","type":"uint256"},{"internalType":"uint256","name":"_delegatorAmount","type":"uint256"}],"name":"depositRewards","outputs":[],"stateMutability":"nonpayable","type":"function"},{"inputs":[{"internalType":"uint256","name":"_delegationIndex","type":"uint256"}],"name":"forceUnstake","outputs":[],"stateMutability":"nonpayable","type":"function"},{"inputs":[],"name":"getAllValidators","outputs":[{"internalType":"address[]","name":"","type":"address[]"}],"stateMutability":"view","type":"function"},{"inputs":[{"internalType":"address","name":"_user","type":"address"}],"name":"getDelegationsOf","outputs":[{"components":[{"internalType":"uint256","name":"amount","type":"uint256"},{"internalType":"uint256","name":"unlockTime","type":"uint256"},{"internalType":"uint256","name":"lockDuration","type":"uint256"},{"internalType":"address","name":"validator","type":"address"}],"internalType":"struct DelegationManager.Delegation[]","name":"","type":"tuple[]"}],"stateMutability":"view","type":"function"},{"inputs":[{"internalType":"address","name":"","type":"address"}],"name":"hasPaidRegistrationFee","outputs":[{"internalType":"bool","name":"","type":"bool"}],"stateMutability":"view","type":"function"},{"inputs":[],"name":"owner","outputs":[{"internalType":"address","name":"","type":"address"}],"stateMutability":"view","type":"function"},{"inputs":[{"internalType":"address","name":"_user","type":"address"}],"name":"pendingDelegatorRewards","outputs":[{"internalType":"uint256","name":"","type":"uint256"}],"stateMutability":"view","type":"function"},{"inputs":[],"name":"renounceOwnership","outputs":[],"stateMutability":"nonpayable","type":"function"},{"inputs":[],"name":"rewardManagerAddress","outputs":[{"internalType":"address","name":"","type":"address"}],"stateMutability":"view","type":"function"},{"inputs":[{"internalType":"address","name":"_manager","type":"address"}],"name":"setRewardManager","outputs":[],"stateMutability":"nonpayable","type":"function"},{"inputs":[],"name":"totalNetworkPStake","outputs":[{"internalType":"uint256","name":"","type":"uint256"}],"stateMutability":"view","type":"function"},{"inputs":[{"internalType":"address","name":"newOwner","type":"address"}],"name":"transferOwnership","outputs":[],"stateMutability":"nonpayable","type":"function"},{"inputs":[],"name":"treasuryWallet","outputs":[{"internalType":"address","name":"","type":"address"}],"stateMutability":"view","type":"function"},{"inputs":[{"internalType":"uint256","name":"_delegationIndex","type":"uint256"}],"name":"unstake","outputs":[],"stateMutability":"nonpayable","type":"function"},{"inputs":[{"internalType":"address","name":"","type":"address"},{"internalType":"uint256","name":"","type":"uint256"}],"name":"userDelegations","outputs":[{"internalType":"uint256","name":"amount","type":"uint256"},{"internalType":"uint256","name":"unlockTime","type":"uint256"},{"internalType":"uint256","name":"lockDuration","type":"uint256"},{"internalType":"address","name":"validator","type":"address"}],"stateMutability":"view","type":"function"},{"inputs":[{"internalType":"address","name":"","type":"address"}],"name":"userTotalPStake","outputs":[{"internalType":"uint256","name":"","type":"uint256"}],"stateMutability":"view","type":"function"},{"inputs":[{"internalType":"address","name":"","type":"address"}],"name":"validatorRewardDebt","outputs":[{"internalType":"uint256","name":"","type":"uint256"}],"stateMutability":"view","type":"function"},{"inputs":[{"internalType":"address","name":"","type":"address"}],"name":"validators","outputs":[{"internalType":"bool","name":"isRegistered","type":"bool"},{"internalType":"uint256","name":"selfStakeAmount","type":"uint256"},{"internalType":"uint256","name":"selfStakeUnlockTime","type":"uint256"},{"internalType":"uint256","name":"totalPStake","type":"uint256"},{"internalType":"uint256","name":"totalDelegatedAmount","type":"uint256"}],"stateMutability":"view","type":"function"},{"inputs":[{"internalType":"uint256","name":"","type":"uint256"}],"name":"validatorsArray","outputs":[{"internalType":"address","name":"","type":"address"}],"stateMutability":"view","type":"function"}],"evm":{"bytecode":{"linkReferences":{},"object":"60a060405234801561001057600080fd5b5060405161202938038061202983398101604081905261002f916101ce565b816001600160a01b03811661005f57604051631e4fbdf760e01b8152600060048201526024015b60405180910390fd5b61006881610162565b50600180556001600160a01b0383166100cf5760405162461bcd60e51b815260206004820152602360248201527f444d3a20424b43546f6b656e20616464726573732063616e6e6f74206265207a60448201526265726f60e81b6064820152608401610056565b6001600160a01b0381166101385760405162461bcd60e51b815260206004820152602a60248201527f444d3a2054726561737572792077616c6c657420616464726573732063616e6e6044820152696f74206265207a65726f60b01b6064820152608401610056565b6001600160a01b03928316608052600280546001600160a01b031916919093161790915550610211565b600080546001600160a01b038381166001600160a01b0319831681178455604051919092169283917f8be0079c531659141344cd1fd0a4f28419497f9722a3daafe3b4186f6b6457e09190a35050565b80516001600160a01b03811681146101c957600080fd5b919050565b6000806000606084860312156101e357600080fd5b6101ec846101b2565b92506101fa602085016101b2565b9150610208604085016101b2565b90509250925092565b608051611dcc61025d6000396000818161029401528181610707015281816107e401528181610dac01528181610f9a0152818161138d0152818161147301526119890152611dcc6000f3fe608060405234801561001057600080fd5b50600436106102115760003560e01c80637f121ea311610125578063c684e0e1116100ad578063f1f4dea01161007c578063f1f4dea014610484578063f2fde38b1461048d578063f3513a37146104a0578063f6d41cd3146104b5578063fa52c7d8146104d557600080fd5b8063c684e0e114610411578063c99615b014610431578063d6f6c24814610451578063dfebfdea1461047157600080fd5b806391460149116100f457806391460149146103d0578063985f8e44146103e357806399464566146103eb5780639b75b9bf146103f3578063bdd071fb146103fe57600080fd5b80637f121ea31461037357806385ef5c4a1461037b57806389ebc31e146103835780638da5cb5b146103bf57600080fd5b80634f1bfc9e116101a8578063715018a611610177578063715018a61461033e57806378b4330f146103465780637b700389146103505780637c43809d146103595780637c81ff561461036157600080fd5b80634f1bfc9e146102ee578063570e30e1146102f957806358f01c791461032c5780636240d8031461033557600080fd5b80632402ff97116101e45780632402ff971461028f5780632e17de78146102b657806332cb6b0c146102c95780634626402b146102db57600080fd5b80630185921e14610216578063031fadbd1461022b57806308abda721461025b578063153ee5541461027c575b600080fd5b610229610224366004611b69565b610540565b005b61023e610239366004611b9c565b610a9d565b6040516001600160a01b0390911681526020015b60405180910390f35b61026e610269366004611bb5565b610ac7565b604051908152602001610252565b61022961028a366004611bb5565b610b1f565b61023e7f000000000000000000000000000000000000000000000000000000000000000081565b6102296102c4366004611b9c565b610bb0565b61026e6aa56fa5b99019a5c800000081565b60025461023e906001600160a01b031681565b61026e6312cc030081565b61031c610307366004611bb5565b60046020526000908152604090205460ff1681565b6040519015158152602001610252565b61026e60085481565b61026e61138881565b6102296110f4565b61026e6201518081565b61026e600a5481565b61026e603281565b61026e6a211654585005212800000081565b61026e600581565b61026e611108565b610396610391366004611bd7565b61112b565b604080519485526020850193909352918301526001600160a01b03166060820152608001610252565b6000546001600160a01b031661023e565b6102296103de366004611b9c565b61117a565b61026e606481565b6102296116d0565b61026e630966018081565b61022961040c366004611c01565b6116ea565b61026e61041f366004611bb5565b60096020526000908152604090205481565b61026e61043f366004611bb5565b600c6020526000908152604090205481565b61046461045f366004611bb5565b61179a565b6040516102529190611c23565b60035461023e906001600160a01b031681565b61026e600b5481565b61022961049b366004611bb5565b61183a565b6104a8611875565b6040516102529190611c92565b61026e6104c3366004611bb5565b600d6020526000908152604090205481565b6105166104e3366004611bb5565b6005602052600090815260409020805460018201546002830154600384015460049094015460ff90931693919290919085565b6040805195151586526020860194909452928401919091526060830152608082015260a001610252565b6105486118d7565b61055133611901565b6001600160a01b03831660009081526005602052604090205460ff166105b65760405162461bcd60e51b815260206004820152601560248201527422269d1024b73b30b634b2103b30b634b230ba37b960591b60448201526064015b60405180910390fd5b600082116105fb5760405162461bcd60e51b815260206004820152601260248201527111134e88125b9d985b1a5908185b5bdd5b9d60721b60448201526064016105ad565b62015180811015801561061257506312cc03008111155b61065e5760405162461bcd60e51b815260206004820152601960248201527f444d3a20496e76616c6964206c6f636b206475726174696f6e0000000000000060448201526064016105ad565b600061271061066e603285611ce9565b6106789190611d00565b905060006106868285611d22565b9050600081116106d85760405162461bcd60e51b815260206004820152601c60248201527f444d3a20496e76616c6964206e6574207374616b6520616d6f756e740000000060448201526064016105ad565b6002546040516323b872dd60e01b81523360048201526001600160a01b039182166024820152604481018490527f0000000000000000000000000000000000000000000000000000000000000000909116906323b872dd906064016020604051808303816000875af1158015610752573d6000803e3d6000fd5b505050506040513d601f19601f820116820180604052508101906107769190611d35565b6107c25760405162461bcd60e51b815260206004820181905260248201527f444d3a204661696c656420746f207061792064656c65676174696f6e2066656560448201526064016105ad565b6040516323b872dd60e01b8152336004820152306024820152604481018290527f00000000000000000000000000000000000000000000000000000000000000006001600160a01b0316906323b872dd906064016020604051808303816000875af1158015610835573d6000803e3d6000fd5b505050506040513d601f19601f820116820180604052508101906108599190611d35565b6108a55760405162461bcd60e51b815260206004820152601d60248201527f444d3a204661696c656420746f2064656c656761746520746f6b656e7300000060448201526064016105ad565b33600090815260066020908152604091829020825160808101909352838352919081016108d28642611d57565b815260208082018790526001600160a01b03898116604093840152845460018082018755600096875283872086516004909302019182559285015192810192909255918301516002820155606090920151600390920180546001600160a01b031916929091169190911790556109488285611a9a565b9050806008600082825461095c9190611d57565b90915550506001600160a01b0386166000908152600560205260408120600301805483929061098c908490611d57565b90915550506001600160a01b038616600090815260056020526040812060040180548492906109bc908490611d57565b909155505033600090815260096020526040812080548392906109e0908490611d57565b9091555050600b5433600090815260096020526040902054670de0b6b3a764000091610a0b91611ce9565b610a159190611d00565b336000818152600d60209081526040808320949094556006905291909120546001600160a01b03881691907fc4ad67bad2c1f682946a406d840f1b273f5cd5a53fcc1a03d078d92bfa2e07d090610a6e90600190611d22565b6040805191825260208201879052810187905260600160405180910390a3505050610a9860018055565b505050565b60078181548110610aad57600080fd5b6000918252602090912001546001600160a01b0316905081565b6001600160a01b0381166000908152600d6020908152604080832054600b546009909352908320549091670de0b6b3a764000091610b059190611ce9565b610b0f9190611d00565b610b199190611d22565b92915050565b610b27611ad0565b6001600160a01b038116610b8e5760405162461bcd60e51b815260206004820152602860248201527f444d3a205265776172644d616e616765722063616e6e6f74206265207a65726f604482015267206164647265737360c01b60648201526084016105ad565b600380546001600160a01b0319166001600160a01b0392909216919091179055565b610bb86118d7565b610bc133611901565b33600090815260066020526040902080548210610c145760405162461bcd60e51b81526020600482015260116024820152700889a744092dcecc2d8d2c840d2dcc8caf607b1b60448201526064016105ad565b6000818381548110610c2857610c28611d6a565b906000526020600020906004020190508060010154421015610c8c5760405162461bcd60e51b815260206004820152601860248201527f444d3a204c6f636b20706572696f64206e6f74206f766572000000000000000060448201526064016105ad565b6000610ca082600001548360020154611a9a565b90508060086000828254610cb49190611d22565b90915550506003808301546001600160a01b031660009081526005602052604081209091018054839290610ce9908490611d22565b9091555050815460038301546001600160a01b031660009081526005602052604081206004018054909190610d1f908490611d22565b90915550503360009081526009602052604081208054839290610d43908490611d22565b9091555050815460009061271090610d5d90606490611ce9565b610d679190611d00565b90506000818460000154610d7b9190611d22565b90508115610e725760025460405163a9059cbb60e01b81526001600160a01b039182166004820152602481018490527f00000000000000000000000000000000000000000000000000000000000000009091169063a9059cbb906044016020604051808303816000875af1158015610df7573d6000803e3d6000fd5b505050506040513d601f19601f82011682018060405250810190610e1b9190611d35565b610e725760405162461bcd60e51b815260206004820152602260248201527f444d3a204661696c656420746f207472616e7366657220756e7374616b652066604482015261656560f01b60648201526084016105ad565b84546001108015610e9057508454610e8c90600190611d22565b8614155b15610f245784548590610ea590600190611d22565b81548110610eb557610eb5611d6a565b9060005260206000209060040201858781548110610ed557610ed5611d6a565b6000918252602090912082546004909202019081556001808301549082015560028083015490820155600391820154910180546001600160a01b0319166001600160a01b039092169190911790555b84805480610f3457610f34611d80565b600082815260208120600019929092016004818102909301828155600181018390556002810192909255600390910180546001600160a01b031916905590915560405163a9059cbb60e01b81523391810191909152602481018290526001600160a01b037f0000000000000000000000000000000000000000000000000000000000000000169063a9059cbb906044016020604051808303816000875af1158015610fe3573d6000803e3d6000fd5b505050506040513d601f19601f820116820180604052508101906110079190611d35565b61105e5760405162461bcd60e51b815260206004820152602260248201527f444d3a204661696c656420746f207472616e7366657220746f6b656e73206261604482015261636b60f01b60648201526084016105ad565b600b5433600090815260096020526040902054670de0b6b3a76400009161108491611ce9565b61108e9190611d00565b336000818152600d60209081526040918290209390935580518981529283018490528201849052907f204fccf0d92ed8d48f204adb39b2e81e92bad0dedb93f5716ca9478cfb57de009060600160405180910390a250505050506110f160018055565b50565b6110fc611ad0565b6111066000611afd565b565b6111286a21165458500521280000006aa56fa5b99019a5c8000000611d22565b81565b6006602052816000526040600020818154811061114757600080fd5b6000918252602090912060049091020180546001820154600283015460039093015491945092506001600160a01b031684565b6111826118d7565b61118b33611901565b336000908152600660205260409020805482106111de5760405162461bcd60e51b81526020600482015260116024820152700889a744092dcecc2d8d2c840d2dcc8caf607b1b60448201526064016105ad565b60008183815481106111f2576111f2611d6a565b906000526020600020906004020190508060010154421061127b5760405162461bcd60e51b815260206004820152603760248201527f444d3a2044656c65676174696f6e20697320616c726561647920756e6c6f636b60448201527f65642c2075736520726567756c617220756e7374616b6500000000000000000060648201526084016105ad565b8054600061271061128e61138884611ce9565b6112989190611d00565b905060006112a68284611d22565b905060006112b8848660020154611a9a565b905080600860008282546112cc9190611d22565b90915550506003808601546001600160a01b031660009081526005602052604081209091018054839290611301908490611d22565b909155505060038501546001600160a01b031660009081526005602052604081206004018054869290611335908490611d22565b90915550503360009081526009602052604081208054839290611359908490611d22565b909155505082156114575760025460405163a9059cbb60e01b81526001600160a01b039182166004820152602481018590527f00000000000000000000000000000000000000000000000000000000000000009091169063a9059cbb906044016020604051808303816000875af11580156113d8573d6000803e3d6000fd5b505050506040513d601f19601f820116820180604052508101906113fc9190611d35565b6114575760405162461bcd60e51b815260206004820152602660248201527f444d3a204661696c656420746f2073656e642070656e616c747920746f20747260448201526565617375727960d01b60648201526084016105ad565b60405163a9059cbb60e01b8152336004820152602481018390527f00000000000000000000000000000000000000000000000000000000000000006001600160a01b03169063a9059cbb906044016020604051808303816000875af11580156114c4573d6000803e3d6000fd5b505050506040513d601f19601f820116820180604052508101906114e89190611d35565b6115405760405162461bcd60e51b815260206004820152602360248201527f444d3a204661696c656420746f2072657475726e20746f6b656e7320746f207560448201526239b2b960e91b60648201526084016105ad565b8554600110801561155e5750855461155a90600190611d22565b8714155b156115f2578554869061157390600190611d22565b8154811061158357611583611d6a565b90600052602060002090600402018688815481106115a3576115a3611d6a565b6000918252602090912082546004909202019081556001808301549082015560028083015490820155600391820154910180546001600160a01b0319166001600160a01b039092169190911790555b8580548061160257611602611d80565b60008281526020808220600460001990940193840201828155600181018390556002810183905560030180546001600160a01b031916905591909255600b543383526009909152604090912054670de0b6b3a76400009161166291611ce9565b61166c9190611d00565b336000818152600d60209081526040918290209390935580518a81529283018590528201859052907f204fccf0d92ed8d48f204adb39b2e81e92bad0dedb93f5716ca9478cfb57de009060600160405180910390a25050505050506110f160018055565b6116d86118d7565b6116e133611901565b61110660018055565b6116f26118d7565b60008211801561170457506000600854115b5060008111801561171757506000600854115b156117525760085461173182670de0b6b3a7640000611ce9565b61173b9190611d00565b600b600082825461174c9190611d57565b90915550505b604080518381526020810183905233917f6e8a19c7bcac2f8ca75d80a333a2cfffd851001c55ba805c58cc66c70d92bd74910160405180910390a261179660018055565b5050565b6001600160a01b0381166000908152600660209081526040808320805482518185028101850190935280835260609492939192909184015b8282101561182f57600084815260209081902060408051608081018252600486029092018054835260018082015484860152600282015492840192909252600301546001600160a01b0316606083015290835290920191016117d2565b505050509050919050565b611842611ad0565b6001600160a01b03811661186c57604051631e4fbdf760e01b8152600060048201526024016105ad565b6110f181611afd565b606060078054806020026020016040519081016040528092919081815260200182805480156118cd57602002820191906000526020600020905b81546001600160a01b031681526001909101906020018083116118af575b5050505050905090565b6002600154036118fa57604051633ee5aeb560e01b815260040160405180910390fd5b6002600155565b600061190c82610ac7565b9050801561179657600b546001600160a01b038316600090815260096020526040902054670de0b6b3a76400009161194391611ce9565b61194d9190611d00565b6001600160a01b038381166000818152600d60205260409081902093909355915163a9059cbb60e01b81526004810192909252602482018390527f0000000000000000000000000000000000000000000000000000000000000000169063a9059cbb906044016020604051808303816000875af11580156119d2573d6000803e3d6000fd5b505050506040513d601f19601f820116820180604052508101906119f69190611d35565b611a535760405162461bcd60e51b815260206004820152602860248201527f444d3a204661696c656420746f207472616e736665722064656c656761746f72604482015267207265776172647360c01b60648201526084016105ad565b816001600160a01b03167f57e3f5364720537268c2fbdb1935293ba7690a5f3d206a64097c2f8f54dc5cae82604051611a8e91815260200190565b60405180910390a25050565b600080611aaf670de0b6b3a764000085611d00565b9050611abe6201518084611d00565b611ac89082611ce9565b949350505050565b6000546001600160a01b031633146111065760405163118cdaa760e01b81523360048201526024016105ad565b600080546001600160a01b038381166001600160a01b0319831681178455604051919092169283917f8be0079c531659141344cd1fd0a4f28419497f9722a3daafe3b4186f6b6457e09190a35050565b80356001600160a01b0381168114611b6457600080fd5b919050565b600080600060608486031215611b7e57600080fd5b611b8784611b4d565b95602085013595506040909401359392505050565b600060208284031215611bae57600080fd5b5035919050565b600060208284031215611bc757600080fd5b611bd082611b4d565b9392505050565b60008060408385031215611bea57600080fd5b611bf383611b4d565b946020939093013593505050565b60008060408385031215611c1457600080fd5b50508035926020909101359150565b602080825282518282018190526000918401906040840190835b81811015611c875783518051845260208082015181860152604080830151908601526060918201516001600160a01b03169185019190915290930192608090920191600101611c3d565b509095945050505050565b602080825282518282018190526000918401906040840190835b81811015611c875783516001600160a01b0316835260209384019390920191600101611cac565b634e487b7160e01b600052601160045260246000fd5b8082028115828204841417610b1957610b19611cd3565b600082611d1d57634e487b7160e01b600052601260045260246000fd5b500490565b81810381811115610b1957610b19611cd3565b600060208284031215611d4757600080fd5b81518015158114611bd057600080fd5b80820180821115610b1957610b19611cd3565b634e487b7160e01b600052603260045260246000fd5b634e487b7160e01b600052603160045260246000fdfea26469706673582212203245027fcb5d14f6ebbb1a36b666ede89725564d4a7e8ffd08f402bff067955e64736f6c634300081c0033","opcodes":"PUSH1 0xA0 PUSH1 0x40 MSTORE CALLVALUE DUP1 ISZERO PUSH2 0x10 JUMPI PUSH1 0x0 DUP1 REVERT JUMPDEST POP PUSH1 0x40 MLOAD PUSH2 0x2029 CODESIZE SUB DUP1 PUSH2 0x2029 DUP4 CODECOPY DUP2 ADD PUSH1 0x40 DUP2 SWAP1 MSTORE PUSH2 0x2F SWAP2 PUSH2 0x1CE JUMP JUMPDEST DUP2 PUSH1 0x1 PUSH1 0x1 PUSH1 0xA0 SHL SUB DUP2 AND PUSH2 0x5F JUMPI PUSH1 0x40 MLOAD PUSH4 0x1E4FBDF7 PUSH1 0xE0 SHL DUP2 MSTORE PUSH1 0x0 PUSH1 0x4 DUP3 ADD MSTORE PUSH1 0x24 ADD JUMPDEST PUSH1 0x40 MLOAD DUP1 SWAP2 SUB SWAP1 REVERT JUMPDEST PUSH2 0x68 DUP2 PUSH2 0x162 JUMP JUMPDEST POP PUSH1 0x1 DUP1 SSTORE PUSH1 0x1 PUSH1 0x1 PUSH1 0xA0 SHL SUB DUP4 AND PUSH2 0xCF JUMPI PUSH1 0x40 MLOAD PUSH3 0x461BCD PUSH1 0xE5 SHL DUP2 MSTORE PUSH1 0x20 PUSH1 0x4 DUP3 ADD MSTORE PUSH1 0x23 PUSH1 0x24 DUP3 ADD MSTORE PUSH32 0x444D3A20424B43546F6B656E20616464726573732063616E6E6F74206265207A PUSH1 0x44 DUP3 ADD MSTORE PUSH3 0x65726F PUSH1 0xE8 SHL PUSH1 0x64 DUP3 ADD MSTORE PUSH1 0x84 ADD PUSH2 0x56 JUMP JUMPDEST PUSH1 0x1 PUSH1 0x1 PUSH1 0xA0 SHL SUB DUP2 AND PUSH2 0x138 JUMPI PUSH1 0x40 MLOAD PUSH3 0x461BCD PUSH1 0xE5 SHL DUP2 MSTORE PUSH1 0x20 PUSH1 0x4 DUP3 ADD MSTORE PUSH1 0x2A PUSH1 0x24 DUP3 ADD MSTORE PUSH32 0x444D3A2054726561737572792077616C6C657420616464726573732063616E6E PUSH1 0x44 DUP3 ADD MSTORE PUSH10 0x6F74206265207A65726F PUSH1 0xB0 SHL PUSH1 0x64 DUP3 ADD MSTORE PUSH1 0x84 ADD PUSH2 0x56 JUMP JUMPDEST PUSH1 0x1 PUSH1 0x1 PUSH1 0xA0 SHL SUB SWAP3 DUP4 AND PUSH1 0x80 MSTORE PUSH1 0x2 DUP1 SLOAD PUSH1 0x1 PUSH1 0x1 PUSH1 0xA0 SHL SUB NOT AND SWAP2 SWAP1 SWAP4 AND OR SWAP1 SWAP2 SSTORE POP PUSH2 0x211 JUMP JUMPDEST PUSH1 0x0 DUP1 SLOAD PUSH1 0x1 PUSH1 0x1 PUSH1 0xA0 SHL SUB DUP4 DUP2 AND PUSH1 0x1 PUSH1 0x1 PUSH1 0xA0 SHL SUB NOT DUP4 AND DUP2 OR DUP5 SSTORE PUSH1 0x40 MLOAD SWAP2 SWAP1 SWAP3 AND SWAP3 DUP4 SWAP2 PUSH32 0x8BE0079C531659141344CD1FD0A4F28419497F9722A3DAAFE3B4186F6B6457E0 SWAP2 SWAP1 LOG3 POP POP JUMP JUMPDEST DUP1 MLOAD PUSH1 0x1 PUSH1 0x1 PUSH1 0xA0 SHL SUB DUP2 AND DUP2 EQ PUSH2 0x1C9 JUMPI PUSH1 0x0 DUP1 REVERT JUMPDEST SWAP2 SWAP1 POP JUMP JUMPDEST PUSH1 0x0 DUP1 PUSH1 0x0 PUSH1 0x60 DUP5 DUP7 SUB SLT ISZERO PUSH2 0x1E3 JUMPI PUSH1 0x0 DUP1 REVERT JUMPDEST PUSH2 0x1EC DUP5 PUSH2 0x1B2 JUMP JUMPDEST SWAP3 POP PUSH2 0x1FA PUSH1 0x20 DUP6 ADD PUSH2 0x1B2 JUMP JUMPDEST SWAP2 POP PUSH2 0x208 PUSH1 0x40 DUP6 ADD PUSH2 0x1B2 JUMP JUMPDEST SWAP1 POP SWAP3 POP SWAP3 POP SWAP3 JUMP JUMPDEST PUSH1 0x80 MLOAD PUSH2 0x1DCC PUSH2 0x25D PUSH1 0x0 CODECOPY PUSH1 0x0 DUP2 DUP2 PUSH2 0x294 ADD MSTORE DUP2 DUP2 PUSH2 0x707 ADD MSTORE DUP2 DUP2 PUSH2 0x7E4 ADD MSTORE DUP2 DUP2 PUSH2 0xDAC ADD MSTORE DUP2 DUP2 PUSH2 0xF9A ADD MSTORE DUP2 DUP2 PUSH2 0x138D ADD MSTORE DUP2 DUP2 PUSH2 0x1473 ADD MSTORE PUSH2 0x1989 ADD MSTORE PUSH2 0x1DCC PUSH1 0x0 RETURN INVALID PUSH1 0x80 PUSH1 0x40 MSTORE CALLVALUE DUP1 ISZERO PUSH2 0x10 JUMPI PUSH1 0x0 DUP1 REVERT JUMPDEST POP PUSH1 0x4 CALLDATASIZE LT PUSH2 0x211 JUMPI PUSH1 0x0 CALLDATALOAD PUSH1 0xE0 SHR DUP1 PUSH4 0x7F121EA3 GT PUSH2 0x125 JUMPI DUP1 PUSH4 0xC684E0E1 GT PUSH2 0xAD JUMPI DUP1 PUSH4 0xF1F4DEA0 GT PUSH2 0x7C JUMPI DUP1 PUSH4 0xF1F4DEA0 EQ PUSH2 0x484 JUMPI DUP1 PUSH4 0xF2FDE38B EQ PUSH2 0x48D JUMPI DUP1 PUSH4 0xF3513A37 EQ PUSH2 0x4A0 JUMPI DUP1 PUSH4 0xF6D41CD3 EQ PUSH2 0x4B5 JUMPI DUP1 PUSH4 0xFA52C7D8 EQ PUSH2 0x4D5 JUMPI PUSH1 0x0 DUP1 REVERT JUMPDEST DUP1 PUSH4 0xC684E0E1 EQ PUSH2 0x411 JUMPI DUP1 PUSH4 0xC99615B0 EQ PUSH2 0x431 JUMPI DUP1 PUSH4 0xD6F6C248 EQ PUSH2 0x451 JUMPI DUP1 PUSH4 0xDFEBFDEA EQ PUSH2 0x471 JUMPI PUSH1 0x0 DUP1 REVERT JUMPDEST DUP1 PUSH4 0x91460149 GT PUSH2 0xF4 JUMPI DUP1 PUSH4 0x91460149 EQ PUSH2 0x3D0 JUMPI DUP1 PUSH4 0x985F8E44 EQ PUSH2 0x3E3 JUMPI DUP1 PUSH4 0x99464566 EQ PUSH2 0x3EB JUMPI DUP1 PUSH4 0x9B75B9BF EQ PUSH2 0x3F3 JUMPI DUP1 PUSH4 0xBDD071FB EQ PUSH2 0x3FE JUMPI PUSH1 0x0 DUP1 REVERT JUMPDEST DUP1 PUSH4 0x7F121EA3 EQ PUSH2 0x373 JUMPI DUP1 PUSH4 0x85EF5C4A EQ PUSH2 0x37B JUMPI DUP1 PUSH4 0x89EBC31E EQ PUSH2 0x383 JUMPI DUP1 PUSH4 0x8DA5CB5B EQ PUSH2 0x3BF JUMPI PUSH1 0x0 DUP1 REVERT JUMPDEST DUP1 PUSH4 0x4F1BFC9E GT PUSH2 0x1A8 JUMPI DUP1 PUSH4 0x715018A6 GT PUSH2 0x177 JUMPI DUP1 PUSH4 0x715018A6 EQ PUSH2 0x33E JUMPI DUP1 PUSH4 0x78B4330F EQ PUSH2 0x346 JUMPI DUP1 PUSH4 0x7B700389 EQ PUSH2 0x350 JUMPI DUP1 PUSH4 0x7C43809D EQ PUSH2 0x359 JUMPI DUP1 PUSH4 0x7C81FF56 EQ PUSH2 0x361 JUMPI PUSH1 0x0 DUP1 REVERT JUMPDEST DUP1 PUSH4 0x4F1BFC9E EQ PUSH2 0x2EE JUMPI DUP1 PUSH4 0x570E30E1 EQ PUSH2 0x2F9 JUMPI DUP1 PUSH4 0x58F01C79 EQ PUSH2 0x32C JUMPI DUP1 PUSH4 0x6240D803 EQ PUSH2 0x335 JUMPI PUSH1 0x0 DUP1 REVERT JUMPDEST DUP1 PUSH4 0x2402FF97 GT PUSH2 0x1E4 JUMPI DUP1 PUSH4 0x2402FF97 EQ PUSH2 0x28F JUMPI DUP1 PUSH4 0x2E17DE78 EQ PUSH2 0x2B6 JUMPI DUP1 PUSH4 0x32CB6B0C EQ PUSH2 0x2C9 JUMPI DUP1 PUSH4 0x4626402B EQ PUSH2 0x2DB JUMPI PUSH1 0x0 DUP1 REVERT JUMPDEST DUP1 PUSH4 0x185921E EQ PUSH2 0x216 JUMPI DUP1 PUSH4 0x31FADBD EQ PUSH2 0x22B JUMPI DUP1 PUSH4 0x8ABDA72 EQ PUSH2 0x25B JUMPI DUP1 PUSH4 0x153EE554 EQ PUSH2 0x27C JUMPI JUMPDEST PUSH1 0x0 DUP1 REVERT JUMPDEST PUSH2 0x229 PUSH2 0x224 CALLDATASIZE PUSH1 0x4 PUSH2 0x1B69 JUMP JUMPDEST PUSH2 0x540 JUMP JUMPDEST STOP JUMPDEST PUSH2 0x23E PUSH2 0x239 CALLDATASIZE PUSH1 0x4 PUSH2 0x1B9C JUMP JUMPDEST PUSH2 0xA9D JUMP JUMPDEST PUSH1 0x40 MLOAD PUSH1 0x1 PUSH1 0x1 PUSH1 0xA0 SHL SUB SWAP1 SWAP2 AND DUP2 MSTORE PUSH1 0x20 ADD JUMPDEST PUSH1 0x40 MLOAD DUP1 SWAP2 SUB SWAP1 RETURN JUMPDEST PUSH2 0x26E PUSH2 0x269 CALLDATASIZE PUSH1 0x4 PUSH2 0x1BB5 JUMP JUMPDEST PUSH2 0xAC7 JUMP JUMPDEST PUSH1 0x40 MLOAD SWAP1 DUP2 MSTORE PUSH1 0x20 ADD PUSH2 0x252 JUMP JUMPDEST PUSH2 0x229 PUSH2 0x28A CALLDATASIZE PUSH1 0x4 PUSH2 0x1BB5 JUMP JUMPDEST PUSH2 0xB1F JUMP JUMPDEST PUSH2 0x23E PUSH32 0x0 DUP2 JUMP JUMPDEST PUSH2 0x229 PUSH2 0x2C4 CALLDATASIZE PUSH1 0x4 PUSH2 0x1B9C JUMP JUMPDEST PUSH2 0xBB0 JUMP JUMPDEST PUSH2 0x26E PUSH11 0xA56FA5B99019A5C8000000 DUP2 JUMP JUMPDEST PUSH1 0x2 SLOAD PUSH2 0x23E SWAP1 PUSH1 0x1 PUSH1 0x1 PUSH1 0xA0 SHL SUB AND DUP2 JUMP JUMPDEST PUSH2 0x26E PUSH4 0x12CC0300 DUP2 JUMP JUMPDEST PUSH2 0x31C PUSH2 0x307 CALLDATASIZE PUSH1 0x4 PUSH2 0x1BB5 JUMP JUMPDEST PUSH1 0x4 PUSH1 0x20 MSTORE PUSH1 0x0 SWAP1 DUP2 MSTORE PUSH1 0x40 SWAP1 KECCAK256 SLOAD PUSH1 0xFF AND DUP2 JUMP JUMPDEST PUSH1 0x40 MLOAD SWAP1 ISZERO ISZERO DUP2 MSTORE PUSH1 0x20 ADD PUSH2 0x252 JUMP JUMPDEST PUSH2 0x26E PUSH1 0x8 SLOAD DUP2 JUMP JUMPDEST PUSH2 0x26E PUSH2 0x1388 DUP2 JUMP JUMPDEST PUSH2 0x229 PUSH2 0x10F4 JUMP JUMPDEST PUSH2 0x26E PUSH3 0x15180 DUP2 JUMP JUMPDEST PUSH2 0x26E PUSH1 0xA SLOAD DUP2 JUMP JUMPDEST PUSH2 0x26E PUSH1 0x32 DUP2 JUMP JUMPDEST PUSH2 0x26E PUSH11 0x2116545850052128000000 DUP2 JUMP JUMPDEST PUSH2 0x26E PUSH1 0x5 DUP2 JUMP JUMPDEST PUSH2 0x26E PUSH2 0x1108 JUMP JUMPDEST PUSH2 0x396 PUSH2 0x391 CALLDATASIZE PUSH1 0x4 PUSH2 0x1BD7 JUMP JUMPDEST PUSH2 0x112B JUMP JUMPDEST PUSH1 0x40 DUP1 MLOAD SWAP5 DUP6 MSTORE PUSH1 0x20 DUP6 ADD SWAP4 SWAP1 SWAP4 MSTORE SWAP2 DUP4 ADD MSTORE PUSH1 0x1 PUSH1 0x1 PUSH1 0xA0 SHL SUB AND PUSH1 0x60 DUP3 ADD MSTORE PUSH1 0x80 ADD PUSH2 0x252 JUMP JUMPDEST PUSH1 0x0 SLOAD PUSH1 0x1 PUSH1 0x1 PUSH1 0xA0 SHL SUB AND PUSH2 0x23E JUMP JUMPDEST PUSH2 0x229 PUSH2 0x3DE CALLDATASIZE PUSH1 0x4 PUSH2 0x1B9C JUMP JUMPDEST PUSH2 0x117A JUMP JUMPDEST PUSH2 0x26E PUSH1 0x64 DUP2 JUMP JUMPDEST PUSH2 0x229 PUSH2 0x16D0 JUMP JUMPDEST PUSH2 0x26E PUSH4 0x9660180 DUP2 JUMP JUMPDEST PUSH2 0x229 PUSH2 0x40C CALLDATASIZE PUSH1 0x4 PUSH2 0x1C01 JUMP JUMPDEST PUSH2 0x16EA JUMP JUMPDEST PUSH2 0x26E PUSH2 0x41F CALLDATASIZE PUSH1 0x4 PUSH2 0x1BB5 JUMP JUMPDEST PUSH1 0x9 PUSH1 0x20 MSTORE PUSH1 0x0 SWAP1 DUP2 MSTORE PUSH1 0x40 SWAP1 KECCAK256 SLOAD DUP2 JUMP JUMPDEST PUSH2 0x26E PUSH2 0x43F CALLDATASIZE PUSH1 0x4 PUSH2 0x1BB5 JUMP JUMPDEST PUSH1 0xC PUSH1 0x20 MSTORE PUSH1 0x0 SWAP1 DUP2 MSTORE PUSH1 0x40 SWAP1 KECCAK256 SLOAD DUP2 JUMP JUMPDEST PUSH2 0x464 PUSH2 0x45F CALLDATASIZE PUSH1 0x4 PUSH2 0x1BB5 JUMP JUMPDEST PUSH2 0x179A JUMP JUMPDEST PUSH1 0x40 MLOAD PUSH2 0x252 SWAP2 SWAP1 PUSH2 0x1C23 JUMP JUMPDEST PUSH1 0x3 SLOAD PUSH2 0x23E SWAP1 PUSH1 0x1 PUSH1 0x1 PUSH1 0xA0 SHL SUB AND DUP2 JUMP JUMPDEST PUSH2 0x26E PUSH1 0xB SLOAD DUP2 JUMP JUMPDEST PUSH2 0x229 PUSH2 0x49B CALLDATASIZE PUSH1 0x4 PUSH2 0x1BB5 JUMP JUMPDEST PUSH2 0x183A JUMP JUMPDEST PUSH2 0x4A8 PUSH2 0x1875 JUMP JUMPDEST PUSH1 0x40 MLOAD PUSH2 0x252 SWAP2 SWAP1 PUSH2 0x1C92 JUMP JUMPDEST PUSH2 0x26E PUSH2 0x4C3 CALLDATASIZE PUSH1 0x4 PUSH2 0x1BB5 JUMP JUMPDEST PUSH1 0xD PUSH1 0x20 MSTORE PUSH1 0x0 SWAP1 DUP2 MSTORE PUSH1 0x40 SWAP1 KECCAK256 SLOAD DUP2 JUMP JUMPDEST PUSH2 0x516 PUSH2 0x4E3 CALLDATASIZE PUSH1 0x4 PUSH2 0x1BB5 JUMP JUMPDEST PUSH1 0x5 PUSH1 0x20 MSTORE PUSH1 0x0 SWAP1 DUP2 MSTORE PUSH1 0x40 SWAP1 KECCAK256 DUP1 SLOAD PUSH1 0x1 DUP3 ADD SLOAD PUSH1 0x2 DUP4 ADD SLOAD PUSH1 0x3 DUP5 ADD SLOAD PUSH1 0x4 SWAP1 SWAP5 ADD SLOAD PUSH1 0xFF SWAP1 SWAP4 AND SWAP4 SWAP2 SWAP3 SWAP1 SWAP2 SWAP1 DUP6 JUMP JUMPDEST PUSH1 0x40 DUP1 MLOAD SWAP6 ISZERO ISZERO DUP7 MSTORE PUSH1 0x20 DUP7 ADD SWAP5 SWAP1 SWAP5 MSTORE SWAP3 DUP5 ADD SWAP2 SWAP1 SWAP2 MSTORE PUSH1 0x60 DUP4 ADD MSTORE PUSH1 0x80 DUP3 ADD MSTORE PUSH1 0xA0 ADD PUSH2 0x252 JUMP JUMPDEST PUSH2 0x548 PUSH2 0x18D7 JUMP JUMPDEST PUSH2 0x551 CALLER PUSH2 0x1901 JUMP JUMPDEST PUSH1 0x1 PUSH1 0x1 PUSH1 0xA0 SHL SUB DUP4 AND PUSH1 0x0 SWAP1 DUP2 MSTORE PUSH1 0x5 PUSH1 0x20 MSTORE PUSH1 0x40 SWAP1 KECCAK256 SLOAD PUSH1 0xFF AND PUSH2 0x5B6 JUMPI PUSH1 0x40 MLOAD PUSH3 0x461BCD PUSH1 0xE5 SHL DUP2 MSTORE PUSH1 0x20 PUSH1 0x4 DUP3 ADD MSTORE PUSH1 0x15 PUSH1 0x24 DUP3 ADD MSTORE PUSH21 0x22269D1024B73B30B634B2103B30B634B230BA37B9 PUSH1 0x59 SHL PUSH1 0x44 DUP3 ADD MSTORE PUSH1 0x64 ADD JUMPDEST PUSH1 0x40 MLOAD DUP1 SWAP2 SUB SWAP1 REVERT JUMPDEST PUSH1 0x0 DUP3 GT PUSH2 0x5FB JUMPI PUSH1 0x40 MLOAD PUSH3 0x461BCD PUSH1 0xE5 SHL DUP2 MSTORE PUSH1 0x20 PUSH1 0x4 DUP3 ADD MSTORE PUSH1 0x12 PUSH1 0x24 DUP3 ADD MSTORE PUSH18 0x11134E88125B9D985B1A5908185B5BDD5B9D PUSH1 0x72 SHL PUSH1 0x44 DUP3 ADD MSTORE PUSH1 0x64 ADD PUSH2 0x5AD JUMP JUMPDEST PUSH3 0x15180 DUP2 LT ISZERO DUP1 ISZERO PUSH2 0x612 JUMPI POP PUSH4 0x12CC0300 DUP2 GT ISZERO JUMPDEST PUSH2 0x65E JUMPI PUSH1 0x40 MLOAD PUSH3 0x461BCD PUSH1 0xE5 SHL DUP2 MSTORE PUSH1 0x20 PUSH1 0x4 DUP3 ADD MSTORE PUSH1 0x19 PUSH1 0x24 DUP3 ADD MSTORE PUSH32 0x444D3A20496E76616C6964206C6F636B206475726174696F6E00000000000000 PUSH1 0x44 DUP3 ADD MSTORE PUSH1 0x64 ADD PUSH2 0x5AD JUMP JUMPDEST PUSH1 0x0 PUSH2 0x2710 PUSH2 0x66E PUSH1 0x32 DUP6 PUSH2 0x1CE9 JUMP JUMPDEST PUSH2 0x678 SWAP2 SWAP1 PUSH2 0x1D00 JUMP JUMPDEST SWAP1 POP PUSH1 0x0 PUSH2 0x686 DUP3 DUP6 PUSH2 0x1D22 JUMP JUMPDEST SWAP1 POP PUSH1 0x0 DUP2 GT PUSH2 0x6D8 JUMPI PUSH1 0x40 MLOAD PUSH3 0x461BCD PUSH1 0xE5 SHL DUP2 MSTORE PUSH1 0x20 PUSH1 0x4 DUP3 ADD MSTORE PUSH1 0x1C PUSH1 0x24 DUP3 ADD MSTORE PUSH32 0x444D3A20496E76616C6964206E6574207374616B6520616D6F756E7400000000 PUSH1 0x44 DUP3 ADD MSTORE PUSH1 0x64 ADD PUSH2 0x5AD JUMP JUMPDEST PUSH1 0x2 SLOAD PUSH1 0x40 MLOAD PUSH4 0x23B872DD PUSH1 0xE0 SHL DUP2 MSTORE CALLER PUSH1 0x4 DUP3 ADD MSTORE PUSH1 0x1 PUSH1 0x1 PUSH1 0xA0 SHL SUB SWAP2 DUP3 AND PUSH1 0x24 DUP3 ADD MSTORE PUSH1 0x44 DUP2 ADD DUP5 SWAP1 MSTORE PUSH32 0x0 SWAP1 SWAP2 AND SWAP1 PUSH4 0x23B872DD SWAP1 PUSH1 0x64 ADD PUSH1 0x20 PUSH1 0x40 MLOAD DUP1 DUP4 SUB DUP2 PUSH1 0x0 DUP8 GAS CALL ISZERO DUP1 ISZERO PUSH2 0x752 JUMPI RETURNDATASIZE PUSH1 0x0 DUP1 RETURNDATACOPY RETURNDATASIZE PUSH1 0x0 REVERT JUMPDEST POP POP POP POP PUSH1 0x40 MLOAD RETURNDATASIZE PUSH1 0x1F NOT PUSH1 0x1F DUP3 ADD AND DUP3 ADD DUP1 PUSH1 0x40 MSTORE POP DUP2 ADD SWAP1 PUSH2 0x776 SWAP2 SWAP1 PUSH2 0x1D35 JUMP JUMPDEST PUSH2 0x7C2 JUMPI PUSH1 0x40 MLOAD PUSH3 0x461BCD PUSH1 0xE5 SHL DUP2 MSTORE PUSH1 0x20 PUSH1 0x4 DUP3 ADD DUP2 SWAP1 MSTORE PUSH1 0x24 DUP3 ADD MSTORE PUSH32 0x444D3A204661696C656420746F207061792064656C65676174696F6E20666565 PUSH1 0x44 DUP3 ADD MSTORE PUSH1 0x64 ADD PUSH2 0x5AD JUMP JUMPDEST PUSH1 0x40 MLOAD PUSH4 0x23B872DD PUSH1 0xE0 SHL DUP2 MSTORE CALLER PUSH1 0x4 DUP3 ADD MSTORE ADDRESS PUSH1 0x24 DUP3 ADD MSTORE PUSH1 0x44 DUP2 ADD DUP3 SWAP1 MSTORE PUSH32 0x0 PUSH1 0x1 PUSH1 0x1 PUSH1 0xA0 SHL SUB AND SWAP1 PUSH4 0x23B872DD SWAP1 PUSH1 0x64 ADD PUSH1 0x20 PUSH1 0x40 MLOAD DUP1 DUP4 SUB DUP2 PUSH1 0x0 DUP8 GAS CALL ISZERO DUP1 ISZERO PUSH2 0x835 JUMPI RETURNDATASIZE PUSH1 0x0 DUP1 RETURNDATACOPY RETURNDATASIZE PUSH1 0x0 REVERT JUMPDEST POP POP POP POP PUSH1 0x40 MLOAD RETURNDATASIZE PUSH1 0x1F NOT PUSH1 0x1F DUP3 ADD AND DUP3 ADD DUP1 PUSH1 0x40 MSTORE POP DUP2 ADD SWAP1 PUSH2 0x859 SWAP2 SWAP1 PUSH2 0x1D35 JUMP JUMPDEST PUSH2 0x8A5 JUMPI PUSH1 0x40 MLOAD PUSH3 0x461BCD PUSH1 0xE5 SHL DUP2 MSTORE PUSH1 0x20 PUSH1 0x4 DUP3 ADD MSTORE PUSH1 0x1D PUSH1 0x24 DUP3 ADD MSTORE PUSH32 0x444D3A204661696C656420746F2064656C656761746520746F6B656E73000000 PUSH1 0x44 DUP3 ADD MSTORE PUSH1 0x64 ADD PUSH2 0x5AD JUMP JUMPDEST CALLER PUSH1 0x0 SWAP1 DUP2 MSTORE PUSH1 0x6 PUSH1 0x20 SWAP1 DUP2 MSTORE PUSH1 0x40 SWAP2 DUP3 SWAP1 KECCAK256 DUP3 MLOAD PUSH1 0x80 DUP2 ADD SWAP1 SWAP4 MSTORE DUP4 DUP4 MSTORE SWAP2 SWAP1 DUP2 ADD PUSH2 0x8D2 DUP7 TIMESTAMP PUSH2 0x1D57 JUMP JUMPDEST DUP2 MSTORE PUSH1 0x20 DUP1 DUP3 ADD DUP8 SWAP1 MSTORE PUSH1 0x1 PUSH1 0x1 PUSH1 0xA0 SHL SUB DUP10 DUP2 AND PUSH1 0x40 SWAP4 DUP5 ADD MSTORE DUP5 SLOAD PUSH1 0x1 DUP1 DUP3 ADD DUP8 SSTORE PUSH1 0x0 SWAP7 DUP8 MSTORE DUP4 DUP8 KECCAK256 DUP7 MLOAD PUSH1 0x4 SWAP1 SWAP4 MUL ADD SWAP2 DUP3 SSTORE SWAP3 DUP6 ADD MLOAD SWAP3 DUP2 ADD SWAP3 SWAP1 SWAP3 SSTORE SWAP2 DUP4 ADD MLOAD PUSH1 0x2 DUP3 ADD SSTORE PUSH1 0x60 SWAP1 SWAP3 ADD MLOAD PUSH1 0x3 SWAP1 SWAP3 ADD DUP1 SLOAD PUSH1 0x1 PUSH1 0x1 PUSH1 0xA0 SHL SUB NOT AND SWAP3 SWAP1 SWAP2 AND SWAP2 SWAP1 SWAP2 OR SWAP1 SSTORE PUSH2 0x948 DUP3 DUP6 PUSH2 0x1A9A JUMP JUMPDEST SWAP1 POP DUP1 PUSH1 0x8 PUSH1 0x0 DUP3 DUP3 SLOAD PUSH2 0x95C SWAP2 SWAP1 PUSH2 0x1D57 JUMP JUMPDEST SWAP1 SWAP2 SSTORE POP POP PUSH1 0x1 PUSH1 0x1 PUSH1 0xA0 SHL SUB DUP7 AND PUSH1 0x0 SWAP1 DUP2 MSTORE PUSH1 0x5 PUSH1 0x20 MSTORE PUSH1 0x40 DUP2 KECCAK256 PUSH1 0x3 ADD DUP1 SLOAD DUP4 SWAP3 SWAP1 PUSH2 0x98C SWAP1 DUP5 SWAP1 PUSH2 0x1D57 JUMP JUMPDEST SWAP1 SWAP2 SSTORE POP POP PUSH1 0x1 PUSH1 0x1 PUSH1 0xA0 SHL SUB DUP7 AND PUSH1 0x0 SWAP1 DUP2 MSTORE PUSH1 0x5 PUSH1 0x20 MSTORE PUSH1 0x40 DUP2 KECCAK256 PUSH1 0x4 ADD DUP1 SLOAD DUP5 SWAP3 SWAP1 PUSH2 0x9BC SWAP1 DUP5 SWAP1 PUSH2 0x1D57 JUMP JUMPDEST SWAP1 SWAP2 SSTORE POP POP CALLER PUSH1 0x0 SWAP1 DUP2 MSTORE PUSH1 0x9 PUSH1 0x20 MSTORE PUSH1 0x40 DUP2 KECCAK256 DUP1 SLOAD DUP4 SWAP3 SWAP1 PUSH2 0x9E0 SWAP1 DUP5 SWAP1 PUSH2 0x1D57 JUMP JUMPDEST SWAP1 SWAP2 SSTORE POP POP PUSH1 0xB SLOAD CALLER PUSH1 0x0 SWAP1 DUP2 MSTORE PUSH1 0x9 PUSH1 0x20 MSTORE PUSH1 0x40 SWAP1 KECCAK256 SLOAD PUSH8 0xDE0B6B3A7640000 SWAP2 PUSH2 0xA0B SWAP2 PUSH2 0x1CE9 JUMP JUMPDEST PUSH2 0xA15 SWAP2 SWAP1 PUSH2 0x1D00 JUMP JUMPDEST CALLER PUSH1 0x0 DUP2 DUP2 MSTORE PUSH1 0xD PUSH1 0x20 SWAP1 DUP2 MSTORE PUSH1 0x40 DUP1 DUP4 KECCAK256 SWAP5 SWAP1 SWAP5 SSTORE PUSH1 0x6 SWAP1 MSTORE SWAP2 SWAP1 SWAP2 KECCAK256 SLOAD PUSH1 0x1 PUSH1 0x1 PUSH1 0xA0 SHL SUB DUP9 AND SWAP2 SWAP1 PUSH32 0xC4AD67BAD2C1F682946A406D840F1B273F5CD5A53FCC1A03D078D92BFA2E07D0 SWAP1 PUSH2 0xA6E SWAP1 PUSH1 0x1 SWAP1 PUSH2 0x1D22 JUMP JUMPDEST PUSH1 0x40 DUP1 MLOAD SWAP2 DUP3 MSTORE PUSH1 0x20 DUP3 ADD DUP8 SWAP1 MSTORE DUP2 ADD DUP8 SWAP1 MSTORE PUSH1 0x60 ADD PUSH1 0x40 MLOAD DUP1 SWAP2 SUB SWAP1 LOG3 POP POP POP PUSH2 0xA98 PUSH1 0x1 DUP1 SSTORE JUMP JUMPDEST POP POP POP JUMP JUMPDEST PUSH1 0x7 DUP2 DUP2 SLOAD DUP2 LT PUSH2 0xAAD JUMPI PUSH1 0x0 DUP1 REVERT JUMPDEST PUSH1 0x0 SWAP2 DUP3 MSTORE PUSH1 0x20 SWAP1 SWAP2 KECCAK256 ADD SLOAD PUSH1 0x1 PUSH1 0x1 PUSH1 0xA0 SHL SUB AND SWAP1 POP DUP2 JUMP JUMPDEST PUSH1 0x1 PUSH1 0x1 PUSH1 0xA0 SHL SUB DUP2 AND PUSH1 0x0 SWAP1 DUP2 MSTORE PUSH1 0xD PUSH1 0x20 SWAP1 DUP2 MSTORE PUSH1 0x40 DUP1 DUP4 KECCAK256 SLOAD PUSH1 0xB SLOAD PUSH1 0x9 SWAP1 SWAP4 MSTORE SWAP1 DUP4 KECCAK256 SLOAD SWAP1 SWAP2 PUSH8 0xDE0B6B3A7640000 SWAP2 PUSH2 0xB05 SWAP2 SWAP1 PUSH2 0x1CE9 JUMP JUMPDEST PUSH2 0xB0F SWAP2 SWAP1 PUSH2 0x1D00 JUMP JUMPDEST PUSH2 0xB19 SWAP2 SWAP1 PUSH2 0x1D22 JUMP JUMPDEST SWAP3 SWAP2 POP POP JUMP JUMPDEST PUSH2 0xB27 PUSH2 0x1AD0 JUMP JUMPDEST PUSH1 0x1 PUSH1 0x1 PUSH1 0xA0 SHL SUB DUP2 AND PUSH2 0xB8E JUMPI PUSH1 0x40 MLOAD PUSH3 0x461BCD PUSH1 0xE5 SHL DUP2 MSTORE PUSH1 0x20 PUSH1 0x4 DUP3 ADD MSTORE PUSH1 0x28 PUSH1 0x24 DUP3 ADD MSTORE PUSH32 0x444D3A205265776172644D616E616765722063616E6E6F74206265207A65726F PUSH1 0x44 DUP3 ADD MSTORE PUSH8 0x2061646472657373 PUSH1 0xC0 SHL PUSH1 0x64 DUP3 ADD MSTORE PUSH1 0x84 ADD PUSH2 0x5AD JUMP JUMPDEST PUSH1 0x3 DUP1 SLOAD PUSH1 0x1 PUSH1 0x1 PUSH1 0xA0 SHL SUB NOT AND PUSH1 0x1 PUSH1 0x1 PUSH1 0xA0 SHL SUB SWAP3 SWAP1 SWAP3 AND SWAP2 SWAP1 SWAP2 OR SWAP1 SSTORE JUMP JUMPDEST PUSH2 0xBB8 PUSH2 0x18D7 JUMP JUMPDEST PUSH2 0xBC1 CALLER PUSH2 0x1901 JUMP JUMPDEST CALLER PUSH1 0x0 SWAP1 DUP2 MSTORE PUSH1 0x6 PUSH1 0x20 MSTORE PUSH1 0x40 SWAP1 KECCAK256 DUP1 SLOAD DUP3 LT PUSH2 0xC14 JUMPI PUSH1 0x40 MLOAD PUSH3 0x461BCD PUSH1 0xE5 SHL DUP2 MSTORE PUSH1 0x20 PUSH1 0x4 DUP3 ADD MSTORE PUSH1 0x11 PUSH1 0x24 DUP3 ADD MSTORE PUSH17 0x889A744092DCECC2D8D2C840D2DCC8CAF PUSH1 0x7B SHL PUSH1 0x44 DUP3 ADD MSTORE PUSH1 0x64 ADD PUSH2 0x5AD JUMP JUMPDEST PUSH1 0x0 DUP2 DUP4 DUP2 SLOAD DUP2 LT PUSH2 0xC28 JUMPI PUSH2 0xC28 PUSH2 0x1D6A JUMP JUMPDEST SWAP1 PUSH1 0x0 MSTORE PUSH1 0x20 PUSH1 0x0 KECCAK256 SWAP1 PUSH1 0x4 MUL ADD SWAP1 POP DUP1 PUSH1 0x1 ADD SLOAD TIMESTAMP LT ISZERO PUSH2 0xC8C JUMPI PUSH1 0x40 MLOAD PUSH3 0x461BCD PUSH1 0xE5 SHL DUP2 MSTORE PUSH1 0x20 PUSH1 0x4 DUP3 ADD MSTORE PUSH1 0x18 PUSH1 0x24 DUP3 ADD MSTORE PUSH32 0x444D3A204C6F636B20706572696F64206E6F74206F7665720000000000000000 PUSH1 0x44 DUP3 ADD MSTORE PUSH1 0x64 ADD PUSH2 0x5AD JUMP JUMPDEST PUSH1 0x0 PUSH2 0xCA0 DUP3 PUSH1 0x0 ADD SLOAD DUP4 PUSH1 0x2 ADD SLOAD PUSH2 0x1A9A JUMP JUMPDEST SWAP1 POP DUP1 PUSH1 0x8 PUSH1 0x0 DUP3 DUP3 SLOAD PUSH2 0xCB4 SWAP2 SWAP1 PUSH2 0x1D22 JUMP JUMPDEST SWAP1 SWAP2 SSTORE POP POP PUSH1 0x3 DUP1 DUP4 ADD SLOAD PUSH1 0x1 PUSH1 0x1 PUSH1 0xA0 SHL SUB AND PUSH1 0x0 SWAP1 DUP2 MSTORE PUSH1 0x5 PUSH1 0x20 MSTORE PUSH1 0x40 DUP2 KECCAK256 SWAP1 SWAP2 ADD DUP1 SLOAD DUP4 SWAP3 SWAP1 PUSH2 0xCE9 SWAP1 DUP5 SWAP1 PUSH2 0x1D22 JUMP JUMPDEST SWAP1 SWAP2 SSTORE POP POP DUP2 SLOAD PUSH1 0x3 DUP4 ADD SLOAD PUSH1 0x1 PUSH1 0x1 PUSH1 0xA0 SHL SUB AND PUSH1 0x0 SWAP1 DUP2 MSTORE PUSH1 0x5 PUSH1 0x20 MSTORE PUSH1 0x40 DUP2 KECCAK256 PUSH1 0x4 ADD DUP1 SLOAD SWAP1 SWAP2 SWAP1 PUSH2 0xD1F SWAP1 DUP5 SWAP1 PUSH2 0x1D22 JUMP JUMPDEST SWAP1 SWAP2 SSTORE POP POP CALLER PUSH1 0x0 SWAP1 DUP2 MSTORE PUSH1 0x9 PUSH1 0x20 MSTORE PUSH1 0x40 DUP2 KECCAK256 DUP1 SLOAD DUP4 SWAP3 SWAP1 PUSH2 0xD43 SWAP1 DUP5 SWAP1 PUSH2 0x1D22 JUMP JUMPDEST SWAP1 SWAP2 SSTORE POP POP DUP2 SLOAD PUSH1 0x0 SWAP1 PUSH2 0x2710 SWAP1 PUSH2 0xD5D SWAP1 PUSH1 0x64 SWAP1 PUSH2 0x1CE9 JUMP JUMPDEST PUSH2 0xD67 SWAP2 SWAP1 PUSH2 0x1D00 JUMP JUMPDEST SWAP1 POP PUSH1 0x0 DUP2 DUP5 PUSH1 0x0 ADD SLOAD PUSH2 0xD7B SWAP2 SWAP1 PUSH2 0x1D22 JUMP JUMPDEST SWAP1 POP DUP2 ISZERO PUSH2 0xE72 JUMPI PUSH1 0x2 SLOAD PUSH1 0x40 MLOAD PUSH4 0xA9059CBB PUSH1 0xE0 SHL DUP2 MSTORE PUSH1 0x1 PUSH1 0x1 PUSH1 0xA0 SHL SUB SWAP2 DUP3 AND PUSH1 0x4 DUP3 ADD MSTORE PUSH1 0x24 DUP2 ADD DUP5 SWAP1 MSTORE PUSH32 0x0 SWAP1 SWAP2 AND SWAP1 PUSH4 0xA9059CBB SWAP1 PUSH1 0x44 ADD PUSH1 0x20 PUSH1 0x40 MLOAD DUP1 DUP4 SUB DUP2 PUSH1 0x0 DUP8 GAS CALL ISZERO DUP1 ISZERO PUSH2 0xDF7 JUMPI RETURNDATASIZE PUSH1 0x0 DUP1 RETURNDATACOPY RETURNDATASIZE PUSH1 0x0 REVERT JUMPDEST POP POP POP POP PUSH1 0x40 MLOAD RETURNDATASIZE PUSH1 0x1F NOT PUSH1 0x1F DUP3 ADD AND DUP3 ADD DUP1 PUSH1 0x40 MSTORE POP DUP2 ADD SWAP1 PUSH2 0xE1B SWAP2 SWAP1 PUSH2 0x1D35 JUMP JUMPDEST PUSH2 0xE72 JUMPI PUSH1 0x40 MLOAD PUSH3 0x461BCD PUSH1 0xE5 SHL DUP2 MSTORE PUSH1 0x20 PUSH1 0x4 DUP3 ADD MSTORE PUSH1 0x22 PUSH1 0x24 DUP3 ADD MSTORE PUSH32 0x444D3A204661696C656420746F207472616E7366657220756E7374616B652066 PUSH1 0x44 DUP3 ADD MSTORE PUSH2 0x6565 PUSH1 0xF0 SHL PUSH1 0x64 DUP3 ADD MSTORE PUSH1 0x84 ADD PUSH2 0x5AD JUMP JUMPDEST DUP5 SLOAD PUSH1 0x1 LT DUP1 ISZERO PUSH2 0xE90 JUMPI POP DUP5 SLOAD PUSH2 0xE8C SWAP1 PUSH1 0x1 SWAP1 PUSH2 0x1D22 JUMP JUMPDEST DUP7 EQ ISZERO JUMPDEST ISZERO PUSH2 0xF24 JUMPI DUP5 SLOAD DUP6 SWAP1 PUSH2 0xEA5 SWAP1 PUSH1 0x1 SWAP1 PUSH2 0x1D22 JUMP JUMPDEST DUP2 SLOAD DUP2 LT PUSH2 0xEB5 JUMPI PUSH2 0xEB5 PUSH2 0x1D6A JUMP JUMPDEST SWAP1 PUSH1 0x0 MSTORE PUSH1 0x20 PUSH1 0x0 KECCAK256 SWAP1 PUSH1 0x4 MUL ADD DUP6 DUP8 DUP2 SLOAD DUP2 LT PUSH2 0xED5 JUMPI PUSH2 0xED5 PUSH2 0x1D6A JUMP JUMPDEST PUSH1 0x0 SWAP2 DUP3 MSTORE PUSH1 0x20 SWAP1 SWAP2 KECCAK256 DUP3 SLOAD PUSH1 0x4 SWAP1 SWAP3 MUL ADD SWAP1 DUP2 SSTORE PUSH1 0x1 DUP1 DUP4 ADD SLOAD SWAP1 DUP3 ADD SSTORE PUSH1 0x2 DUP1 DUP4 ADD SLOAD SWAP1 DUP3 ADD SSTORE PUSH1 0x3 SWAP2 DUP3 ADD SLOAD SWAP2 ADD DUP1 SLOAD PUSH1 0x1 PUSH1 0x1 PUSH1 0xA0 SHL SUB NOT AND PUSH1 0x1 PUSH1 0x1 PUSH1 0xA0 SHL SUB SWAP1 SWAP3 AND SWAP2 SWAP1 SWAP2 OR SWAP1 SSTORE JUMPDEST DUP5 DUP1 SLOAD DUP1 PUSH2 0xF34 JUMPI PUSH2 0xF34 PUSH2 0x1D80 JUMP JUMPDEST PUSH1 0x0 DUP3 DUP2 MSTORE PUSH1 0x20 DUP2 KECCAK256 PUSH1 0x0 NOT SWAP3 SWAP1 SWAP3 ADD PUSH1 0x4 DUP2 DUP2 MUL SWAP1 SWAP4 ADD DUP3 DUP2 SSTORE PUSH1 0x1 DUP2 ADD DUP4 SWAP1 SSTORE PUSH1 0x2 DUP2 ADD SWAP3 SWAP1 SWAP3 SSTORE PUSH1 0x3 SWAP1 SWAP2 ADD DUP1 SLOAD PUSH1 0x1 PUSH1 0x1 PUSH1 0xA0 SHL SUB NOT AND SWAP1 SSTORE SWAP1 SWAP2 SSTORE PUSH1 0x40 MLOAD PUSH4 0xA9059CBB PUSH1 0xE0 SHL DUP2 MSTORE CALLER SWAP2 DUP2 ADD SWAP2 SWAP1 SWAP2 MSTORE PUSH1 0x24 DUP2 ADD DUP3 SWAP1 MSTORE PUSH1 0x1 PUSH1 0x1 PUSH1 0xA0 SHL SUB PUSH32 0x0 AND SWAP1 PUSH4 0xA9059CBB SWAP1 PUSH1 0x44 ADD PUSH1 0x20 PUSH1 0x40 MLOAD DUP1 DUP4 SUB DUP2 PUSH1 0x0 DUP8 GAS CALL ISZERO DUP1 ISZERO PUSH2 0xFE3 JUMPI RETURNDATASIZE PUSH1 0x0 DUP1 RETURNDATACOPY RETURNDATASIZE PUSH1 0x0 REVERT JUMPDEST POP POP POP POP PUSH1 0x40 MLOAD RETURNDATASIZE PUSH1 0x1F NOT PUSH1 0x1F DUP3 ADD AND DUP3 ADD DUP1 PUSH1 0x40 MSTORE POP DUP2 ADD SWAP1 PUSH2 0x1007 SWAP2 SWAP1 PUSH2 0x1D35 JUMP JUMPDEST PUSH2 0x105E JUMPI PUSH1 0x40 MLOAD PUSH3 0x461BCD PUSH1 0xE5 SHL DUP2 MSTORE PUSH1 0x20 PUSH1 0x4 DUP3 ADD MSTORE PUSH1 0x22 PUSH1 0x24 DUP3 ADD MSTORE PUSH32 0x444D3A204661696C656420746F207472616E7366657220746F6B656E73206261 PUSH1 0x44 DUP3 ADD MSTORE PUSH2 0x636B PUSH1 0xF0 SHL PUSH1 0x64 DUP3 ADD MSTORE PUSH1 0x84 ADD PUSH2 0x5AD JUMP JUMPDEST PUSH1 0xB SLOAD CALLER PUSH1 0x0 SWAP1 DUP2 MSTORE PUSH1 0x9 PUSH1 0x20 MSTORE PUSH1 0x40 SWAP1 KECCAK256 SLOAD PUSH8 0xDE0B6B3A7640000 SWAP2 PUSH2 0x1084 SWAP2 PUSH2 0x1CE9 JUMP JUMPDEST PUSH2 0x108E SWAP2 SWAP1 PUSH2 0x1D00 JUMP JUMPDEST CALLER PUSH1 0x0 DUP2 DUP2 MSTORE PUSH1 0xD PUSH1 0x20 SWAP1 DUP2 MSTORE PUSH1 0x40 SWAP2 DUP3 SWAP1 KECCAK256 SWAP4 SWAP1 SWAP4 SSTORE DUP1 MLOAD DUP10 DUP2 MSTORE SWAP3 DUP4 ADD DUP5 SWAP1 MSTORE DUP3 ADD DUP5 SWAP1 MSTORE SWAP1 PUSH32 0x204FCCF0D92ED8D48F204ADB39B2E81E92BAD0DEDB93F5716CA9478CFB57DE00 SWAP1 PUSH1 0x60 ADD PUSH1 0x40 MLOAD DUP1 SWAP2 SUB SWAP1 LOG2 POP POP POP POP POP PUSH2 0x10F1 PUSH1 0x1 DUP1 SSTORE JUMP JUMPDEST POP JUMP JUMPDEST PUSH2 0x10FC PUSH2 0x1AD0 JUMP JUMPDEST PUSH2 0x1106 PUSH1 0x0 PUSH2 0x1AFD JUMP JUMPDEST JUMP JUMPDEST PUSH2 0x1128 PUSH11 0x2116545850052128000000 PUSH11 0xA56FA5B99019A5C8000000 PUSH2 0x1D22 JUMP JUMPDEST DUP2 JUMP JUMPDEST PUSH1 0x6 PUSH1 0x20 MSTORE DUP2 PUSH1 0x0 MSTORE PUSH1 0x40 PUSH1 0x0 KECCAK256 DUP2 DUP2 SLOAD DUP2 LT PUSH2 0x1147 JUMPI PUSH1 0x0 DUP1 REVERT JUMPDEST PUSH1 0x0 SWAP2 DUP3 MSTORE PUSH1 0x20 SWAP1 SWAP2 KECCAK256 PUSH1 0x4 SWAP1 SWAP2 MUL ADD DUP1 SLOAD PUSH1 0x1 DUP3 ADD SLOAD PUSH1 0x2 DUP4 ADD SLOAD PUSH1 0x3 SWAP1 SWAP4 ADD SLOAD SWAP2 SWAP5 POP SWAP3 POP PUSH1 0x1 PUSH1 0x1 PUSH1 0xA0 SHL SUB AND DUP5 JUMP JUMPDEST PUSH2 0x1182 PUSH2 0x18D7 JUMP JUMPDEST PUSH2 0x118B CALLER PUSH2 0x1901 JUMP JUMPDEST CALLER PUSH1 0x0 SWAP1 DUP2 MSTORE PUSH1 0x6 PUSH1 0x20 MSTORE PUSH1 0x40 SWAP1 KECCAK256 DUP1 SLOAD DUP3 LT PUSH2 0x11DE JUMPI PUSH1 0x40 MLOAD PUSH3 0x461BCD PUSH1 0xE5 SHL DUP2 MSTORE PUSH1 0x20 PUSH1 0x4 DUP3 ADD MSTORE PUSH1 0x11 PUSH1 0x24 DUP3 ADD MSTORE PUSH17 0x889A744092DCECC2D8D2C840D2DCC8CAF PUSH1 0x7B SHL PUSH1 0x44 DUP3 ADD MSTORE PUSH1 0x64 ADD PUSH2 0x5AD JUMP JUMPDEST PUSH1 0x0 DUP2 DUP4 DUP2 SLOAD DUP2 LT PUSH2 0x11F2 JUMPI PUSH2 0x11F2 PUSH2 0x1D6A JUMP JUMPDEST SWAP1 PUSH1 0x0 MSTORE PUSH1 0x20 PUSH1 0x0 KECCAK256 SWAP1 PUSH1 0x4 MUL ADD SWAP1 POP DUP1 PUSH1 0x1 ADD SLOAD TIMESTAMP LT PUSH2 0x127B JUMPI PUSH1 0x40 MLOAD PUSH3 0x461BCD PUSH1 0xE5 SHL DUP2 MSTORE PUSH1 0x20 PUSH1 0x4 DUP3 ADD MSTORE PUSH1 0x37 PUSH1 0x24 DUP3 ADD MSTORE PUSH32 0x444D3A2044656C65676174696F6E20697320616C726561647920756E6C6F636B PUSH1 0x44 DUP3 ADD MSTORE PUSH32 0x65642C2075736520726567756C617220756E7374616B65000000000000000000 PUSH1 0x64 DUP3 ADD MSTORE PUSH1 0x84 ADD PUSH2 0x5AD JUMP JUMPDEST DUP1 SLOAD PUSH1 0x0 PUSH2 0x2710 PUSH2 0x128E PUSH2 0x1388 DUP5 PUSH2 0x1CE9 JUMP JUMPDEST PUSH2 0x1298 SWAP2 SWAP1 PUSH2 0x1D00 JUMP JUMPDEST SWAP1 POP PUSH1 0x0 PUSH2 0x12A6 DUP3 DUP5 PUSH2 0x1D22 JUMP JUMPDEST SWAP1 POP PUSH1 0x0 PUSH2 0x12B8 DUP5 DUP7 PUSH1 0x2 ADD SLOAD PUSH2 0x1A9A JUMP JUMPDEST SWAP1 POP DUP1 PUSH1 0x8 PUSH1 0x0 DUP3 DUP3 SLOAD PUSH2 0x12CC SWAP2 SWAP1 PUSH2 0x1D22 JUMP JUMPDEST SWAP1 SWAP2 SSTORE POP POP PUSH1 0x3 DUP1 DUP7 ADD SLOAD PUSH1 0x1 PUSH1 0x1 PUSH1 0xA0 SHL SUB AND PUSH1 0x0 SWAP1 DUP2 MSTORE PUSH1 0x5 PUSH1 0x20 MSTORE PUSH1 0x40 DUP2 KECCAK256 SWAP1 SWAP2 ADD DUP1 SLOAD DUP4 SWAP3 SWAP1 PUSH2 0x1301 SWAP1 DUP5 SWAP1 PUSH2 0x1D22 JUMP JUMPDEST SWAP1 SWAP2 SSTORE POP POP PUSH1 0x3 DUP6 ADD SLOAD PUSH1 0x1 PUSH1 0x1 PUSH1 0xA0 SHL SUB AND PUSH1 0x0 SWAP1 DUP2 MSTORE PUSH1 0x5 PUSH1 0x20 MSTORE PUSH1 0x40 DUP2 KECCAK256 PUSH1 0x4 ADD DUP1 SLOAD DUP7 SWAP3 SWAP1 PUSH2 0x1335 SWAP1 DUP5 SWAP1 PUSH2 0x1D22 JUMP JUMPDEST SWAP1 SWAP2 SSTORE POP POP CALLER PUSH1 0x0 SWAP1 DUP2 MSTORE PUSH1 0x9 PUSH1 0x20 MSTORE PUSH1 0x40 DUP2 KECCAK256 DUP1 SLOAD DUP4 SWAP3 SWAP1 PUSH2 0x1359 SWAP1 DUP5 SWAP1 PUSH2 0x1D22 JUMP JUMPDEST SWAP1 SWAP2 SSTORE POP POP DUP3 ISZERO PUSH2 0x1457 JUMPI PUSH1 0x2 SLOAD PUSH1 0x40 MLOAD PUSH4 0xA9059CBB PUSH1 0xE0 SHL DUP2 MSTORE PUSH1 0x1 PUSH1 0x1 PUSH1 0xA0 SHL SUB SWAP2 DUP3 AND PUSH1 0x4 DUP3 ADD MSTORE PUSH1 0x24 DUP2 ADD DUP6 SWAP1 MSTORE PUSH32 0x0 SWAP1 SWAP2 AND SWAP1 PUSH4 0xA9059CBB SWAP1 PUSH1 0x44 ADD PUSH1 0x20 PUSH1 0x40 MLOAD DUP1 DUP4 SUB DUP2 PUSH1 0x0 DUP8 GAS CALL ISZERO DUP1 ISZERO PUSH2 0x13D8 JUMPI RETURNDATASIZE PUSH1 0x0 DUP1 RETURNDATACOPY RETURNDATASIZE PUSH1 0x0 REVERT JUMPDEST POP POP POP POP PUSH1 0x40 MLOAD RETURNDATASIZE PUSH1 0x1F NOT PUSH1 0x1F DUP3 ADD AND DUP3 ADD DUP1 PUSH1 0x40 MSTORE POP DUP2 ADD SWAP1 PUSH2 0x13FC SWAP2 SWAP1 PUSH2 0x1D35 JUMP JUMPDEST PUSH2 0x1457 JUMPI PUSH1 0x40 MLOAD PUSH3 0x461BCD PUSH1 0xE5 SHL DUP2 MSTORE PUSH1 0x20 PUSH1 0x4 DUP3 ADD MSTORE PUSH1 0x26 PUSH1 0x24 DUP3 ADD MSTORE PUSH32 0x444D3A204661696C656420746F2073656E642070656E616C747920746F207472 PUSH1 0x44 DUP3 ADD MSTORE PUSH6 0x656173757279 PUSH1 0xD0 SHL PUSH1 0x64 DUP3 ADD MSTORE PUSH1 0x84 ADD PUSH2 0x5AD JUMP JUMPDEST PUSH1 0x40 MLOAD PUSH4 0xA9059CBB PUSH1 0xE0 SHL DUP2 MSTORE CALLER PUSH1 0x4 DUP3 ADD MSTORE PUSH1 0x24 DUP2 ADD DUP4 SWAP1 MSTORE PUSH32 0x0 PUSH1 0x1 PUSH1 0x1 PUSH1 0xA0 SHL SUB AND SWAP1 PUSH4 0xA9059CBB SWAP1 PUSH1 0x44 ADD PUSH1 0x20 PUSH1 0x40 MLOAD DUP1 DUP4 SUB DUP2 PUSH1 0x0 DUP8 GAS CALL ISZERO DUP1 ISZERO PUSH2 0x14C4 JUMPI RETURNDATASIZE PUSH1 0x0 DUP1 RETURNDATACOPY RETURNDATASIZE PUSH1 0x0 REVERT JUMPDEST POP POP POP POP PUSH1 0x40 MLOAD RETURNDATASIZE PUSH1 0x1F NOT PUSH1 0x1F DUP3 ADD AND DUP3 ADD DUP1 PUSH1 0x40 MSTORE POP DUP2 ADD SWAP1 PUSH2 0x14E8 SWAP2 SWAP1 PUSH2 0x1D35 JUMP JUMPDEST PUSH2 0x1540 JUMPI PUSH1 0x40 MLOAD PUSH3 0x461BCD PUSH1 0xE5 SHL DUP2 MSTORE PUSH1 0x20 PUSH1 0x4 DUP3 ADD MSTORE PUSH1 0x23 PUSH1 0x24 DUP3 ADD MSTORE PUSH32 0x444D3A204661696C656420746F2072657475726E20746F6B656E7320746F2075 PUSH1 0x44 DUP3 ADD MSTORE PUSH3 0x39B2B9 PUSH1 0xE9 SHL PUSH1 0x64 DUP3 ADD MSTORE PUSH1 0x84 ADD PUSH2 0x5AD JUMP JUMPDEST DUP6 SLOAD PUSH1 0x1 LT DUP1 ISZERO PUSH2 0x155E JUMPI POP DUP6 SLOAD PUSH2 0x155A SWAP1 PUSH1 0x1 SWAP1 PUSH2 0x1D22 JUMP JUMPDEST DUP8 EQ ISZERO JUMPDEST ISZERO PUSH2 0x15F2 JUMPI DUP6 SLOAD DUP7 SWAP1 PUSH2 0x1573 SWAP1 PUSH1 0x1 SWAP1 PUSH2 0x1D22 JUMP JUMPDEST DUP2 SLOAD DUP2 LT PUSH2 0x1583 JUMPI PUSH2 0x1583 PUSH2 0x1D6A JUMP JUMPDEST SWAP1 PUSH1 0x0 MSTORE PUSH1 0x20 PUSH1 0x0 KECCAK256 SWAP1 PUSH1 0x4 MUL ADD DUP7 DUP9 DUP2 SLOAD DUP2 LT PUSH2 0x15A3 JUMPI PUSH2 0x15A3 PUSH2 0x1D6A JUMP JUMPDEST PUSH1 0x0 SWAP2 DUP3 MSTORE PUSH1 0x20 SWAP1 SWAP2 KECCAK256 DUP3 SLOAD PUSH1 0x4 SWAP1 SWAP3 MUL ADD SWAP1 DUP2 SSTORE PUSH1 0x1 DUP1 DUP4 ADD SLOAD SWAP1 DUP3 ADD SSTORE PUSH1 0x2 DUP1 DUP4 ADD SLOAD SWAP1 DUP3 ADD SSTORE PUSH1 0x3 SWAP2 DUP3 ADD SLOAD SWAP2 ADD DUP1 SLOAD PUSH1 0x1 PUSH1 0x1 PUSH1 0xA0 SHL SUB NOT AND PUSH1 0x1 PUSH1 0x1 PUSH1 0xA0 SHL SUB SWAP1 SWAP3 AND SWAP2 SWAP1 SWAP2 OR SWAP1 SSTORE JUMPDEST DUP6 DUP1 SLOAD DUP1 PUSH2 0x1602 JUMPI PUSH2 0x1602 PUSH2 0x1D80 JUMP JUMPDEST PUSH1 0x0 DUP3 DUP2 MSTORE PUSH1 0x20 DUP1 DUP3 KECCAK256 PUSH1 0x4 PUSH1 0x0 NOT SWAP1 SWAP5 ADD SWAP4 DUP5 MUL ADD DUP3 DUP2 SSTORE PUSH1 0x1 DUP2 ADD DUP4 SWAP1 SSTORE PUSH1 0x2 DUP2 ADD DUP4 SWAP1 SSTORE PUSH1 0x3 ADD DUP1 SLOAD PUSH1 0x1 PUSH1 0x1 PUSH1 0xA0 SHL SUB NOT AND SWAP1 SSTORE SWAP2 SWAP1 SWAP3 SSTORE PUSH1 0xB SLOAD CALLER DUP4 MSTORE PUSH1 0x9 SWAP1 SWAP2 MSTORE PUSH1 0x40 SWAP1 SWAP2 KECCAK256 SLOAD PUSH8 0xDE0B6B3A7640000 SWAP2 PUSH2 0x1662 SWAP2 PUSH2 0x1CE9 JUMP JUMPDEST PUSH2 0x166C SWAP2 SWAP1 PUSH2 0x1D00 JUMP JUMPDEST CALLER PUSH1 0x0 DUP2 DUP2 MSTORE PUSH1 0xD PUSH1 0x20 SWAP1 DUP2 MSTORE PUSH1 0x40 SWAP2 DUP3 SWAP1 KECCAK256 SWAP4 SWAP1 SWAP4 SSTORE DUP1 MLOAD DUP11 DUP2 MSTORE SWAP3 DUP4 ADD DUP6 SWAP1 MSTORE DUP3 ADD DUP6 SWAP1 MSTORE SWAP1 PUSH32 0x204FCCF0D92ED8D48F204ADB39B2E81E92BAD0DEDB93F5716CA9478CFB57DE00 SWAP1 PUSH1 0x60 ADD PUSH1 0x40 MLOAD DUP1 SWAP2 SUB SWAP1 LOG2 POP POP POP POP POP POP PUSH2 0x10F1 PUSH1 0x1 DUP1 SSTORE JUMP JUMPDEST PUSH2 0x16D8 PUSH2 0x18D7 JUMP JUMPDEST PUSH2 0x16E1 CALLER PUSH2 0x1901 JUMP JUMPDEST PUSH2 0x1106 PUSH1 0x1 DUP1 SSTORE JUMP JUMPDEST PUSH2 0x16F2 PUSH2 0x18D7 JUMP JUMPDEST PUSH1 0x0 DUP3 GT DUP1 ISZERO PUSH2 0x1704 JUMPI POP PUSH1 0x0 PUSH1 0x8 SLOAD GT JUMPDEST POP PUSH1 0x0 DUP2 GT DUP1 ISZERO PUSH2 0x1717 JUMPI POP PUSH1 0x0 PUSH1 0x8 SLOAD GT JUMPDEST ISZERO PUSH2 0x1752 JUMPI PUSH1 0x8 SLOAD PUSH2 0x1731 DUP3 PUSH8 0xDE0B6B3A7640000 PUSH2 0x1CE9 JUMP JUMPDEST PUSH2 0x173B SWAP2 SWAP1 PUSH2 0x1D00 JUMP JUMPDEST PUSH1 0xB PUSH1 0x0 DUP3 DUP3 SLOAD PUSH2 0x174C SWAP2 SWAP1 PUSH2 0x1D57 JUMP JUMPDEST SWAP1 SWAP2 SSTORE POP POP JUMPDEST PUSH1 0x40 DUP1 MLOAD DUP4 DUP2 MSTORE PUSH1 0x20 DUP2 ADD DUP4 SWAP1 MSTORE CALLER SWAP2 PUSH32 0x6E8A19C7BCAC2F8CA75D80A333A2CFFFD851001C55BA805C58CC66C70D92BD74 SWAP2 ADD PUSH1 0x40 MLOAD DUP1 SWAP2 SUB SWAP1 LOG2 PUSH2 0x1796 PUSH1 0x1 DUP1 SSTORE JUMP JUMPDEST POP POP JUMP JUMPDEST PUSH1 0x1 PUSH1 0x1 PUSH1 0xA0 SHL SUB DUP2 AND PUSH1 0x0 SWAP1 DUP2 MSTORE PUSH1 0x6 PUSH1 0x20 SWAP1 DUP2 MSTORE PUSH1 0x40 DUP1 DUP4 KECCAK256 DUP1 SLOAD DUP3 MLOAD DUP2 DUP6 MUL DUP2 ADD DUP6 ADD SWAP1 SWAP4 MSTORE DUP1 DUP4 MSTORE PUSH1 0x60 SWAP5 SWAP3 SWAP4 SWAP2 SWAP3 SWAP1 SWAP2 DUP5 ADD JUMPDEST DUP3 DUP3 LT ISZERO PUSH2 0x182F JUMPI PUSH1 0x0 DUP5 DUP2 MSTORE PUSH1 0x20 SWAP1 DUP2 SWAP1 KECCAK256 PUSH1 0x40 DUP1 MLOAD PUSH1 0x80 DUP2 ADD DUP3 MSTORE PUSH1 0x4 DUP7 MUL SWAP1 SWAP3 ADD DUP1 SLOAD DUP4 MSTORE PUSH1 0x1 DUP1 DUP3 ADD SLOAD DUP5 DUP7 ADD MSTORE PUSH1 0x2 DUP3 ADD SLOAD SWAP3 DUP5 ADD SWAP3 SWAP1 SWAP3 MSTORE PUSH1 0x3 ADD SLOAD PUSH1 0x1 PUSH1 0x1 PUSH1 0xA0 SHL SUB AND PUSH1 0x60 DUP4 ADD MSTORE SWAP1 DUP4 MSTORE SWAP1 SWAP3 ADD SWAP2 ADD PUSH2 0x17D2 JUMP JUMPDEST POP POP POP POP SWAP1 POP SWAP2 SWAP1 POP JUMP JUMPDEST PUSH2 0x1842 PUSH2 0x1AD0 JUMP JUMPDEST PUSH1 0x1 PUSH1 0x1 PUSH1 0xA0 SHL SUB DUP2 AND PUSH2 0x186C JUMPI PUSH1 0x40 MLOAD PUSH4 0x1E4FBDF7 PUSH1 0xE0 SHL DUP2 MSTORE PUSH1 0x0 PUSH1 0x4 DUP3 ADD MSTORE PUSH1 0x24 ADD PUSH2 0x5AD JUMP JUMPDEST PUSH2 0x10F1 DUP2 PUSH2 0x1AFD JUMP JUMPDEST PUSH1 0x60 PUSH1 0x7 DUP1 SLOAD DUP1 PUSH1 0x20 MUL PUSH1 0x20 ADD PUSH1 0x40 MLOAD SWAP1 DUP2 ADD PUSH1 0x40 MSTORE DUP1 SWAP3 SWAP2 SWAP1 DUP2 DUP2 MSTORE PUSH1 0x20 ADD DUP3 DUP1 SLOAD DUP1 ISZERO PUSH2 0x18CD JUMPI PUSH1 0x20 MUL DUP3 ADD SWAP2 SWAP1 PUSH1 0x0 MSTORE PUSH1 0x20 PUSH1 0x0 KECCAK256 SWAP1 JUMPDEST DUP2 SLOAD PUSH1 0x1 PUSH1 0x1 PUSH1 0xA0 SHL SUB AND DUP2 MSTORE PUSH1 0x1 SWAP1 SWAP2 ADD SWAP1 PUSH1 0x20 ADD DUP1 DUP4 GT PUSH2 0x18AF JUMPI JUMPDEST POP POP POP POP POP SWAP1 POP SWAP1 JUMP JUMPDEST PUSH1 0x2 PUSH1 0x1 SLOAD SUB PUSH2 0x18FA JUMPI PUSH1 0x40 MLOAD PUSH4 0x3EE5AEB5 PUSH1 0xE0 SHL DUP2 MSTORE PUSH1 0x4 ADD PUSH1 0x40 MLOAD DUP1 SWAP2 SUB SWAP1 REVERT JUMPDEST PUSH1 0x2 PUSH1 0x1 SSTORE JUMP JUMPDEST PUSH1 0x0 PUSH2 0x190C DUP3 PUSH2 0xAC7 JUMP JUMPDEST SWAP1 POP DUP1 ISZERO PUSH2 0x1796 JUMPI PUSH1 0xB SLOAD PUSH1 0x1 PUSH1 0x1 PUSH1 0xA0 SHL SUB DUP4 AND PUSH1 0x0 SWAP1 DUP2 MSTORE PUSH1 0x9 PUSH1 0x20 MSTORE PUSH1 0x40 SWAP1 KECCAK256 SLOAD PUSH8 0xDE0B6B3A7640000 SWAP2 PUSH2 0x1943 SWAP2 PUSH2 0x1CE9 JUMP JUMPDEST PUSH2 0x194D SWAP2 SWAP1 PUSH2 0x1D00 JUMP JUMPDEST PUSH1 0x1 PUSH1 0x1 PUSH1 0xA0 SHL SUB DUP4 DUP2 AND PUSH1 0x0 DUP2 DUP2 MSTORE PUSH1 0xD PUSH1 0x20 MSTORE PUSH1 0x40 SWAP1 DUP2 SWAP1 KECCAK256 SWAP4 SWAP1 SWAP4 SSTORE SWAP2 MLOAD PUSH4 0xA9059CBB PUSH1 0xE0 SHL DUP2 MSTORE PUSH1 0x4 DUP2 ADD SWAP3 SWAP1 SWAP3 MSTORE PUSH1 0x24 DUP3 ADD DUP4 SWAP1 MSTORE PUSH32 0x0 AND SWAP1 PUSH4 0xA9059CBB SWAP1 PUSH1 0x44 ADD PUSH1 0x20 PUSH1 0x40 MLOAD DUP1 DUP4 SUB DUP2 PUSH1 0x0 DUP8 GAS CALL ISZERO DUP1 ISZERO PUSH2 0x19D2 JUMPI RETURNDATASIZE PUSH1 0x0 DUP1 RETURNDATACOPY RETURNDATASIZE PUSH1 0x0 REVERT JUMPDEST POP POP POP POP PUSH1 0x40 MLOAD RETURNDATASIZE PUSH1 0x1F NOT PUSH1 0x1F DUP3 ADD AND DUP3 ADD DUP1 PUSH1 0x40 MSTORE POP DUP2 ADD SWAP1 PUSH2 0x19F6 SWAP2 SWAP1 PUSH2 0x1D35 JUMP JUMPDEST PUSH2 0x1A53 JUMPI PUSH1 0x40 MLOAD PUSH3 0x461BCD PUSH1 0xE5 SHL DUP2 MSTORE PUSH1 0x20 PUSH1 0x4 DUP3 ADD MSTORE PUSH1 0x28 PUSH1 0x24 DUP3 ADD MSTORE PUSH32 0x444D3A204661696C656420746F207472616E736665722064656C656761746F72 PUSH1 0x44 DUP3 ADD MSTORE PUSH8 0x2072657761726473 PUSH1 0xC0 SHL PUSH1 0x64 DUP3 ADD MSTORE PUSH1 0x84 ADD PUSH2 0x5AD JUMP JUMPDEST DUP2 PUSH1 0x1 PUSH1 0x1 PUSH1 0xA0 SHL SUB AND PUSH32 0x57E3F5364720537268C2FBDB1935293BA7690A5F3D206A64097C2F8F54DC5CAE DUP3 PUSH1 0x40 MLOAD PUSH2 0x1A8E SWAP2 DUP2 MSTORE PUSH1 0x20 ADD SWAP1 JUMP JUMPDEST PUSH1 0x40 MLOAD DUP1 SWAP2 SUB SWAP1 LOG2 POP POP JUMP JUMPDEST PUSH1 0x0 DUP1 PUSH2 0x1AAF PUSH8 0xDE0B6B3A7640000 DUP6 PUSH2 0x1D00 JUMP JUMPDEST SWAP1 POP PUSH2 0x1ABE PUSH3 0x15180 DUP5 PUSH2 0x1D00 JUMP JUMPDEST PUSH2 0x1AC8 SWAP1 DUP3 PUSH2 0x1CE9 JUMP JUMPDEST SWAP5 SWAP4 POP POP POP POP JUMP JUMPDEST PUSH1 0x0 SLOAD PUSH1 0x1 PUSH1 0x1 PUSH1 0xA0 SHL SUB AND CALLER EQ PUSH2 0x1106 JUMPI PUSH1 0x40 MLOAD PUSH4 0x118CDAA7 PUSH1 0xE0 SHL DUP2 MSTORE CALLER PUSH1 0x4 DUP3 ADD MSTORE PUSH1 0x24 ADD PUSH2 0x5AD JUMP JUMPDEST PUSH1 0x0 DUP1 SLOAD PUSH1 0x1 PUSH1 0x1 PUSH1 0xA0 SHL SUB DUP4 DUP2 AND PUSH1 0x1 PUSH1 0x1 PUSH1 0xA0 SHL SUB NOT DUP4 AND DUP2 OR DUP5 SSTORE PUSH1 0x40 MLOAD SWAP2 SWAP1 SWAP3 AND SWAP3 DUP4 SWAP2 PUSH32 0x8BE0079C531659141344CD1FD0A4F28419497F9722A3DAAFE3B4186F6B6457E0 SWAP2 SWAP1 LOG3 POP POP JUMP JUMPDEST DUP1 CALLDATALOAD PUSH1 0x1 PUSH1 0x1 PUSH1 0xA0 SHL SUB DUP2 AND DUP2 EQ PUSH2 0x1B64 JUMPI PUSH1 0x0 DUP1 REVERT JUMPDEST SWAP2 SWAP1 POP JUMP JUMPDEST PUSH1 0x0 DUP1 PUSH1 0x0 PUSH1 0x60 DUP5 DUP7 SUB SLT ISZERO PUSH2 0x1B7E JUMPI PUSH1 0x0 DUP1 REVERT JUMPDEST PUSH2 0x1B87 DUP5 PUSH2 0x1B4D JUMP JUMPDEST SWAP6 PUSH1 0x20 DUP6 ADD CALLDATALOAD SWAP6 POP PUSH1 0x40 SWAP1 SWAP5 ADD CALLDATALOAD SWAP4 SWAP3 POP POP POP JUMP JUMPDEST PUSH1 0x0 PUSH1 0x20 DUP3 DUP5 SUB SLT ISZERO PUSH2 0x1BAE JUMPI PUSH1 0x0 DUP1 REVERT JUMPDEST POP CALLDATALOAD SWAP2 SWAP1 POP JUMP JUMPDEST PUSH1 0x0 PUSH1 0x20 DUP3 DUP5 SUB SLT ISZERO PUSH2 0x1BC7 JUMPI PUSH1 0x0 DUP1 REVERT JUMPDEST PUSH2 0x1BD0 DUP3 PUSH2 0x1B4D JUMP JUMPDEST SWAP4 SWAP3 POP POP POP JUMP JUMPDEST PUSH1 0x0 DUP1 PUSH1 0x40 DUP4 DUP6 SUB SLT ISZERO PUSH2 0x1BEA JUMPI PUSH1 0x0 DUP1 REVERT JUMPDEST PUSH2 0x1BF3 DUP4 PUSH2 0x1B4D JUMP JUMPDEST SWAP5 PUSH1 0x20 SWAP4 SWAP1 SWAP4 ADD CALLDATALOAD SWAP4 POP POP POP JUMP JUMPDEST PUSH1 0x0 DUP1 PUSH1 0x40 DUP4 DUP6 SUB SLT ISZERO PUSH2 0x1C14 JUMPI PUSH1 0x0 DUP1 REVERT JUMPDEST POP POP DUP1 CALLDATALOAD SWAP3 PUSH1 0x20 SWAP1 SWAP2 ADD CALLDATALOAD SWAP2 POP JUMP JUMPDEST PUSH1 0x20 DUP1 DUP3 MSTORE DUP3 MLOAD DUP3 DUP3 ADD DUP2 SWAP1 MSTORE PUSH1 0x0 SWAP2 DUP5 ADD SWAP1 PUSH1 0x40 DUP5 ADD SWAP1 DUP4 JUMPDEST DUP2 DUP2 LT ISZERO PUSH2 0x1C87 JUMPI DUP4 MLOAD DUP1 MLOAD DUP5 MSTORE PUSH1 0x20 DUP1 DUP3 ADD MLOAD DUP2 DUP7 ADD MSTORE PUSH1 0x40 DUP1 DUP4 ADD MLOAD SWAP1 DUP7 ADD MSTORE PUSH1 0x60 SWAP2 DUP3 ADD MLOAD PUSH1 0x1 PUSH1 0x1 PUSH1 0xA0 SHL SUB AND SWAP2 DUP6 ADD SWAP2 SWAP1 SWAP2 MSTORE SWAP1 SWAP4 ADD SWAP3 PUSH1 0x80 SWAP1 SWAP3 ADD SWAP2 PUSH1 0x1 ADD PUSH2 0x1C3D JUMP JUMPDEST POP SWAP1 SWAP6 SWAP5 POP POP POP POP POP JUMP JUMPDEST PUSH1 0x20 DUP1 DUP3 MSTORE DUP3 MLOAD DUP3 DUP3 ADD DUP2 SWAP1 MSTORE PUSH1 0x0 SWAP2 DUP5 ADD SWAP1 PUSH1 0x40 DUP5 ADD SWAP1 DUP4 JUMPDEST DUP2 DUP2 LT ISZERO PUSH2 0x1C87 JUMPI DUP4 MLOAD PUSH1 0x1 PUSH1 0x1 PUSH1 0xA0 SHL SUB AND DUP4 MSTORE PUSH1 0x20 SWAP4 DUP5 ADD SWAP4 SWAP1 SWAP3 ADD SWAP2 PUSH1 0x1 ADD PUSH2 0x1CAC JUMP JUMPDEST PUSH4 0x4E487B71 PUSH1 0xE0 SHL PUSH1 0x0 MSTORE PUSH1 0x11 PUSH1 0x4 MSTORE PUSH1 0x24 PUSH1 0x0 REVERT JUMPDEST DUP1 DUP3 MUL DUP2 ISZERO DUP3 DUP3 DIV DUP5 EQ OR PUSH2 0xB19 JUMPI PUSH2 0xB19 PUSH2 0x1CD3 JUMP JUMPDEST PUSH1 0x0 DUP3 PUSH2 0x1D1D JUMPI PUSH4 0x4E487B71 PUSH1 0xE0 SHL PUSH1 0x0 MSTORE PUSH1 0x12 PUSH1 0x4 MSTORE PUSH1 0x24 PUSH1 0x0 REVERT JUMPDEST POP DIV SWAP1 JUMP JUMPDEST DUP2 DUP2 SUB DUP2 DUP2 GT ISZERO PUSH2 0xB19 JUMPI PUSH2 0xB19 PUSH2 0x1CD3 JUMP JUMPDEST PUSH1 0x0 PUSH1 0x20 DUP3 DUP5 SUB SLT ISZERO PUSH2 0x1D47 JUMPI PUSH1 0x0 DUP1 REVERT JUMPDEST DUP2 MLOAD DUP1 ISZERO ISZERO DUP2 EQ PUSH2 0x1BD0 JUMPI PUSH1 0x0 DUP1 REVERT JUMPDEST DUP1 DUP3 ADD DUP1 DUP3 GT ISZERO PUSH2 0xB19 JUMPI PUSH2 0xB19 PUSH2 0x1CD3 JUMP JUMPDEST PUSH4 0x4E487B71 PUSH1 0xE0 SHL PUSH1 0x0 MSTORE PUSH1 0x32 PUSH1 0x4 MSTORE PUSH1 0x24 PUSH1 0x0 REVERT JUMPDEST PUSH4 0x4E487B71 PUSH1 0xE0 SHL PUSH1 0x0 MSTORE PUSH1 0x31 PUSH1 0x4 MSTORE PUSH1 0x24 PUSH1 0x0 REVERT INVALID LOG2 PUSH5 0x6970667358 0x22 SLT KECCAK256 ORIGIN GASLIMIT MUL PUSH32 0xCB5D14F6EBBB1A36B666EDE89725564D4A7E8FFD08F402BFF067955E64736F6C PUSH4 0x4300081C STOP CALLER "},"methodIdentifiers":{"DELEGATION_FEE_BIPS()":"7c43809d","FORCE_UNSTAKE_PENALTY_BIPS()":"6240d803","MAX_LOCK_DURATION()":"4f1bfc9e","MAX_SUPPLY()":"32cb6b0c","MINT_POOL()":"85ef5c4a","MIN_LOCK_DURATION()":"78b4330f","ONTIME_UNSTAKE_FEE_BIPS()":"985f8e44","TGE_SUPPLY()":"7c81ff56","VALIDATOR_FEE_BIPS()":"7f121ea3","VALIDATOR_LOCK_DURATION()":"9b75b9bf","accDelegatorRewardPerStake()":"f1f4dea0","accValidatorRewardPerStake()":"7b700389","bkcToken()":"2402ff97","claimDelegatorReward()":"99464566","delegate(address,uint256,uint256)":"0185921e","delegatorRewardDebt(address)":"f6d41cd3","depositRewards(uint256,uint256)":"bdd071fb","forceUnstake(uint256)":"91460149","getAllValidators()":"f3513a37","getDelegationsOf(address)":"d6f6c248","hasPaidRegistrationFee(address)":"570e30e1","owner()":"8da5cb5b","pendingDelegatorRewards(address)":"08abda72","renounceOwnership()":"715018a6","rewardManagerAddress()":"dfebfdea","setRewardManager(address)":"153ee554","totalNetworkPStake()":"58f01c79","transferOwnership(address)":"f2fde38b","treasuryWallet()":"4626402b","unstake(uint256)":"2e17de78","userDelegations(address,uint256)":"89ebc31e","userTotalPStake(address)":"c684e0e1","validatorRewardDebt(address)":"c99615b0","validators(address)":"fa52c7d8","validatorsArray(uint256)":"031fadbd"}}}}}