{
  "_format": "hh-sol-artifact-1",
  "contractName": "RewardManager",
  "sourceName": "contracts/RewardManager.sol",
  "abi": [
    {
      "inputs": [
        {
          "internalType": "address",
          "name": "_bkcTokenAddress",
          "type": "address"
        },
        {
          "internalType": "address",
          "name": "_treasuryWallet",
          "type": "address"
        },
        {
          "internalType": "address",
          "name": "_initialOwner",
          "type": "address"
        }
      ],
      "stateMutability": "nonpayable",
      "type": "constructor"
    },
    {
      "inputs": [],
      "name": "ERC721EnumerableForbiddenBatchMint",
      "type": "error"
    },
    {
      "inputs": [
        {
          "internalType": "address",
          "name": "sender",
          "type": "address"
        },
        {
          "internalType": "uint256",
          "name": "tokenId",
          "type": "uint256"
        },
        {
          "internalType": "address",
          "name": "owner",
          "type": "address"
        }
      ],
      "name": "ERC721IncorrectOwner",
      "type": "error"
    },
    {
      "inputs": [
        {
          "internalType": "address",
          "name": "operator",
          "type": "address"
        },
        {
          "internalType": "uint256",
          "name": "tokenId",
          "type": "uint256"
        }
      ],
      "name": "ERC721InsufficientApproval",
      "type": "error"
    },
    {
      "inputs": [
        {
          "internalType": "address",
          "name": "approver",
          "type": "address"
        }
      ],
      "name": "ERC721InvalidApprover",
      "type": "error"
    },
    {
      "inputs": [
        {
          "internalType": "address",
          "name": "operator",
          "type": "address"
        }
      ],
      "name": "ERC721InvalidOperator",
      "type": "error"
    },
    {
      "inputs": [
        {
          "internalType": "address",
          "name": "owner",
          "type": "address"
        }
      ],
      "name": "ERC721InvalidOwner",
      "type": "error"
    },
    {
      "inputs": [
        {
          "internalType": "address",
          "name": "receiver",
          "type": "address"
        }
      ],
      "name": "ERC721InvalidReceiver",
      "type": "error"
    },
    {
      "inputs": [
        {
          "internalType": "address",
          "name": "sender",
          "type": "address"
        }
      ],
      "name": "ERC721InvalidSender",
      "type": "error"
    },
    {
      "inputs": [
        {
          "internalType": "uint256",
          "name": "tokenId",
          "type": "uint256"
        }
      ],
      "name": "ERC721NonexistentToken",
      "type": "error"
    },
    {
      "inputs": [
        {
          "internalType": "address",
          "name": "owner",
          "type": "address"
        },
        {
          "internalType": "uint256",
          "name": "index",
          "type": "uint256"
        }
      ],
      "name": "ERC721OutOfBoundsIndex",
      "type": "error"
    },
    {
      "inputs": [
        {
          "internalType": "address",
          "name": "owner",
          "type": "address"
        }
      ],
      "name": "OwnableInvalidOwner",
      "type": "error"
    },
    {
      "inputs": [
        {
          "internalType": "address",
          "name": "account",
          "type": "address"
        }
      ],
      "name": "OwnableUnauthorizedAccount",
      "type": "error"
    },
    {
      "inputs": [],
      "name": "ReentrancyGuardReentrantCall",
      "type": "error"
    },
    {
      "anonymous": false,
      "inputs": [
        {
          "indexed": true,
          "internalType": "address",
          "name": "owner",
          "type": "address"
        },
        {
          "indexed": true,
          "internalType": "address",
          "name": "approved",
          "type": "address"
        },
        {
          "indexed": true,
          "internalType": "uint256",
          "name": "tokenId",
          "type": "uint256"
        }
      ],
      "name": "Approval",
      "type": "event"
    },
    {
      "anonymous": false,
      "inputs": [
        {
          "indexed": true,
          "internalType": "address",
          "name": "owner",
          "type": "address"
        },
        {
          "indexed": true,
          "internalType": "address",
          "name": "operator",
          "type": "address"
        },
        {
          "indexed": false,
          "internalType": "bool",
          "name": "approved",
          "type": "bool"
        }
      ],
      "name": "ApprovalForAll",
      "type": "event"
    },
    {
      "anonymous": false,
      "inputs": [
        {
          "indexed": true,
          "internalType": "uint256",
          "name": "tokenId",
          "type": "uint256"
        },
        {
          "indexed": true,
          "internalType": "address",
          "name": "owner",
          "type": "address"
        },
        {
          "indexed": false,
          "internalType": "uint256",
          "name": "amountToOwner",
          "type": "uint256"
        },
        {
          "indexed": false,
          "internalType": "uint256",
          "name": "penaltyAmount",
          "type": "uint256"
        }
      ],
      "name": "CertificateWithdrawn",
      "type": "event"
    },
    {
      "anonymous": false,
      "inputs": [
        {
          "indexed": true,
          "internalType": "address",
          "name": "miner",
          "type": "address"
        },
        {
          "indexed": false,
          "internalType": "uint256",
          "name": "amount",
          "type": "uint256"
        }
      ],
      "name": "MinerRewardClaimed",
      "type": "event"
    },
    {
      "anonymous": false,
      "inputs": [
        {
          "indexed": true,
          "internalType": "address",
          "name": "previousOwner",
          "type": "address"
        },
        {
          "indexed": true,
          "internalType": "address",
          "name": "newOwner",
          "type": "address"
        }
      ],
      "name": "OwnershipTransferred",
      "type": "event"
    },
    {
      "anonymous": false,
      "inputs": [
        {
          "indexed": true,
          "internalType": "address",
          "name": "from",
          "type": "address"
        },
        {
          "indexed": true,
          "internalType": "address",
          "name": "to",
          "type": "address"
        },
        {
          "indexed": true,
          "internalType": "uint256",
          "name": "tokenId",
          "type": "uint256"
        }
      ],
      "name": "Transfer",
      "type": "event"
    },
    {
      "anonymous": false,
      "inputs": [
        {
          "indexed": true,
          "internalType": "uint256",
          "name": "tokenId",
          "type": "uint256"
        },
        {
          "indexed": true,
          "internalType": "address",
          "name": "recipient",
          "type": "address"
        },
        {
          "indexed": false,
          "internalType": "uint256",
          "name": "netAmount",
          "type": "uint256"
        }
      ],
      "name": "VestingCertificateCreated",
      "type": "event"
    },
    {
      "inputs": [],
      "name": "INITIAL_PENALTY_BIPS",
      "outputs": [
        {
          "internalType": "uint256",
          "name": "",
          "type": "uint256"
        }
      ],
      "stateMutability": "view",
      "type": "function"
    },
    {
      "inputs": [],
      "name": "MAX_SUPPLY",
      "outputs": [
        {
          "internalType": "uint256",
          "name": "",
          "type": "uint256"
        }
      ],
      "stateMutability": "view",
      "type": "function"
    },
    {
      "inputs": [],
      "name": "MINT_POOL",
      "outputs": [
        {
          "internalType": "uint256",
          "name": "",
          "type": "uint256"
        }
      ],
      "stateMutability": "view",
      "type": "function"
    },
    {
      "inputs": [],
      "name": "TGE_SUPPLY",
      "outputs": [
        {
          "internalType": "uint256",
          "name": "",
          "type": "uint256"
        }
      ],
      "stateMutability": "view",
      "type": "function"
    },
    {
      "inputs": [],
      "name": "VESTING_DURATION",
      "outputs": [
        {
          "internalType": "uint256",
          "name": "",
          "type": "uint256"
        }
      ],
      "stateMutability": "view",
      "type": "function"
    },
    {
      "inputs": [
        {
          "internalType": "address",
          "name": "to",
          "type": "address"
        },
        {
          "internalType": "uint256",
          "name": "tokenId",
          "type": "uint256"
        }
      ],
      "name": "approve",
      "outputs": [],
      "stateMutability": "nonpayable",
      "type": "function"
    },
    {
      "inputs": [
        {
          "internalType": "address",
          "name": "owner",
          "type": "address"
        }
      ],
      "name": "balanceOf",
      "outputs": [
        {
          "internalType": "uint256",
          "name": "",
          "type": "uint256"
        }
      ],
      "stateMutability": "view",
      "type": "function"
    },
    {
      "inputs": [],
      "name": "bkcToken",
      "outputs": [
        {
          "internalType": "contract BKCToken",
          "name": "",
          "type": "address"
        }
      ],
      "stateMutability": "view",
      "type": "function"
    },
    {
      "inputs": [],
      "name": "claimMinerRewards",
      "outputs": [],
      "stateMutability": "nonpayable",
      "type": "function"
    },
    {
      "inputs": [
        {
          "internalType": "address",
          "name": "_recipient",
          "type": "address"
        },
        {
          "internalType": "uint256",
          "name": "_grossAmount",
          "type": "uint256"
        }
      ],
      "name": "createVestingCertificate",
      "outputs": [],
      "stateMutability": "nonpayable",
      "type": "function"
    },
    {
      "inputs": [],
      "name": "delegationManager",
      "outputs": [
        {
          "internalType": "contract DelegationManager",
          "name": "",
          "type": "address"
        }
      ],
      "stateMutability": "view",
      "type": "function"
    },
    {
      "inputs": [
        {
          "internalType": "uint256",
          "name": "tokenId",
          "type": "uint256"
        }
      ],
      "name": "getApproved",
      "outputs": [
        {
          "internalType": "address",
          "name": "",
          "type": "address"
        }
      ],
      "stateMutability": "view",
      "type": "function"
    },
    {
      "inputs": [
        {
          "internalType": "address",
          "name": "owner",
          "type": "address"
        },
        {
          "internalType": "address",
          "name": "operator",
          "type": "address"
        }
      ],
      "name": "isApprovedForAll",
      "outputs": [
        {
          "internalType": "bool",
          "name": "",
          "type": "bool"
        }
      ],
      "stateMutability": "view",
      "type": "function"
    },
    {
      "inputs": [
        {
          "internalType": "address",
          "name": "",
          "type": "address"
        }
      ],
      "name": "minerRewardsOwed",
      "outputs": [
        {
          "internalType": "uint256",
          "name": "",
          "type": "uint256"
        }
      ],
      "stateMutability": "view",
      "type": "function"
    },
    {
      "inputs": [],
      "name": "name",
      "outputs": [
        {
          "internalType": "string",
          "name": "",
          "type": "string"
        }
      ],
      "stateMutability": "view",
      "type": "function"
    },
    {
      "inputs": [],
      "name": "owner",
      "outputs": [
        {
          "internalType": "address",
          "name": "",
          "type": "address"
        }
      ],
      "stateMutability": "view",
      "type": "function"
    },
    {
      "inputs": [
        {
          "internalType": "uint256",
          "name": "tokenId",
          "type": "uint256"
        }
      ],
      "name": "ownerOf",
      "outputs": [
        {
          "internalType": "address",
          "name": "",
          "type": "address"
        }
      ],
      "stateMutability": "view",
      "type": "function"
    },
    {
      "inputs": [],
      "name": "renounceOwnership",
      "outputs": [],
      "stateMutability": "nonpayable",
      "type": "function"
    },
    {
      "inputs": [
        {
          "internalType": "address",
          "name": "from",
          "type": "address"
        },
        {
          "internalType": "address",
          "name": "to",
          "type": "address"
        },
        {
          "internalType": "uint256",
          "name": "tokenId",
          "type": "uint256"
        }
      ],
      "name": "safeTransferFrom",
      "outputs": [],
      "stateMutability": "nonpayable",
      "type": "function"
    },
    {
      "inputs": [
        {
          "internalType": "address",
          "name": "from",
          "type": "address"
        },
        {
          "internalType": "address",
          "name": "to",
          "type": "address"
        },
        {
          "internalType": "uint256",
          "name": "tokenId",
          "type": "uint256"
        },
        {
          "internalType": "bytes",
          "name": "data",
          "type": "bytes"
        }
      ],
      "name": "safeTransferFrom",
      "outputs": [],
      "stateMutability": "nonpayable",
      "type": "function"
    },
    {
      "inputs": [
        {
          "internalType": "address",
          "name": "operator",
          "type": "address"
        },
        {
          "internalType": "bool",
          "name": "approved",
          "type": "bool"
        }
      ],
      "name": "setApprovalForAll",
      "outputs": [],
      "stateMutability": "nonpayable",
      "type": "function"
    },
    {
      "inputs": [
        {
          "internalType": "string",
          "name": "newBaseURI",
          "type": "string"
        }
      ],
      "name": "setBaseURI",
      "outputs": [],
      "stateMutability": "nonpayable",
      "type": "function"
    },
    {
      "inputs": [
        {
          "internalType": "address",
          "name": "_delegationManagerAddress",
          "type": "address"
        }
      ],
      "name": "setDelegationManager",
      "outputs": [],
      "stateMutability": "nonpayable",
      "type": "function"
    },
    {
      "inputs": [
        {
          "internalType": "bytes4",
          "name": "interfaceId",
          "type": "bytes4"
        }
      ],
      "name": "supportsInterface",
      "outputs": [
        {
          "internalType": "bool",
          "name": "",
          "type": "bool"
        }
      ],
      "stateMutability": "view",
      "type": "function"
    },
    {
      "inputs": [],
      "name": "symbol",
      "outputs": [
        {
          "internalType": "string",
          "name": "",
          "type": "string"
        }
      ],
      "stateMutability": "view",
      "type": "function"
    },
    {
      "inputs": [
        {
          "internalType": "uint256",
          "name": "index",
          "type": "uint256"
        }
      ],
      "name": "tokenByIndex",
      "outputs": [
        {
          "internalType": "uint256",
          "name": "",
          "type": "uint256"
        }
      ],
      "stateMutability": "view",
      "type": "function"
    },
    {
      "inputs": [
        {
          "internalType": "address",
          "name": "owner",
          "type": "address"
        },
        {
          "internalType": "uint256",
          "name": "index",
          "type": "uint256"
        }
      ],
      "name": "tokenOfOwnerByIndex",
      "outputs": [
        {
          "internalType": "uint256",
          "name": "",
          "type": "uint256"
        }
      ],
      "stateMutability": "view",
      "type": "function"
    },
    {
      "inputs": [
        {
          "internalType": "uint256",
          "name": "tokenId",
          "type": "uint256"
        }
      ],
      "name": "tokenURI",
      "outputs": [
        {
          "internalType": "string",
          "name": "",
          "type": "string"
        }
      ],
      "stateMutability": "view",
      "type": "function"
    },
    {
      "inputs": [],
      "name": "totalSupply",
      "outputs": [
        {
          "internalType": "uint256",
          "name": "",
          "type": "uint256"
        }
      ],
      "stateMutability": "view",
      "type": "function"
    },
    {
      "inputs": [
        {
          "internalType": "address",
          "name": "from",
          "type": "address"
        },
        {
          "internalType": "address",
          "name": "to",
          "type": "address"
        },
        {
          "internalType": "uint256",
          "name": "tokenId",
          "type": "uint256"
        }
      ],
      "name": "transferFrom",
      "outputs": [],
      "stateMutability": "nonpayable",
      "type": "function"
    },
    {
      "inputs": [
        {
          "internalType": "address",
          "name": "newOwner",
          "type": "address"
        }
      ],
      "name": "transferOwnership",
      "outputs": [],
      "stateMutability": "nonpayable",
      "type": "function"
    },
    {
      "inputs": [],
      "name": "treasuryWallet",
      "outputs": [
        {
          "internalType": "address",
          "name": "",
          "type": "address"
        }
      ],
      "stateMutability": "view",
      "type": "function"
    },
    {
      "inputs": [
        {
          "internalType": "uint256",
          "name": "",
          "type": "uint256"
        }
      ],
      "name": "vestingPositions",
      "outputs": [
        {
          "internalType": "uint256",
          "name": "totalAmount",
          "type": "uint256"
        },
        {
          "internalType": "uint256",
          "name": "startTime",
          "type": "uint256"
        }
      ],
      "stateMutability": "view",
      "type": "function"
    },
    {
      "inputs": [
        {
          "internalType": "uint256",
          "name": "_tokenId",
          "type": "uint256"
        }
      ],
      "name": "withdraw",
      "outputs": [],
      "stateMutability": "nonpayable",
      "type": "function"
    }
  ],
  "bytecode": "0x60c060405234801561001057600080fd5b50604051612ef9380380612ef983398101604081905261002f916101c6565b806040518060400160405280601d81526020017f4261636b636861696e2056657374696e67204365727469666963617465000000815250604051806040016040528060048152602001632125a1ab60e11b815250816000908161009291906102a8565b50600161009f82826102a8565b5050506001600160a01b0381166100d157604051631e4fbdf760e01b8152600060048201526024015b60405180910390fd5b6100da81610158565b506001600b556001600160a01b0383161580159061010057506001600160a01b03821615155b6101405760405162461bcd60e51b8152602060048201526011602482015270496e76616c69642061646472657373657360781b60448201526064016100c8565b506001600160a01b039182166080521660a052610366565b600a80546001600160a01b038381166001600160a01b0319831681179093556040519116919082907f8be0079c531659141344cd1fd0a4f28419497f9722a3daafe3b4186f6b6457e090600090a35050565b80516001600160a01b03811681146101c157600080fd5b919050565b6000806000606084860312156101db57600080fd5b6101e4846101aa565b92506101f2602085016101aa565b9150610200604085016101aa565b90509250925092565b634e487b7160e01b600052604160045260246000fd5b600181811c9082168061023357607f821691505b60208210810361025357634e487b7160e01b600052602260045260246000fd5b50919050565b601f8211156102a357806000526020600020601f840160051c810160208510156102805750805b601f840160051c820191505b818110156102a0576000815560010161028c565b50505b505050565b81516001600160401b038111156102c1576102c1610209565b6102d5816102cf845461021f565b84610259565b6020601f82116001811461030957600083156102f15750848201515b600019600385901b1c1916600184901b1784556102a0565b600084815260208120601f198516915b828110156103395787850151825560209485019460019092019101610319565b50848210156103575786840151600019600387901b60f8161c191681555b50505050600190811b01905550565b60805160a051612b0c6103ed600039600081816103570152818161080f01528181610f9701526113210152600081816102e5015281816107e2015281816108a201528181610b7101528181610fc6015281816110a1015281816111ba015281816112f4015281816113c80152818161144f015281816114d001526119d90152612b0c6000f3fe608060405234801561001057600080fd5b50600436106102065760003560e01c80636352211e1161011a57806395d89b41116100ad578063b88d4fde1161007c578063b88d4fde1461047e578063c87b56dd14610491578063e985e9c5146104a4578063ea4d3c9b146104b7578063f2fde38b146104ca57600080fd5b806395d89b4114610448578063a21b517f14610450578063a22cb46514610458578063b507aa1d1461046b57600080fd5b80637c81ff56116100e95780637c81ff56146103e15780637f09d23e146103f357806385ef5c4a1461042f5780638da5cb5b1461043757600080fd5b80636352211e146103aa578063647fad2e146103bd57806370a08231146103c6578063715018a6146103d957600080fd5b80632402ff971161019d57806342842e0e1161016c57806342842e0e1461033f5780634626402b146103525780634cfc4d30146103795780634f6ccce71461038457806355f804b31461039757600080fd5b80632402ff97146102e05780632e1a7d4d146103075780632f745c591461031a57806332cb6b0c1461032d57600080fd5b806318160ddd116101d957806318160ddd146102885780631a8c0a5a1461029a5780631a8d0de2146102ba57806323b872dd146102cd57600080fd5b806301ffc9a71461020b57806306fdde0314610233578063081812fc14610248578063095ea7b314610273575b600080fd5b61021e6102193660046123ab565b6104dd565b60405190151581526020015b60405180910390f35b61023b6104ee565b60405161022a9190612415565b61025b610256366004612428565b610580565b6040516001600160a01b03909116815260200161022a565b610286610281366004612456565b6105a9565b005b6008545b60405190815260200161022a565b61028c6102a8366004612482565b600f6020526000908152604090205481565b6102866102c8366004612482565b6105b8565b6102866102db36600461249f565b610688565b61025b7f000000000000000000000000000000000000000000000000000000000000000081565b610286610315366004612428565b610713565b61028c610328366004612456565b610972565b61028c6aa56fa5b99019a5c800000081565b61028661034d36600461249f565b6109c9565b61025b7f000000000000000000000000000000000000000000000000000000000000000081565b61028c630966018081565b61028c610392366004612428565b6109e9565b6102866103a53660046124e0565b610a3d565b61025b6103b8366004612428565b610a52565b61028c61138881565b61028c6103d4366004612482565b610a5d565b610286610aa5565b61028c6a211654585005212800000081565b61041a610401366004612428565b6011602052600090815260409020805460019091015482565b6040805192835260208301919091520161022a565b61028c610ab9565b600a546001600160a01b031661025b565b61023b610adc565b610286610aeb565b610286610466366004612562565b610c8a565b610286610479366004612456565b610c95565b61028661048c3660046125e2565b61165e565b61023b61049f366004612428565b611675565b61021e6104b23660046126ab565b611700565b600c5461025b906001600160a01b031681565b6102866104d8366004612482565b61172e565b60006104e882611769565b92915050565b6060600080546104fd906126d9565b80601f0160208091040260200160405190810160405280929190818152602001828054610529906126d9565b80156105765780601f1061054b57610100808354040283529160200191610576565b820191906000526020600020905b81548152906001019060200180831161055957829003601f168201915b5050505050905090565b600061058b8261178e565b506000828152600460205260409020546001600160a01b03166104e8565b6105b48282336117c7565b5050565b6105c06117d4565b6001600160a01b03811661061b5760405162461bcd60e51b815260206004820152601a60248201527f524d3a20416464726573732063616e6e6f74206265207a65726f00000000000060448201526064015b60405180910390fd5b600c546001600160a01b0316156106665760405162461bcd60e51b815260206004820152600f60248201526e14934e88105b1c9958591e481cd95d608a1b6044820152606401610612565b600c80546001600160a01b0319166001600160a01b0392909216919091179055565b6001600160a01b0382166106b257604051633250574960e11b815260006004820152602401610612565b60006106bf838333611801565b9050836001600160a01b0316816001600160a01b03161461070d576040516364283d7b60e01b81526001600160a01b0380861660048301526024820184905282166044820152606401610612565b50505050565b61071b611816565b3361072582610a52565b6001600160a01b03161461076b5760405162461bcd60e51b815260206004820152600d60248201526c2737ba103a34329037bbb732b960991b6044820152606401610612565b600081815260116020908152604080832081518083019092528054825260018101549282019290925290919081906107a290611840565b60008681526011602052604081208181556001015590925090506107c5846118a8565b80156108855760405163a9059cbb60e01b81526001600160a01b037f0000000000000000000000000000000000000000000000000000000000000000169063a9059cbb90610839907f0000000000000000000000000000000000000000000000000000000000000000908590600401612713565b6020604051808303816000875af1158015610858573d6000803e3d6000fd5b505050506040513d601f19601f8201168201806040525081019061087c919061272c565b61088557600080fd5b81156109255760405163a9059cbb60e01b81526001600160a01b037f0000000000000000000000000000000000000000000000000000000000000000169063a9059cbb906108d99033908690600401612713565b6020604051808303816000875af11580156108f8573d6000803e3d6000fd5b505050506040513d601f19601f8201168201806040525081019061091c919061272c565b61092557600080fd5b6040805183815260208101839052339186917f7cd7da4c046b1f0a02aa2a3e5302b417cf90122f48f2882063ef88ca15d50cb3910160405180910390a350505061096f6001600b55565b50565b600061097d83610a5d565b82106109a057828260405163295f44f760e21b8152600401610612929190612713565b506001600160a01b03919091166000908152600660209081526040808320938352929052205490565b6109e48383836040518060200160405280600081525061165e565b505050565b60006109f460085490565b8210610a185760008260405163295f44f760e21b8152600401610612929190612713565b60088281548110610a2b57610a2b612749565b90600052602060002001549050919050565b610a456117d4565b600d6109e48284836127a6565b60006104e88261178e565b60006001600160a01b038216610a89576040516322718ad960e21b815260006004820152602401610612565b506001600160a01b031660009081526003602052604090205490565b610aad6117d4565b610ab760006118e3565b565b610ad96a21165458500521280000006aa56fa5b99019a5c800000061287c565b81565b6060600180546104fd906126d9565b610af3611816565b336000908152600f602052604090205480610b505760405162461bcd60e51b815260206004820152601d60248201527f524d3a204e6f206d696e6572207265776172647320746f20636c61696d0000006044820152606401610612565b336000818152600f6020526040808220919091555163a9059cbb60e01b81527f00000000000000000000000000000000000000000000000000000000000000006001600160a01b03169163a9059cbb91610baf91908590600401612713565b6020604051808303816000875af1158015610bce573d6000803e3d6000fd5b505050506040513d601f19601f82011682018060405250810190610bf2919061272c565b610c4a5760405162461bcd60e51b8152602060048201526024808201527f524d3a204661696c656420746f207472616e73666572206d696e6572207265776044820152636172647360e01b6064820152608401610612565b60405181815233907f08526084592d720c4ec7e426c88ca4df1d1801a7de92703b2fc61dad658bd6f49060200160405180910390a250610ab76001600b55565b6105b4338383611935565b610c9d611816565b600c546001600160a01b0316610cf55760405162461bcd60e51b815260206004820152601d60248201527f524d3a2044656c65676174696f6e4d616e61676572206e6f74207365740000006044820152606401610612565b60008111610d515760405162461bcd60e51b8152602060048201526024808201527f524d3a20416d6f756e74206d7573742062652067726561746572207468616e206044820152637a65726f60e01b6064820152608401610612565b6001600160a01b038216610d9f5760405162461bcd60e51b815260206004820152601560248201527414934e88125b9d985b1a59081c9958da5c1a595b9d605a1b6044820152606401610612565b600c5460405163c684e0e160e01b8152336004820152600091839183916001600160a01b03169063c684e0e190602401602060405180830381865afa158015610dec573d6000803e3d6000fd5b505050506040513d601f19601f82011682018060405250810190610e10919061288f565b90506000600c60009054906101000a90046001600160a01b03166001600160a01b03166358f01c796040518163ffffffff1660e01b8152600401602060405180830381865afa158015610e67573d6000803e3d6000fd5b505050506040513d601f19601f82011682018060405250810190610e8b919061288f565b90508015610efe57600081610ea2846127106128a8565b610eac91906128d5565b9050600a811015610ed5576064610ec48760056128a8565b610ece91906128d5565b9450610ef8565b6064811015610ef8576064610eeb8760026128a8565b610ef591906128d5565b94505b50610f18565b6064610f0b8660056128a8565b610f1591906128d5565b93505b831561107f57610f28848661287c565b925060008311610f7a5760405162461bcd60e51b815260206004820152601c60248201527f524d3a20416d6f756e7420616674657220666565206973207a65726f000000006044820152606401610612565b6040516323b872dd60e01b81523360048201526001600160a01b037f000000000000000000000000000000000000000000000000000000000000000081166024830152604482018690527f000000000000000000000000000000000000000000000000000000000000000016906323b872dd906064016020604051808303816000875af115801561100f573d6000803e3d6000fd5b505050506040513d601f19601f82011682018060405250810190611033919061272c565b61107f5760405162461bcd60e51b815260206004820152601760248201527f524d3a20466565207472616e73666572206661696c65640000000000000000006044820152606401610612565b6040516323b872dd60e01b8152336004820152306024820152604481018490527f00000000000000000000000000000000000000000000000000000000000000006001600160a01b0316906323b872dd906064016020604051808303816000875af11580156110f2573d6000803e3d6000fd5b505050506040513d601f19601f82011682018060405250810190611116919061272c565b6111625760405162461bcd60e51b815260206004820152601960248201527f524d3a20546f6b656e207472616e73666572206661696c6564000000000000006044820152606401610612565b600061116d866119d4565b90508381156115ba576000606461118584600a6128a8565b61118f91906128d5565b905061119b81836128e9565b91508015611224576040516340c10f1960e01b81526001600160a01b037f000000000000000000000000000000000000000000000000000000000000000016906340c10f19906111f19030908590600401612713565b600060405180830381600087803b15801561120b57600080fd5b505af115801561121f573d6000803e3d6000fd5b505050505b600061122e611b89565b90506001600160a01b0381166112865760405162461bcd60e51b815260206004820152601c60248201527f524d3a20436f756c64206e6f742073656c6563742061206d696e6572000000006044820152606401610612565b6000606461129586600a6128a8565b61129f91906128d5565b9050600060646112b087600f6128a8565b6112ba91906128d5565b9050600060646112cb8860416128a8565b6112d591906128d5565b9050821561137e576040516340c10f1960e01b81526001600160a01b037f000000000000000000000000000000000000000000000000000000000000000016906340c10f199061134b907f0000000000000000000000000000000000000000000000000000000000000000908790600401612713565b600060405180830381600087803b15801561136557600080fd5b505af1158015611379573d6000803e3d6000fd5b505050505b8115611432576001600160a01b0384166000908152600f6020526040812080548492906113ac9084906128e9565b90915550506040516340c10f1960e01b81526001600160a01b037f000000000000000000000000000000000000000000000000000000000000000016906340c10f19906113ff9030908690600401612713565b600060405180830381600087803b15801561141957600080fd5b505af115801561142d573d6000803e3d6000fd5b505050505b80156115b4576040516340c10f1960e01b81526001600160a01b037f000000000000000000000000000000000000000000000000000000000000000016906340c10f19906114869030908590600401612713565b600060405180830381600087803b1580156114a057600080fd5b505af11580156114b4573d6000803e3d6000fd5b5050600c5460405163095ea7b360e01b81526001600160a01b037f00000000000000000000000000000000000000000000000000000000000000008116945063095ea7b3935061150a9216908590600401612713565b6020604051808303816000875af1158015611529573d6000803e3d6000fd5b505050506040513d601f19601f8201168201806040525081019061154d919061272c565b50600c5460405163bdd071fb60e01b815260006004820152602481018390526001600160a01b039091169063bdd071fb90604401600060405180830381600087803b15801561159b57600080fd5b505af11580156115af573d6000803e3d6000fd5b505050505b50505050505b600e8054600091826115cb836128fc565b9190505590506115db8982611c71565b604080518082018252838152426020808301918252600085815260119091528390209151825551600190910155516001600160a01b038a169082907f947ba8a5c8251ee740e822a581cb301ec8a0696f0f13d0741d8576c510399d8f906116459086815260200190565b60405180910390a3505050505050506105b46001600b55565b611669848484610688565b61070d84848484611c8b565b6060600061168283610a52565b6001600160a01b0316036116d85760405162461bcd60e51b815260206004820152601860248201527f4552433732313a20696e76616c696420746f6b656e20494400000000000000006044820152606401610612565b600d6040516020016116ea9190612915565b6040516020818303038152906040529050919050565b6001600160a01b03918216600090815260056020908152604080832093909416825291909152205460ff1690565b6117366117d4565b6001600160a01b03811661176057604051631e4fbdf760e01b815260006004820152602401610612565b61096f816118e3565b60006001600160e01b0319821663780e9d6360e01b14806104e857506104e882611db4565b6000818152600260205260408120546001600160a01b0316806104e857604051637e27328960e01b815260048101849052602401610612565b6109e48383836001611e04565b600a546001600160a01b03163314610ab75760405163118cdaa760e01b8152336004820152602401610612565b600061180e848484611f0a565b949350505050565b6002600b540361183957604051633ee5aeb560e01b815260040160405180910390fd5b6002600b55565b6000806000836020015142611855919061287c565b90506309660180811061186d57505090519160009150565b6000612710611388866000015161188491906128a8565b61188e91906128d5565b855190915061189e90829061287c565b9590945092505050565b60006118b76000836000611801565b90506001600160a01b0381166105b457604051637e27328960e01b815260048101839052602401610612565b600a80546001600160a01b038381166001600160a01b0319831681179093556040519116919082907f8be0079c531659141344cd1fd0a4f28419497f9722a3daafe3b4186f6b6457e090600090a35050565b6001600160a01b03821661196757604051630b61174360e31b81526001600160a01b0383166004820152602401610612565b6001600160a01b03838116600081815260056020908152604080832094871680845294825291829020805460ff191686151590811790915591519182527f17307eab39ab6107e8899845ad3d59bd9653f200f220920489ca2b5937696c31910160405180910390a3505050565b6000807f00000000000000000000000000000000000000000000000000000000000000006001600160a01b03166318160ddd6040518163ffffffff1660e01b8152600401602060405180830381865afa158015611a35573d6000803e3d6000fd5b505050506040513d601f19601f82011682018060405250810190611a59919061288f565b90506aa56fa5b99019a5c80000008110611a765750600092915050565b60006a21165458500521280000008211611a91576000611aa6565b611aa66a21165458500521280000008361287c565b9050600081611acb6a21165458500521280000006aa56fa5b99019a5c800000061287c565b611ad5919061287c565b905080600003611aea57506000949350505050565b6000611b0c6a21165458500521280000006aa56fa5b99019a5c800000061287c565b611b1e83670de0b6b3a76400006128a8565b611b2891906128d5565b90506000670de0b6b3a7640000611b3f83896128a8565b611b4991906128d5565b90506aa56fa5b99019a5c8000000611b6182876128e9565b1115611b7f57611b7c856aa56fa5b99019a5c800000061287c565b90505b9695505050505050565b600080600c60009054906101000a90046001600160a01b03166001600160a01b031663f3513a376040518163ffffffff1660e01b8152600401600060405180830381865afa158015611bdf573d6000803e3d6000fd5b505050506040513d6000823e601f3d908101601f19168201604052611c0791908101906129a3565b80519091506000819003611c1e5760009250505090565b8060105410611c2d5760006010555b60008260105481518110611c4357611c43612749565b60200260200101519050816010546001611c5d91906128e9565b611c679190612a5c565b6010559392505050565b6105b4828260405180602001604052806000815250611fd7565b6001600160a01b0383163b1561070d57604051630a85bd0160e11b81526001600160a01b0384169063150b7a0290611ccd903390889087908790600401612a70565b6020604051808303816000875af1925050508015611d08575060408051601f3d908101601f19168201909252611d0591810190612aa3565b60015b611d71573d808015611d36576040519150601f19603f3d011682016040523d82523d6000602084013e611d3b565b606091505b508051600003611d6957604051633250574960e11b81526001600160a01b0385166004820152602401610612565b805181602001fd5b6001600160e01b03198116630a85bd0160e11b14611dad57604051633250574960e11b81526001600160a01b0385166004820152602401610612565b5050505050565b60006001600160e01b031982166380ac58cd60e01b1480611de557506001600160e01b03198216635b5e139f60e01b145b806104e857506301ffc9a760e01b6001600160e01b03198316146104e8565b8080611e1857506001600160a01b03821615155b15611eda576000611e288461178e565b90506001600160a01b03831615801590611e545750826001600160a01b0316816001600160a01b031614155b8015611e675750611e658184611700565b155b15611e905760405163a9fbf51f60e01b81526001600160a01b0384166004820152602401610612565b8115611ed85783856001600160a01b0316826001600160a01b03167f8c5be1e5ebec7d5bd14f71427d1e84f3dd0314c0f7b2291e5b200ac8c7c3b92560405160405180910390a45b505b5050600090815260046020526040902080546001600160a01b0319166001600160a01b0392909216919091179055565b600080611f18858585611fee565b90506001600160a01b038116611f7557611f7084600880546000838152600960205260408120829055600182018355919091527ff3f7a9fe364faab93b216da50a3214154f22a0a2b415b23a84c8169e8b636ee30155565b611f98565b846001600160a01b0316816001600160a01b031614611f9857611f9881856120e7565b6001600160a01b038516611fb457611faf84612178565b61180e565b846001600160a01b0316816001600160a01b03161461180e5761180e8585612227565b611fe18383612277565b6109e46000848484611c8b565b6000828152600260205260408120546001600160a01b039081169083161561201b5761201b8184866122dc565b6001600160a01b0381161561205957612038600085600080611e04565b6001600160a01b038116600090815260036020526040902080546000190190555b6001600160a01b03851615612088576001600160a01b0385166000908152600360205260409020805460010190555b60008481526002602052604080822080546001600160a01b0319166001600160a01b0389811691821790925591518793918516917fddf252ad1be2c89b69c2b068fc378daa952ba7f163c4a11628f55a4df523b3ef91a4949350505050565b60006120f283610a5d565b600083815260076020526040902054909150808214612145576001600160a01b03841660009081526006602090815260408083208584528252808320548484528184208190558352600790915290208190555b5060009182526007602090815260408084208490556001600160a01b039094168352600681528383209183525290812055565b60085460009061218a9060019061287c565b600083815260096020526040812054600880549394509092849081106121b2576121b2612749565b9060005260206000200154905080600883815481106121d3576121d3612749565b600091825260208083209091019290925582815260099091526040808220849055858252812055600880548061220b5761220b612ac0565b6001900381819060005260206000200160009055905550505050565b6000600161223484610a5d565b61223e919061287c565b6001600160a01b039093166000908152600660209081526040808320868452825280832085905593825260079052919091209190915550565b6001600160a01b0382166122a157604051633250574960e11b815260006004820152602401610612565b60006122af83836000611801565b90506001600160a01b038116156109e4576040516339e3563760e11b815260006004820152602401610612565b6122e7838383612332565b6109e4576001600160a01b03831661231557604051637e27328960e01b815260048101829052602401610612565b818160405163177e802f60e01b8152600401610612929190612713565b60006001600160a01b0383161580159061180e5750826001600160a01b0316846001600160a01b0316148061236c575061236c8484611700565b8061180e5750506000908152600460205260409020546001600160a01b03908116911614919050565b6001600160e01b03198116811461096f57600080fd5b6000602082840312156123bd57600080fd5b81356123c881612395565b9392505050565b6000815180845260005b818110156123f5576020818501810151868301820152016123d9565b506000602082860101526020601f19601f83011685010191505092915050565b6020815260006123c860208301846123cf565b60006020828403121561243a57600080fd5b5035919050565b6001600160a01b038116811461096f57600080fd5b6000806040838503121561246957600080fd5b823561247481612441565b946020939093013593505050565b60006020828403121561249457600080fd5b81356123c881612441565b6000806000606084860312156124b457600080fd5b83356124bf81612441565b925060208401356124cf81612441565b929592945050506040919091013590565b600080602083850312156124f357600080fd5b823567ffffffffffffffff81111561250a57600080fd5b8301601f8101851361251b57600080fd5b803567ffffffffffffffff81111561253257600080fd5b85602082840101111561254457600080fd5b6020919091019590945092505050565b801515811461096f57600080fd5b6000806040838503121561257557600080fd5b823561258081612441565b9150602083013561259081612554565b809150509250929050565b634e487b7160e01b600052604160045260246000fd5b604051601f8201601f1916810167ffffffffffffffff811182821017156125da576125da61259b565b604052919050565b600080600080608085870312156125f857600080fd5b843561260381612441565b9350602085013561261381612441565b925060408501359150606085013567ffffffffffffffff81111561263657600080fd5b8501601f8101871361264757600080fd5b803567ffffffffffffffff8111156126615761266161259b565b612674601f8201601f19166020016125b1565b81815288602083850101111561268957600080fd5b8160208401602083013760006020838301015280935050505092959194509250565b600080604083850312156126be57600080fd5b82356126c981612441565b9150602083013561259081612441565b600181811c908216806126ed57607f821691505b60208210810361270d57634e487b7160e01b600052602260045260246000fd5b50919050565b6001600160a01b03929092168252602082015260400190565b60006020828403121561273e57600080fd5b81516123c881612554565b634e487b7160e01b600052603260045260246000fd5b601f8211156109e457806000526020600020601f840160051c810160208510156127865750805b601f840160051c820191505b81811015611dad5760008155600101612792565b67ffffffffffffffff8311156127be576127be61259b565b6127d2836127cc83546126d9565b8361275f565b6000601f84116001811461280657600085156127ee5750838201355b600019600387901b1c1916600186901b178355611dad565b600083815260209020601f19861690835b828110156128375786850135825560209485019460019092019101612817565b50868210156128545760001960f88860031b161c19848701351681555b505060018560011b0183555050505050565b634e487b7160e01b600052601160045260246000fd5b818103818111156104e8576104e8612866565b6000602082840312156128a157600080fd5b5051919050565b80820281158282048414176104e8576104e8612866565b634e487b7160e01b600052601260045260246000fd5b6000826128e4576128e46128bf565b500490565b808201808211156104e8576104e8612866565b60006001820161290e5761290e612866565b5060010190565b6000808354612923816126d9565b60018216801561293a576001811461294f5761297f565b60ff198316865281151582028601935061297f565b86600052602060002060005b838110156129775781548882015260019091019060200161295b565b505081860193505b5050703b32b9ba34b733afb1b2b93a173539b7b760791b8252506011019392505050565b6000602082840312156129b557600080fd5b815167ffffffffffffffff8111156129cc57600080fd5b8201601f810184136129dd57600080fd5b805167ffffffffffffffff8111156129f7576129f761259b565b8060051b612a07602082016125b1565b91825260208184018101929081019087841115612a2357600080fd5b6020850194505b83851015612a515784519250612a3f83612441565b82825260209485019490910190612a2a565b979650505050505050565b600082612a6b57612a6b6128bf565b500690565b6001600160a01b0385811682528416602082015260408101839052608060608201819052600090611b7f908301846123cf565b600060208284031215612ab557600080fd5b81516123c881612395565b634e487b7160e01b600052603160045260246000fdfea26469706673582212202054f4e0a925a8a982f9d5e84e120a243dcf64f6c76d9d2e1077b5108369ce3064736f6c634300081c0033",
  "linkReferences": {},
  "deployedLinkReferences": {}
}